:020000040800F2
:100000000007002029020008BD180008BF180008DA
:10001000C3180008C7180008CB180008000000002B
:10002000000000000000000000000000CF180008E1
:10003000D118000800000000D3180008D5180008E7
:10004000430200084302000843020008430200087C
:10005000430200084302000843020008430200086C
:10006000430200084302000843020008430200085C
:10007000430200084302000843020008430200084C
:10008000430200084302000843020008430200083C
:10009000430200084302000843020008430200082C
:1000A000430200084302000843020008430200081C
:1000B000E118000843020008430200084302000858
:1000C00043020008430200084302000843020008FC
:1000D00043020008430200084302000843020008EC
:1000E00043020008430200084302000843020008DC
:1000F00043020008430200084302000843020008CC
:1001000000000000000000000000000043020008A2
:1001100043020008430200084302000843020008AB
:10012000430200084302000843020008430200089B
:100130004302000843020008000000000000000025
:1001400043020008430200084302000800000000C8
:10015000000000000000000000000000000000009F
:1001600000000000000000004302000843020008F5
:100170004302000800000000000000000000000032
:10018000000000004302000800F002F800F03CF814
:100190000AA090E8000C82448344AAF10107DA45E2
:1001A00001D100F031F8AFF2090EBAE80F0013F0F8
:1001B000010F18BFFB1A43F0010318478419000010
:1001C000A4190000103A24BF78C878C1FAD85207A1
:1001D00024BF30C830C144BF04680C6070470000C1
:1001E0000023002400250026103A28BF78C1FBD840
:1001F000520728BF30C148BF0B6070471FB501F0E0
:100200009AFC1FBD10B510BD01F05FFC1146FFF751
:10021000F5FF01F004FB01F07DFC03B4FFF7F2FFF2
:1002200003BC01F081FC00000948804709480047F1
:10023000FEE7FEE7FEE7FEE7FEE7FEE7FEE7FEE796
:10024000FEE7FEE704480549054A064B70470000F3
:10025000A319000889010008000100200007002000
:10026000000300200003002010B50446B4F1A04FA5
:1002700002D0FA48844209D10121080701F0CDF9E2
:1002800000214FF0805001F0C8F90EE0F44884429C
:1002900002D0F448844208D10121480701F0BDF999
:1002A00000214FF0005001F0B8F910BD10B5024622
:1002B0000020D068EC4B1840D1E9003423438C680F
:1002C0002343CC6823430C6923434C6923438C6943
:1002D00023431843D060106B20F00F000B7F5B1E90
:1002E0001843106310BD0021016041608160C1604E
:1002F00001614161816101210177704710B50022E0
:10030000C26C00220B7A5B1E0C6823434C682343AB
:10031000CC6843EA04230C6943EA84338C8A43EAB9
:1003200004530C7E43EA8462C26410BD0021016064
:10033000416001210172C1600161416181617047C9
:1003400010B50022B0F1A04F02D0C44B984205D1A5
:10035000C64B1A68C64B02EA030203E0C54B1A6893
:10036000C34B1A40D1E9003423438C682343CC6843
:1003700043EA04330C7C43EA04231A43B0F1A04F50
:1003800002D0B64B984202D1B84B1A6001E0B94B8B
:100390001A6010BD0021016041608160C16001747C
:1003A000704721B1826842F00102826003E08268F6
:1003B00042F0020282607047816841F00041816032
:1003C00070470146D1F8B4007047C0F8B4107047C8
:1003D000826822F08042826082680A4382607047AD
:1003E000014600208A6812F0004F01D0012000E091
:1003F00000207047816841F002018160704701462A
:1004000000208A6812F0020F01D0012000E00020D5
:100410007047826822F04052826021B1826842F0C7
:100420008052826003E0826842F00052826070472E
:1004300010B53AB1D0F8B03001248C402343C0F855
:10044000B03006E0D0F8B03001248C40A343C0F8AF
:10045000B03010BD21B1C26842F40012C26003E0A6
:10046000C26822F40012C260704721B1C26842F42F
:100470008042C26003E0C26822F48042C2607047DA
:100480000A460021C16821F0E0711143C160704744
:1004900010B5036A784C23400362036A43EA0143C0
:1004A0000362036A6FF30B030362036A134303627D
:1004B00010BD436A23F47F034362436A43EA014366
:1004C0004362436A23F0FF034362436A1343436278
:1004D0007047836A23F47F038362836A43EA01439C
:1004E0008362836A23F0FF038362836A1343836218
:1004F00070470A460021C16821F0F84141EA826153
:10050000C16070470A46002150F8A01F5B4B19409C
:1005100001239340194303680B4340F8A039704707
:100520000A46002150F8A41F544B19400123934060
:10053000194303680B4340F8A4397047B0F1A04F4A
:1005400002D0464A904212D141B1484A126842F460
:1005500000024FF0A043C3F8082316E0434A126894
:1005600022F400024FF0A043C3F808230DE031B19C
:10057000404A126842F400023E4B1A6005E03D4AD0
:10058000126822F400023B4B1A607047B0F1A04F92
:1005900002D0324A904212D141B1344A126842F438
:1005A00080024FF0A043C3F8082316E02F4A1268D8
:1005B00022F480024FF0A043C3F808230DE031B1CC
:1005C0002C4A126842F480022A4B1A6005E0294A3C
:1005D000126822F48002274B1A607047B0F1A04FD6
:1005E00002D01E4A904212D141B1204A126842F014
:1005F00080724FF0A043C3F8082316E01B4A12682C
:1006000022F080724FF0A043C3F808230DE031B10F
:10061000184A126842F08072164B1A6005E0154ABB
:10062000126822F08072134B1A607047F0B50C46C6
:100630001D4600BF00BF052A22DA016B02EB42060D
:1006400077001F2606FA07F3994302EB420676006D
:1006500004FA06F3194301634FE000000001005063
:10066000000400500005005007C0FFFD08030050C3
:10067000E010FCFF08070050FFFF00F00100F8FF4A
:100680000A2A11DA416B561F06EB460677001F2631
:1006900006FA07F39943561F06EB4606760004FA5E
:1006A00006F31943416328E00F2A13DA816BA2F1A4
:1006B0000A0606EB460677001F2606FA07F399435B
:1006C000A2F10A0606EB4606760004FA06F3194381
:1006D000816312E0C16BA2F10F0606EB46067700BC
:1006E0001F2606FA07F39943A2F10F0606EB46060A
:1006F000760004FA06F31943C163092C14DD8169FD
:10070000A4F10A0606EB4607072606FA07F38669F0
:100710009E4386618669A4F10A0707EB470705FA3D
:1007200007F73E43866110E04169661E06EB460707
:10073000382606FA07F346699E434661466904EB8C
:10074000440705FA07F73E434661F0BD026B22F00D
:100750000F020263026B4B1E1A430263704710B50F
:10076000C36823F47C63C360C36842EA0104234383
:10077000C36010BD816841F004018160704701468B
:1007800000208A6812F0040F01D0012000E0002050
:100790007047816841F010018160704710B50A46CA
:1007A00000210023C16821F46021531E41EA434126
:1007B000C16010BD21B1C26842F48032C26003E062
:1007C000C26822F48032C26070470146086C80B271
:1007D000704701460020B1F1A04F02D0B14A9142CA
:1007E00002D1B14A106801E0B04A10687047036E48
:1007F00023F0F8430366036E43EA81630366036EE6
:100800006FF30B030366036E134303667047436E77
:1008100023F0F8434366436E43EA81634366436EC5
:100820006FF30B034366436E134343667047836E57
:1008300023F0F8438366836E43EA81638366836EA5
:100840006FF30B038366836E134383667047C36E37
:1008500023F0F843C366C36E43EA8163C366C36E85
:100860006FF30B03C366C36E1343C366704721B1B6
:10087000026E42F00042026603E0026E22F0004285
:100880000266704721B1426E42F00042426603E0C8
:10089000426E22F000424266704721B1826E42F001
:1008A0000042826603E0826E22F000428266704758
:1008B00021B1C26E42F00042C26603E0C26E22F075
:1008C0000042C266704721B1C26842F00102C260B4
:1008D00003E0C26822F00102C2607047C26822F0E1
:1008E0000202C260C2680A43C2607047F0B50446A3
:1008F000154600200022092911DDA069A1F10A0690
:1009000006EB4607072606FA07F29043A1F10A060E
:1009100006EB460603FA06F21043A0610CE060699C
:1009200001EB4107072606FA07F2904301EB410667
:1009300003FA06F210436061E06C6E1E06EB460699
:1009400077004FF4F85606FA07F290436E1E06EB56
:100950004606760001FA06F21043E064F0BD0A464E
:100960000021C16C21F00301531E1943C16470477B
:1009700010B5C36C23F0FC03C364C36C41EA0204EA
:100980002343C36410BD816841F008018160704752
:10099000816841F0200181607047014600208A682B
:1009A00012F0080F01D0012000E00020704721B1B3
:1009B000C26842F00072C26003E0C26822F00072B6
:1009C000C260704721B1C26842F48012C26003E085
:1009D000C26822F48012C260704708B50246002047
:1009E0000090009201F18000009B18440090009854
:1009F000006880B208BD1AB143680B43436002E04F
:100A000043688B43436070470246002013680B42E3
:100A100001D0012000E0002070470160704710B550
:100A2000024600230020B2F1A04F02D01D4CA2428A
:100A300002D11F4C236802E01C4C0C3C23680B4283
:100A400001D0012000E0002010BDB0F1A04F02D085
:100A5000144A904208D1164A126842EA01024FF045
:100A6000A043C3F8002306E0104A0C3A12680A4378
:100A70000E4B0C3B1A60704730B502460020002335
:100A8000002415680D40ABB255680D40ACB213B1EF
:100A90000CB1012000E0002030BD02680A43026072
:100AA00070470000000100500C0300500C0700507C
:100AB0000003005010B50121480700F0C8FD0021D7
:100AC0004FF0005000F0C3FD10BD30B500220023F0
:100AD0007B4C226840F6FE748440A243D1E9004575
:100AE0002C438D682C43CD6844EA050303FA00F4D7
:100AF0002243734C226030BD00210160416081605F
:100B0000C160704739B16E4A1268012383401A43AD
:100B10006B4B1A6006E06A4A1268012383409A43CD
:100B2000674B1A60704710B551B1654A121D1268C3
:100B300004090123A3401A43614B1B1D1A6009E0FD
:100B40005F4A121D126804090123A3409A435C4BBB
:100B50001B1D1A6010BD40B15949091D096841F0BB
:100B60000301574A121D116007E05549091D096824
:100B700021F00301524A121D1160704710B53AB1BD
:100B80004F4B1B6801FA00F423434D4C236006E0F1
:100B90004B4B1B6801FA00F4A343494C236010BD82
:100BA00008B500220092464A009200F10802009B1C
:100BB0001A440092009A116008BD08B50022009204
:100BC0003F4A009200F11402009B1A440092009ADE
:100BD000116008BD30B500240023082802D142EA84
:100BE000012401E042EA0144354B00F120052B4489
:100BF0001C6030BD08B501460020009030480090D0
:100C00002C2000EB9100009A10440090009800689E
:100C100080B208BD41B12A4A12684FF48053834024
:100C20001A43274B1A6007E0254A12684FF4805395
:100C300083409A43224B1A60704710B53AB1204B5B
:100C40001B6801FA00F423431D4C236006E01C4B93
:100C50001B6801FA00F4A343194C236010BD10B5C2
:100C600002460020164B34331B6801FA02F423427B
:100C700001D0012000E0002010BD01FA00F2104B6D
:100C800034331A60704730B50246002000230C4C04
:100C9000246801FA02F504EA0503094C3434246897
:100CA00001FA02F52C4202D00BB1012000E0002035
:100CB00030BD01FA00F2024B34331A607047000075
:100CC0000074004010B50446B4F1904F09D10121E1
:100CD000480400F0A2FC00214FF4003000F09DFC1D
:100CE0003CE07048844208D10121000200F095FCEC
:100CF0000021200200F091FC30E06B48844208D1D2
:100D00000121000200F089FC0021200200F085FC96
:100D100024E06648844209D10121080500F07DFCE9
:100D200000214FF4801000F078FC17E06048844206
:100D300008D10121400200F070FC0021600200F0A7
:100D40006CFC0BE05B48844208D10121880500F06F
:100D500064FC00214FF4800000F05FFC10BDF0B592
:100D60000A4600210023002400BF3DE0012505FACA
:100D700001F3156805EA03049C4234D11579012D6D
:100D800002D01579022D16D185684F000326BE408A
:100D9000B543856055794E00B5408668354385601A
:100DA000868801258D40AE438680868895798D4062
:100DB000ADB22E43868005684F000326BE40B54382
:100DC000056015794E00B540066835430560C56875
:100DD0004F000326BE40B543C560D5794E00B540EF
:100DE000C6683543C560491C1029BFD3F0BD4FF616
:100DF000FF710160002101710121417100218171A8
:100E0000C17170474FF480320A43C261C161C2614F
:100E1000C269C269704702460020138A0B4201D0A2
:100E2000012000E0002070470146088A7047024612
:100E30000020938A0B4201D0012000E0002070477F
:100E40000146888A704781617047018570470AB101
:100E5000816100E00185704781827047F0B5002311
:100E600000244D07ED0E02FA05F3CE1000F1200527
:100E700055F826504E07F70E0F26BE40B543CF104B
:100E800000F1200646F82750CE1000F1200555F855
:100E9000265045EA0304CE1000F1200545F826400F
:100EA000F0BD00000004004800080048000C0048A5
:100EB0000010004800140048FD48006840F00100A0
:100EC000FB49086008464068FA490840F84948600C
:100ED00008460068F8490840F54908600846006877
:100EE00020F4802008600846406820F4FE00486036
:100EF0000846C06A6FF30D00C8620846006BEF49F0
:100F00000840EB4908630020886070470021E84AE8
:100F1000917011468870704710B502460021002379
:100F20000020511111B9E24C23680BE0012902D1D4
:100F3000DF4C236A06E0042902D1DD4C636801E03E
:100F4000DB4C636A02F01F0101248C401C4201D07B
:100F5000012000E0002010BD38B5002000900024E2
:100F6000002500BF1120FFF7D7FF05460098401C61
:100F700000900098B0F5A06F01D0002DF2D01120A4
:100F8000FFF7CAFF08B1012400E00024204638BD65
:100F900001460020C64A106820F0F80040EAC1006F
:100FA00010607047C64908607047C149096A21F05E
:100FB0000101BF4A11621146096A21F00401116260
:100FC0001146096A014311627047B949096A21F063
:100FD0001801B74A11621146096A0143116270474C
:100FE000B84908607047B24A526822F47412B04B94
:100FF0005A601A46526840EA01031A43AC4B5A60E1
:101000007047AF490866704701460020A84AD06A79
:1010100020F00F000843D0627047A949C8647047A8
:10102000A349C871704701460020A14A506820F0CA
:1010300003000843506070479D48406800F00C0072
:101040007047014600209A4A506820F0F00008439B
:101050005060704701460020954A506820F4E060D7
:1010600008435060704701460020914A506820F4C0
:10107000605040EAC100506070472DE9F041002106
:10108000002400278C460023002200250026DFF8DC
:101090002082D8F8048008F00C0121B1042907D07F
:1010A000082930D109E0DFF82082C0F800802FE065
:1010B000DFF81482C0F800802AE0DFF8F481D8F865
:1010C000048008F47014DFF8E881D8F8048008F48C
:1010D00080374FF0020808EB944427B9DFF8EC8121
:1010E00004FB08F20DE0DFF8C881D8F82C8008F086
:1010F0000F0808F1010CDFF8D081B8FBFCF808FB01
:1011000004F2026004E0DFF8C081C0F8008000BF94
:1011100000BFDFF89C81D8F8048008F0F0010909CD
:10112000DFF8AC8118F80160D0F8008028FA06F8E2
:10113000C0F80480DFF87881D8F8048008F4E06112
:10114000090ADFF88C8118F80130D0F8048028FAF9
:1011500003F8C0F80880DFF85881D8F8048008F454
:101160006051C90ADFF8688118F80150D0F804808E
:1011700028FA05F8C0F80C80DFF83481D8F82C8004
:1011800008F4F8710909DFF84C8138F8113013F0D0
:10119000100F04D0B2FBF3F8C0F8108003E0D0F8D1
:1011A0000080C0F81080DFF80881D8F82C8008F49F
:1011B0007851490ADFF81C8138F8113013F0100F0C
:1011C00004D0B2FBF3F8C0F8148003E0D0F800803C
:1011D000C0F81480DFF8D880D8F8308008F0100804
:1011E000B8F1100F04D0DFF8E080C0F8188003E0F9
:1011F000D0F80080C0F81880DFF8B480D8F83080CC
:1012000008F02008B8F1200F04D0DFF8BC80C0F847
:101210001C8003E0D0F80080C0F81C80DFF89080CC
:10122000D8F8308008F48078B8F5807F0AD1D0F8FB
:101230000080904506D1B54204D14FEA4208C0F87B
:10124000208003E0D0F80C80C0F82080DFF86080B8
:10125000D8F8308008F40078B8F5007F0AD1D0F8CB
:101260000080904506D1B54204D14FEA4208C0F84B
:10127000248003E0D0F80C80C0F82480DFF83080B0
:10128000D8F8308018F0030F04D1D0F80C80C0F8E3
:1012900028803CE0DFF81880D8F8308008F0030898
:1012A000B8F1010F18D1D0F80080C0F828802EE0E6
:1012B0000010024000C0FFF8FFFFF6FECCFC000F5C
:1012C000000042428004424200127A0000093D00C0
:1012D0000000002010000020DFF8D083D8F8308014
:1012E00008F00308B8F1020F04D14FF40048C0F829
:1012F00028800CE0DFF8B483D8F8308008F00308C9
:10130000B8F1030F03D1DFF8A883C0F82880DFF815
:101310009C83D8F8308018F4403F04D1D0F808807E
:10132000C0F82C8028E0DFF88483D8F8308008F4F7
:101330004038B8F5803F04D1D0F80080C0F82C8048
:101340001AE0DFF86883D8F8308008F44038B8F540
:10135000003F04D14FF40048C0F82C800CE0DFF8C7
:101360004C83D8F8308008F44038B8F5403F03D1BA
:10137000DFF83C83C0F82C80DFF83083D8F8308069
:1013800018F4402F04D1D0F80880C0F8308028E04D
:10139000DFF81883D8F8308008F44028B8F5802F9B
:1013A00004D1D0F80080C0F830801AE0DFF8FC8269
:1013B000D8F8308008F44028B8F5002F04D14FF455
:1013C0000048C0F830800CE0DFF8E082D8F83080C8
:1013D00008F44028B8F5402F03D1DFF8D482C0F8D4
:1013E0003080DFF8C882D8F8308018F4401F04D16C
:1013F000D0F80880C0F8348028E0DFF8B082D8F850
:10140000308008F44018B8F5801F04D1D0F800806F
:10141000C0F834801AE0DFF89482D8F8308008F4FD
:101420004018B8F5001F04D14FF40048C0F83480CC
:101430000CE0DFF87882D8F8308008F44018B8F56E
:10144000401F03D1DFF86882C0F83480DFF85C8287
:10145000D8F8308018F4400F04D1D0F80880C0F8D4
:10146000388028E0DFF84482D8F8308008F440085B
:10147000B8F5800F04D1D0F80080C0F838801AE0A9
:10148000DFF82882D8F8308008F44008B8F5000F5B
:1014900004D14FF40048C0F838800CE0DFF80C822B
:1014A000D8F8308008F44008B8F5400F03D1DFF8D1
:1014B0000082C0F83880BDE8F0810021010F31B111
:1014C0007A4AD26A22F47852784BDA6205E0774A97
:1014D000D26A22F4F872754BDA62744AD26A024315
:1014E000724BDA6270470021010F31B16F4A126B03
:1014F00022F020026D4B1A6305E06C4A126B22F059
:1015000010026A4B1A63694A126B0243674B1A63F3
:1015100070470021010F31B1644A126B22F400724E
:10152000624B1A6305E0614A126B22F480725F4BD2
:101530001A635E4A126B02435C4B1A6370470021C8
:10154000010F062927D2DFE801F026030A11181F30
:10155000564A126B22F00302544B1A631CE0534AA2
:10156000126B22F44032514B1A6315E04F4A126B52
:1015700022F440224D4B1A630EE04C4A126B22F4C7
:1015800040124A4B1A6307E0484A126B22F44002A9
:10159000464B1A6300E000BF00BF444A126B02438F
:1015A000424B1A6370474349086070473F49096AD4
:1015B00001433E4A116270473F49086070473F4906
:1015C000086070473D49091D0860704729B1374AD6
:1015D00052690243354B5A6104E0344A52698243EE
:1015E000324B5A61704729B1304A926902432F4BFE
:1015F0009A6104E02D4A926982432C4B9A617047AC
:1016000029B12A4AD2690243284BDA6104E0274A09
:10161000D2698243254BDA61704729B1234A926A25
:101620000243224B9A6204E0204A926A82431F4B93
:101630009A62704729B11D4AD26802431B4BDA6097
:1016400004E01A4AD2688243184BDA60704729B125
:10165000164A12690243154B1A6104E0134A1269D3
:101660008243124B1A61704729B1104A527A0243E1
:101670000E4B5A7204E00D4A527A82430B4B5A7257
:1016800070470A48406A40F08070084948627047D5
:1016900001460020054A92680A4201D0012000E07C
:1016A0000020704701498872704700000010024016
:1016B00000127A00D8004242DC0042423C0442421E
:1016C00010B501214807FFF79BFF01214804FFF7F0
:1016D0007DFF10206D490860032008710020C8714B
:1016E0004FF09040FFF73BFBFFF7E4F9002068491B
:1016F00008604860C860FFF7E8F901210020FFF7A3
:1017000001FA10BD70B54FF48870FFF7D6FE0121C5
:101710000807FFF75BFF5F4800685F4AB0FBF2F124
:10172000481EB0F1807F01D301201BE0481E4FF01E
:10173000E022506150170F22002807DA13071D0E10
:10174000564B00F00F04241F1D5503E013071C0E19
:10175000534B1C5400BF00204FF0E0229061072043
:101760001061002008B100BFFEE701214804FFF727
:101770002DFF012045490860032008710020C87131
:101780004FF09040FFF7EBFA00214FF0A040FEF73A
:101790001FFE4FF0A040FEF70FFE00BF4FF0A0402D
:1017A000FEF71EFE0028F9D14FF0A040FEF709FE1B
:1017B0003C49088000203C49086048608860C86057
:1017C00008744FF0A040FEF7BBFD4FF400503749BE
:1017D0000860002048608860C860086148618861CE
:1017E000012008774FF0A040FEF760FD032301229F
:1017F00011464FF0A040FEF719FF01214FF0A04025
:10180000FEF7CFFD00BF01214FF0A040FFF7FCF82D
:101810000028F8D04FF0A040FEF7ACFF70BD0024C8
:10182000FFF770FFFFF74CFF24E000BF04214FF0EB
:10183000A040FFF7E9F80028F8D04FF0A040FEF7ED
:10184000C4FF1B490880084600881A4908800846DA
:10185000008840F25551884207DD40F6FF7084420F
:1018600004DA04F1320084B200E0002421460020B2
:10187000FFF796F9D9E701B50F490098086000BF56
:101880000D4800680028FBD108BD00003C00002086
:101890008C0000204400002040420F0018ED00E0C2
:1018A00000E400E030000020780000205800002014
:1018B0002C0000203800002034000020704700BFBA
:1018C000FEE700BFFEE700BFFEE700BFFEE7704790
:1018D0007047704703480068401E0249086070471F
:1018E00070470000340000200CB5002001900090EB
:1018F0006A48006840F4A0206849086000BF674853
:10190000006800F4003000900198401C019000989D
:1019100018B90198B0F5A06FF1D16048006810F4D3
:10192000003F02D00120009001E0002000900098CC
:10193000012835D112205A49086058484068574953
:1019400048600846406848600846406840F4806047
:1019500048600846406820F47C10486008464068AB
:1019600040F4E81048600846006840F08070086065
:1019700000BF4A48006810F0007FFAD0474840682E
:1019800020F00300454948600846406840F00200E6
:10199000486000BF4148406800F00C000828F9D1B9
:1019A0000CBD10B53F48006840F470003D49086028
:1019B0003A48006840F0010038490860084640682D
:1019C00039490840354948600846006837490840A9
:1019D000324908600846006820F480200860084604
:1019E000406820F4FE0048600846C06A20F00F00FE
:1019F000C8620846006B2E49084028490863002049
:101A00008860FFF771FF4FF0006026498039086059
:101A100010BD30B500210020002200231F4C646857
:101A200004F00C0121B1042906D0082925D107E0D2
:101A3000204C214D2C6024E01E4C1F4D2C6020E0DA
:101A4000164C646804F47010144C646804F480321A
:101A5000022404EB904022B9184C4443164D2C60EC
:101A60000AE00E4CE46A04F00F04631C114CB4FB52
:101A7000F3F44443104D2C6003E00E4C0E4D2C60EB
:101A800000BF00BF054C6468C4F303140C4D295D0E
:101A9000094C2468CC40084D2C6030BD0010024039
:101AA0000020024088ED00E00CC07FF8FFFFF6FE4A
:101AB000CCFC00FF00127A004400002000093D0029
:101AC00048000020704770477047754600F028F8BE
:101AD000AE4605006946534620F00700854618B01B
:101AE00020B5FEF7AFFBBDE820404FF000064FF0F9
:101AF00000074FF000084FF0000B21F00701AC4643
:101B0000ACE8C009ACE8C009ACE8C009ACE8C00961
:101B10008D4670470446AFF300802046FEF77DFBFC
:101B2000004870479C00002001491820ABBEFEE72A
:101B30002600020070474FF04070E1EE100A704737
:101B4000601B00080000002058000000C4010008CD
:101B5000B81B000858000020A8060000E00100089B
:101B60000000000001020304010203040607080943
:101B70000000010002000400060008000A000C003A
:101B80001000200040008000000100000000000064
:101B90000000000000000000000000000000000045
:101BA0000000000000A24A04000000000000000045
:081BB000010203040607080905
:0400000508000229C4
:00000001FF
