:020000040800F2
:10000000E806002029020008F1170008F31700088D
:10001000F7170008FB170008FF1700080000000092
:1000200000000000000000000000000003180008AD
:10003000051800080000000007180008091800084B
:10004000430200084302000843020008430200087C
:10005000430200084302000843020008430200086C
:10006000430200084302000843020008430200085C
:10007000430200084302000843020008430200084C
:10008000430200084302000843020008430200083C
:10009000430200084302000843020008430200082C
:1000A000430200084302000843020008430200081C
:1000B0000B1800084302000843020008430200082E
:1000C00043020008430200084302000843020008FC
:1000D00043020008430200084302000843020008EC
:1000E00043020008430200084302000843020008DC
:1000F00043020008430200084302000843020008CC
:1001000000000000000000000000000043020008A2
:1001100043020008430200084302000843020008AB
:10012000430200084302000843020008430200089B
:100130004302000843020008000000000000000025
:1001400043020008430200084302000800000000C8
:10015000000000000000000000000000000000009F
:1001600000000000000000004302000843020008F5
:100170004302000800000000000000000000000032
:10018000000000004302000800F002F800F03CF814
:100190000AA090E8000C82448344AAF10107DA45E2
:1001A00001D100F031F8AFF2090EBAE80F0013F0F8
:1001B000010F18BFFB1A43F0010318471019000084
:1001C00030190000103A24BF78C878C1FAD8520715
:1001D00024BF30C830C144BF04680C6070470000C1
:1001E0000023002400250026103A28BF78C1FBD840
:1001F000520728BF30C148BF0B6070471FB501F0E0
:1002000060FC1FBD10B510BD01F025FC1146FFF7C5
:10021000F5FF01F0EBFA01F043FC03B4FFF7F2FF46
:1002200003BC01F047FC000009488047094800472B
:10023000FEE7FEE7FEE7FEE7FEE7FEE7FEE7FEE796
:10024000FEE7FEE704480549054A064B70470000F3
:100250002F19000889010008E8000020E8060020A6
:10026000E8020020E8020020FD48006840F001009C
:10027000FB49086008464068FA490840F849486068
:1002800008460068F8490840F549086008460068D3
:1002900020F4802008600846406820F4FE00486092
:1002A0000846C06A6FF30D00C8620846006BEF494C
:1002B0000840EB4908630020886070470021E84A45
:1002C000917011468870704710B5024600210023D6
:1002D0000020511111B9E24C23680BE0012902D131
:1002E000DF4C236A06E0042902D1DD4C636801E09B
:1002F000DB4C636A02F01F0101248C401C4201D0D8
:10030000012000E0002010BD38B50020009000243E
:10031000002500BF1120FFF7D7FF05460098401CBD
:1003200000900098B0F5A06F01D0002DF2D0112000
:10033000FFF7CAFF08B1012400E00024204638BDC1
:1003400001460020C64A106820F0F80040EAC100CB
:1003500010607047C64908607047C149096A21F0BA
:100360000101BF4A11621146096A21F004011162BC
:100370001146096A014311627047B949096A21F0BF
:100380001801B74A11621146096A014311627047A8
:10039000B84908607047B24A526822F47412B04BF0
:1003A0005A601A46526840EA01031A43AC4B5A603D
:1003B0007047AF490866704701460020A84AD06AD6
:1003C00020F00F000843D0627047A949C864704705
:1003D000A349C871704701460020A14A506820F027
:1003E00003000843506070479D48406800F00C00CF
:1003F0007047014600209A4A506820F0F0000843F8
:100400005060704701460020954A506820F4E06033
:1004100008435060704701460020914A506820F41C
:10042000605040EAC100506070472DE9F041002162
:10043000002400278C460023002200250026DFF838
:100440002082D8F8048008F00C0121B1042907D0DB
:10045000082930D109E0DFF82082C0F800802FE0C1
:10046000DFF81482C0F800802AE0DFF8F481D8F8C1
:10047000048008F47014DFF8E881D8F8048008F4E8
:1004800080374FF0020808EB944427B9DFF8EC817D
:1004900004FB08F20DE0DFF8C881D8F82C8008F0E2
:1004A0000F0808F1010CDFF8D081B8FBFCF808FB5D
:1004B00004F2026004E0DFF8C081C0F8008000BFF1
:1004C00000BFDFF89C81D8F8048008F0F00109092A
:1004D000DFF8AC8118F80160D0F8008028FA06F83F
:1004E000C0F80480DFF87881D8F8048008F4E0616F
:1004F000090ADFF88C8118F80130D0F8048028FA56
:1005000003F8C0F80880DFF85881D8F8048008F4B0
:100510006051C90ADFF8688118F80150D0F80480EA
:1005200028FA05F8C0F80C80DFF83481D8F82C8060
:1005300008F4F8710909DFF84C8138F8113013F02C
:10054000100F04D0B2FBF3F8C0F8108003E0D0F82D
:100550000080C0F81080DFF80881D8F82C8008F4FB
:100560007851490ADFF81C8138F8113013F0100F68
:1005700004D0B2FBF3F8C0F8148003E0D0F8008098
:10058000C0F81480DFF8D880D8F8308008F0100860
:10059000B8F1100F04D0DFF8E080C0F8188003E055
:1005A000D0F80080C0F81880DFF8B480D8F8308028
:1005B00008F02008B8F1200F04D0DFF8BC80C0F8A4
:1005C0001C8003E0D0F80080C0F81C80DFF8908029
:1005D000D8F8308008F48078B8F5807F0AD1D0F858
:1005E0000080904506D1B54204D14FEA4208C0F8D8
:1005F000208003E0D0F80C80C0F82080DFF8608015
:10060000D8F8308008F40078B8F5007F0AD1D0F827
:100610000080904506D1B54204D14FEA4208C0F8A7
:10062000248003E0D0F80C80C0F82480DFF830800C
:10063000D8F8308018F0030F04D1D0F80C80C0F83F
:1006400028803CE0DFF81880D8F8308008F00308F4
:10065000B8F1010F18D1D0F80080C0F828802EE042
:100660000010024000C0FFF8FFFFF6FECCFC000FB8
:10067000000042428004424200127A0000093D001C
:100680000000002010000020DFF8D083D8F8308070
:1006900008F00308B8F1020F04D14FF40048C0F885
:1006A00028800CE0DFF8B483D8F8308008F0030825
:1006B000B8F1030F03D1DFF8A883C0F82880DFF872
:1006C0009C83D8F8308018F4403F04D1D0F80880DB
:1006D000C0F82C8028E0DFF88483D8F8308008F454
:1006E0004038B8F5803F04D1D0F80080C0F82C80A5
:1006F0001AE0DFF86883D8F8308008F44038B8F59D
:10070000003F04D14FF40048C0F82C800CE0DFF823
:100710004C83D8F8308008F44038B8F5403F03D116
:10072000DFF83C83C0F82C80DFF83083D8F83080C5
:1007300018F4402F04D1D0F80880C0F8308028E0A9
:10074000DFF81883D8F8308008F44028B8F5802FF7
:1007500004D1D0F80080C0F830801AE0DFF8FC82C5
:10076000D8F8308008F44028B8F5002F04D14FF4B1
:100770000048C0F830800CE0DFF8E082D8F8308024
:1007800008F44028B8F5402F03D1DFF8D482C0F830
:100790003080DFF8C882D8F8308018F4401F04D1C8
:1007A000D0F80880C0F8348028E0DFF8B082D8F8AC
:1007B000308008F44018B8F5801F04D1D0F80080CC
:1007C000C0F834801AE0DFF89482D8F8308008F45A
:1007D0004018B8F5001F04D14FF40048C0F8348029
:1007E0000CE0DFF87882D8F8308008F44018B8F5CB
:1007F000401F03D1DFF86882C0F83480DFF85C82E4
:10080000D8F8308018F4400F04D1D0F80880C0F830
:10081000388028E0DFF84482D8F8308008F44008B7
:10082000B8F5800F04D1D0F80080C0F838801AE005
:10083000DFF82882D8F8308008F44008B8F5000FB7
:1008400004D14FF40048C0F838800CE0DFF80C8287
:10085000D8F8308008F44008B8F5400F03D1DFF82D
:100860000082C0F83880BDE8F0810021010F31B16D
:100870007A4AD26A22F47852784BDA6205E0774AF3
:10088000D26A22F4F872754BDA62744AD26A024371
:10089000724BDA6270470021010F31B16F4A126B5F
:1008A00022F020026D4B1A6305E06C4A126B22F0B5
:1008B00010026A4B1A63694A126B0243674B1A6350
:1008C00070470021010F31B1644A126B22F40072AB
:1008D000624B1A6305E0614A126B22F480725F4B2F
:1008E0001A635E4A126B02435C4B1A637047002125
:1008F000010F062927D2DFE801F026030A11181F8D
:10090000564A126B22F00302544B1A631CE0534AFE
:10091000126B22F44032514B1A6315E04F4A126BAE
:1009200022F440224D4B1A630EE04C4A126B22F423
:1009300040124A4B1A6307E0484A126B22F4400205
:10094000464B1A6300E000BF00BF444A126B0243EB
:10095000424B1A6370474349086070473F49096A30
:1009600001433E4A116270473F49086070473F4962
:10097000086070473D49091D0860704729B1374A32
:1009800052690243354B5A6104E0344A526982434A
:10099000324B5A61704729B1304A926902432F4B5A
:1009A0009A6104E02D4A926982432C4B9A61704708
:1009B00029B12A4AD2690243284BDA6104E0274A66
:1009C000D2698243254BDA61704729B1234A926A82
:1009D0000243224B9A6204E0204A926A82431F4BF0
:1009E0009A62704729B11D4AD26802431B4BDA60F4
:1009F00004E01A4AD2688243184BDA60704729B182
:100A0000164A12690243154B1A6104E0134A12692F
:100A10008243124B1A61704729B1104A527A02433D
:100A20000E4B5A7204E00D4A527A82430B4B5A72B3
:100A300070470A48406A40F0807008494862704731
:100A400001460020054A92680A4201D0012000E0D8
:100A50000020704701498872704700000010024072
:100A600000127A00D8004242DC0042423C0442427A
:100A700010B50446FD48844208D10121C014FFF797
:100A8000B1FF0021E014FFF7ADFF6DE0B4F1804F3E
:100A900008D101210846FFF7B2FF00210120FFF72E
:100AA000AEFF61E0F248844208D101210220FFF745
:100AB000A6FF00210220FFF7A2FF55E0ED48844287
:100AC00008D101210420FFF79AFF00210420FFF73D
:100AD00096FF49E0E848844208D101211020FFF741
:100AE0008EFF00211020FFF78AFF3DE0E34884429B
:100AF00008D101212020FFF782FF00212020FFF7ED
:100B00007EFF31E0DE48844208D101214014FFF726
:100B100069FF00216014FFF765FF25E0D948844292
:100B200009D101210804FFF75DFF00214FF4803057
:100B3000FFF758FF18E0D448844209D10121480446
:100B4000FFF750FF00214FF40030FFF74BFF0BE0A1
:100B5000CE48844208D101218804FFF743FF0021D9
:100B60004FF48020FFF73EFF10BD00220288BF4BEC
:100B700098420BD0C24B984208D0B0F1804F05D0BC
:100B8000BB4B984202D0BB4B984204D14FF68F73B7
:100B90001A404B881A43B84B984207D0B74B98423B
:100BA00004D04FF6FF431A400B891A4302804B686A
:100BB000C3620B880385AD4B98420BD0B04B984273
:100BC00008D0B04B984205D0AF4B984202D0AF4B03
:100BD000984201D18B7A03860123436170474FF01D
:100BE000FF314160002101800181418081727047A5
:100BF0000185426170470A46002101884FF68F73D4
:100C0000194011430180704741627047C1627047CB
:100C10000146486A70470146088D704721B1028835
:100C200042F00202028004E002884FF6FD731A408F
:100C30000280704721B1028842F00402028004E081
:100C400002884FF6FB731A400280704721B1028878
:100C500042F40062028004E002884FF2FF731A40FF
:100C60000280704721B1028842F08002028004E0D5
:100C700002884FF67F731A400280704702884FF651
:100C8000F7731A40028002880A4302807047028884
:100C90004FF6FF431A40028002880A4302807047E1
:100CA00021B1028842F00102028004E002884FF67E
:100CB000FE731A400280704730B5002400220023E2
:100CC000056A25F001050562026A43688469704D72
:100CD0002C4024F003040D682C4322F002028D897D
:100CE0002A438D882A43614DA8420BD0644DA84207
:100CF00008D0644DA84205D0634DA84202D0634D90
:100D0000A8420FD122F00802CD892A4322F0040222
:100D1000CD882A4323F4807323F400730D8A2B4378
:100D20004D8A2B43436084618D684563026230BD08
:100D300030B5002400220023056A25F01005056265
:100D4000026A43688469534D2C4024F440740D6852
:100D500044EA052422F020028D8942EA05128D889A
:100D600042EA0512414DA84202D0454DA84213D196
:100D700022F08002CD8942EA051222F04002CD889D
:100D800042EA051223F4806323F400630D8A43EAE8
:100D900085034D8A43EA8503436084618D688563DA
:100DA000026230BD30B5002400220023056A25F41C
:100DB00080750562026A4368C46924F0700424F0F7
:100DC00003040D682C4322F400728D8942EA052247
:100DD0008D8842EA0522254DA84202D0284DA8421E
:100DE00013D122F40062CD8942EA052222F4806206
:100DF000CD8842EA052223F4805323F400530D8A60
:100E000043EA05134D8A43EA05134360C4618D68C4
:100E1000C563026230BD30B5002200230024056A9C
:100E200025F480550562036A4468C26922F4E042F1
:100E300022F440720D6842EA052223F400538D89A2
:100E400043EA05338D8843EA0533084DA84202D0B2
:100E50000B4DA84204D124F480440D8A44EA851441
:100E60004460C2618D680564036230BD002C01409E
:100E70000004004000080040001000400014004042
:100E8000003401400040014000440140004801405E
:100E90008FFFFEFFFF8FFFFE30B5002300220024EE
:100EA000056A25F480350562026A4468436D23F0C3
:100EB00070030D682B4322F400328D8942EA05420B
:100EC0008D8842EA0542FE4DA84202D0FD4DA8425F
:100ED00004D124F480340D8A44EA05444460436517
:100EE0008D688565026230BD70B500230022002444
:100EF000056A25F480150562026A4468436D23F48F
:100F0000E0430D6843EA052322F400128D8942EA8A
:100F100005528D8842EA0552E94DA84202D0E94DBA
:100F2000A84207D124F400340D8A4FF6FF7606EA72
:100F300085452C43446043658D68C565026270BD7C
:100F400021B1826D42F00052826503E0826D22F091
:100F500000528265704721B1826D42F08042826505
:100F600003E0826D22F080428265704721B1826D7C
:100F700042F00042826503E0826D22F00042826509
:100F80007047002101608180C18081608181C181C1
:100F900001824182704770B5034600200024184644
:100FA000183001258D40ACB21D6AE643B6B235401B
:100FB0001D6209B1082909D100EB61000568C24E24
:100FC000354005600568154305600DE00D1F00EB19
:100FD00055000568BD4E3540056005684FF6FF7643
:100FE00006EA02263543056070BD416370478163A0
:100FF0007047C16370470164704781657047C16580
:1010000070470A4600218169AF4B19401143816145
:1010100070470A4600218169AC4B194041EA022120
:10102000816170470A460021C16921F070011143B6
:10103000C16170470A460021C16921F4E04141EADB
:101040000221C16170470A460021416D21F0700103
:101050001143416570470A460021416D21F4E0418A
:1010600041EA0221416570470A460021816921F069
:1010700008011143816170470A460021816921F40A
:10108000006141EA0221816170470A460021C1697D
:1010900021F008011143C16170470A460021C1696E
:1010A00021F4006141EA0221C16170470A46002132
:1010B000416D21F008011143416570470A46002146
:1010C000416D21F4006141EA0221416570470A4601
:1010D0000021816921F004011143816170470A46B2
:1010E0000021816921F4806141EA02218161704718
:1010F0000A460021C16921F004011143C161704712
:101100000A460021C16921F4806141EA0221C161DE
:1011100070470A460021816921F0800111438161F5
:1011200070470A460021816921F4004141EA022109
:10113000816170470A460021C16921F08001114395
:10114000C16170470A460021C16921F4004141EAAA
:101150000221C16170470A460021416D21F08001E2
:101160001143416570470A460021416D21F4004159
:1011700041EA02214165704782684FF6F7731A40D1
:10118000826082680A43826070470A460021016AD1
:1011900021F002011143016270470A460021016AF1
:1011A00021F008011143016270470A460021016ADB
:1011B00021F0200141EA0211016270470A46002134
:1011C000016A21F0800141EA0211016270470A467A
:1011D0000021016A21F4007141EA02210162704795
:1011E0000A460021016A21F4006141EA02210162FC
:1011F00070470A460021016A21F4005141EA023198
:10120000016270470A460021016A21F4003141EA77
:101210000241016270470A460021016A21F400116F
:1012200041EA02510162704730B50023012404FAFB
:1012300001F3046A9C430462046A02FA01F52C4338
:10124000046230BD30B50023042404FA01F3046ABB
:101250009C430462046A02FA01F52C43046230BD27
:10126000C2694FF2FF331A40C261C2694FF6FF7381
:1012700003EA01231A43C2617047F0B50C461546D4
:10128000002100220026076A4EF6FF7C07EA0C07C1
:101290000762C769B9B2076ABAB24FF6FF7707EAC1
:1012A000043640F6FF4739404FF6FF7707EA052737
:1012B00039434FF6FF7707EA0337394308E0000068
:1012C000002C0140003401408FFFFEFFFF8FFFFE26
:1012D00045F6FF773A4046F480573A43C1610262CF
:1012E000F0BDC2694FF6F3731A40C261C2690A4386
:1012F000C2617047F0B50C46154600210022002659
:10130000076A4FF6FF6C07EA0C070762C769B9B2B4
:10131000076ABAB24FF6FF7707EA04264FF60C7752
:1013200039404FF6FF7707EA03172F4339434FF24F
:10133000FF573A4046F480773A43C1610262F0BDFC
:10134000826922F440628261826942EA01228261FA
:101350007047F0B50C461546002100220026076AAA
:101360004FF6EF7C07EA0C0707628169026A4FF6C5
:10137000FF7707EA041621F4734141EA033141EA99
:1013800005214FF65F773A4046F010073A438161F6
:101390000262F0BD826922F00C02826182690A4316
:1013A0008261704770B50C46154600210022066A1E
:1013B00026F0010606628169026A21F0F30145EA1E
:1013C0000316314322F00A0244F0010632438161E0
:1013D000026270BD70B505460C46208850B923895D
:1013E000A28861882846FFF7DDFFE1882846FFF7DD
:1013F000D1FF25E0208804280AD12389A2886188AA
:101400002846FFF7A6FFE1882846FFF799FF17E077
:10141000208808280AD12389A28861882846FFF7F6
:1014200069FFE1882846FFF75CFF09E02389A2886D
:1014300061882846FFF721FFE1882846FFF710FF63
:1014400070BD002101804180012181800021C18087
:10145000018170472DE9F04105460C460026012721
:10146000608808B9022600E00026A088012801D182
:10147000022700E001272088A0B92389A28861887B
:101480002846FFF78FFFE1882846FFF783FF23896F
:101490003A4631462846FFF75CFFE1882846FFF7C9
:1014A0004FFF13E02389A28861882846FFF751FF88
:1014B000E1882846FFF744FF23893A46314628460B
:1014C000FFF770FFE1882846FFF764FFBDE8F08171
:1014D0000146486B70470146886B70470146C86BF0
:1014E00070470146086C70470A884B881A438B88FE
:1014F0001A43CB881A430B891A434B891A438B89A9
:101500001A434264704710B5436C23F4722343645A
:10151000436C41EA02442343436410BD10B5436C5D
:1015200023F03C734364436C41EA02542343436415
:1015300010BD21B1426C42F48052426403E0426C1F
:1015400022F480524264704721B1426C42F08072B2
:10155000426403E0426C22F08072426470470021D2
:10156000018041808180C1800181418181817047FA
:1015700021B1426C42F40042426403E0426CC2F387
:101580000E024264704721B1426842F00402426098
:1015900004E042684FF6FB731A404260704721B185
:1015A000426842F00102426004E042684FF6FE7376
:1015B0001A404260704710B51AB1C3680B43C3604C
:1015C00004E0C368CC43A4B22340C36010BD4161B2
:1015D00070470246002013690B4201D0012000E051
:1015E00000207047CA4392B20261704730B502468C
:1015F000002000230024156905EA0103D56805EAE7
:10160000010413B10CB1012000E0002030BDCA4339
:1016100092B20261704741EA0203A0F84830704775
:1016200010B51AB1C3680B43C36004E0C368CC4370
:10163000A4B22340C36010BD21B1426842F0080249
:10164000426004E042684FF6F7731A404260704708
:1016500081684FF6F8721140816070470A46002198
:10166000836899B24FF68F731940114381607047B8
:1016700030B504460D4629462046FFF7EFFFA06827
:1016800040F00700A06030BD2DE9F04104460D4652
:1016900016461F46602D06D13B46012231462046A4
:1016A000FFF757FE05E03B46012231462046FFF793
:1016B00079FE29462046FFF7D1FFA06840F00700D9
:1016C000A060BDE8F08130B50C4600218568A9B264
:1016D000C9B24FF6FF7505EA032515432543294393
:1016E000816030BD2DE9F04105460E46174698460B
:1016F000002443463A4631462846FFF7E4FFA868EF
:1017000084B24FF6F870044044F007044FF68F702F
:10171000044044F07004AC60BDE8F081F0B50446CC
:101720000D4616461F463B46324629462046FFF7E1
:10173000CAFFA06840F48040A060F0BD42684FF648
:101740008F731A40426042680A43426070474268A1
:1017500022F47002426042680A4342607047826825
:10176000214B1A40826082680A4382607047826817
:101770004FF67F731A40826082680A438260704726
:10178000F0B50C4615461E4600210022002387684E
:10179000B9B28769BAB2076ABBB24FF6F877394077
:1017A00021434FF6FC473A4040F201173A434FF6C7
:1017B000DD773B404FF6FF7707EA06172F433B43A1
:1017C000816082610362F0BD21B1426842F0800213
:1017D000426004E042684FF67F731A4042607047EF
:1017E000A0F8501070470000F8FFFEFF002070477F
:1017F000704700BFFEE700BFFEE700BFFEE700BF87
:10180000FEE7704770477047704710B51548FEF700
:101810000CFE04210807FFF7FAFE4FF08040FFF7A7
:101820005AFE1149088008460088A0B14FF0804058
:10183000FFF74EFE642148430B490988B0FBF1F0E5
:101840000A4908800748406807490988B0FBF1F059
:101850000749086004E00020044908800449086042
:1018600010BD0000480000202C0000202E000020A9
:10187000300000200CB50020019000906A480068FC
:1018800040F4A0206849086000BF6748006800F481
:10189000003000900198401C0190009818B9019800
:1018A000B0F5A06FF1D16048006810F4003F02D09D
:1018B0000120009001E0002000900098012835D11F
:1018C00012205A49086058484068574948600846FD
:1018D000406848600846406840F4806048600846B8
:1018E000406820F47C1048600846406840F4E810E6
:1018F00048600846006840F08070086000BF4A48B1
:10190000006810F0007FFAD04748406820F00300DC
:10191000454948600846406840F00200486000BF02
:101920004148406800F00C000828F9D10CBD10B502
:101930003F48006840F470003D4908603A4800683C
:1019400040F00100384908600846406839490840BD
:101950003549486008460068374908403249086000
:101960000846006820F4802008600846406820F49B
:10197000FE0048600846C06A20F00F00C8620846B2
:10198000006B2E4908402849086300208860FFF753
:1019900071FF4FF0006026498039086010BD30B5F6
:1019A00000210020002200231F4C646804F00C0179
:1019B00021B1042906D0082925D107E0204C214D6A
:1019C0002C6024E01E4C1F4D2C6020E0164C6468F7
:1019D00004F47010144C646804F48032022404EBA4
:1019E000904022B9184C4443164D2C600AE00E4C2E
:1019F000E46A04F00F04631C114CB4FBF3F4444399
:101A0000104D2C6003E00E4C0E4D2C6000BF00BF4B
:101A1000054C6468C4F303140C4D295D094C24681B
:101A2000CC40084D2C6030BD001002400020024028
:101A300088ED00E00CC07FF8FFFFF6FECCFC00FF55
:101A400000127A003400002000093D003800002018
:101A5000704770477047754600F028F8AE4605009D
:101A60006946534620F00700854618B020B5FEF7BA
:101A7000E9FBBDE820404FF000064FF000074FF0B3
:101A800000084FF0000B21F00701AC46ACE8C0099C
:101A9000ACE8C009ACE8C009ACE8C0098D467047A5
:101AA0000446AFF300802046FEF7B7FB00487047BE
:101AB0008400002001491820ABBEFEE7260002008A
:101AC00070474FF04070E1EE100A7047EC1A0008C2
:101AD0000000002048000000C4010008341B00087A
:101AE00048000020A0060000E001000800000000FF
:101AF00001020304010203040607080900000100B3
:101B000002000400060008000A000C00100020007B
:101B10004000800000010000000000000000000004
:101B200000A24A04000000000000000001020304BB
:041B30000607080993
:0400000508000229C4
:00000001FF
