:020000040800F2
:100000003807002029020008454000084740000842
:100010004B4000084F40000853400008000000001B
:100020000000000000000000000000005740000831
:1000300059400008000000005B4000085D400008D7
:10004000430200084302000843020008430200087C
:10005000430200084302000843020008430200086C
:10006000430200084302000843020008430200085C
:10007000430200084302000843020008430200084C
:10008000430200084302000843020008430200083C
:10009000430200084302000843020008430200082C
:1000A000430200084302000843020008430200081C
:1000B0005F400008430200084302000843020008B2
:1000C00043020008430200084302000843020008FC
:1000D00043020008430200084302000843020008EC
:1000E00043020008430200084302000843020008DC
:1000F00043020008430200084302000843020008CC
:1001000000000000000000000000000043020008A2
:1001100043020008430200084302000843020008AB
:10012000430200084302000843020008430200089B
:100130004302000843020008000000000000000025
:1001400043020008430200084302000800000000C8
:10015000000000000000000000000000000000009F
:1001600000000000000000004302000843020008F5
:100170004302000800000000000000000000000032
:10018000000000004302000800F002F800F03CF814
:100190000AA090E8000C82448344AAF10107DA45E2
:1001A00001D100F031F8AFF2090EBAE80F0013F0F8
:1001B000010F18BFFB1A43F001031847C4450000A4
:1001C000E4450000103A24BF78C878C1FAD8520735
:1001D00024BF30C830C144BF04680C6070470000C1
:1001E0000023002400250026103A28BF78C1FBD840
:1001F000520728BF30C148BF0B6070471FB504F0DD
:10020000B9FA1FBD10B510BD04F04FF81146FFF745
:10021000F5FF03F09CFE04F06DF803B4FFF7F2FF66
:1002200003BC04F071F80000094880470948004702
:10023000FEE7FEE7FEE7FEE7FEE7FEE7FEE7FEE796
:10024000FEE7FEE704480549054A064B70470000F3
:100250008341000889010008380100203807002088
:10026000380300203803002010B50446B4F1904F45
:1002700009D10121480400F0A2FC00214FF4003014
:1002800000F09DFC3CE07048844208D1012100024E
:1002900000F095FC0021200200F091FC30E06B485A
:1002A000844208D10121000200F089FC00212002D3
:1002B00000F085FC24E06648844209D1012108054C
:1002C00000F07DFC00214FF4801000F078FC17E076
:1002D0006048844208D10121400200F070FC0021F6
:1002E000600200F06CFC0BE05B48844208D1012105
:1002F000880500F064FC00214FF4800000F05FFCF2
:1003000010BDF0B50A4600210023002400BF3DE0E7
:10031000012505FA01F3156805EA03049C4234D16E
:100320001579012D02D01579022D16D185684F005F
:100330000326BE40B543856055794E00B5408668BA
:1003400035438560868801258D40AE43868086884A
:1003500095798D40ADB22E43868005684F00032607
:10036000BE40B543056015794E00B540066835437B
:100370000560C5684F000326BE40B543C560D5790A
:100380004E00B540C6683543C560491C1029BFD32F
:10039000F0BD4FF6FF710160002101710121417133
:1003A00000218171C17170474FF480320A43C261EC
:1003B000C161C261C269C269704702460020138AE6
:1003C0000B4201D0012000E0002070470146088A5E
:1003D000704702460020938A0B4201D0012000E0C2
:1003E000002070470146888A704781617047018507
:1003F00070470AB1816100E00185704781827047D2
:10040000F0B5002300244D07ED0E02FA05F3CE10DF
:1004100000F1200555F826504E07F70E0F26BE4076
:10042000B543CF1000F1200646F82750CE1000F15A
:10043000200555F8265045EA0304CE1000F12005AA
:1004400045F82640F0BD00000004004800080048C0
:10045000000C00480010004800140048FD480068E7
:1004600040F00100FB49086008464068FA4908402E
:10047000F849486008460068F8490840F5490860AE
:100480000846006820F4802008600846406820F490
:10049000FE0048600846C06A6FF30D00C862084657
:1004A000006BEF490840EB49086300208860704703
:1004B0000021E84A917011468870704710B50246D5
:1004C000002100230020511111B9E24C23680BE0F8
:1004D000012902D1DF4C236A06E0042902D1DD4C58
:1004E000636801E0DB4C636A02F01F0101248C4069
:1004F0001C4201D0012000E0002010BD38B50020D2
:1005000000900024002500BF1120FFF7D7FF05460B
:100510000098401C00900098B0F5A06F01D0002D0D
:10052000F2D01120FFF7CAFF08B1012400E0002437
:10053000204638BD01460020C64A106820F0F80069
:1005400040EAC10010607047C64908607047C14961
:10055000096A21F00101BF4A11621146096A21F0BE
:10056000040111621146096A014311627047B949D9
:10057000096A21F01801B74A11621146096A01435C
:1005800011627047B84908607047B24A526822F455
:100590007412B04B5A601A46526840EA01031A437B
:1005A000AC4B5A607047AF4908667047014600205F
:1005B000A84AD06A20F00F000843D0627047A949CA
:1005C000C8647047A349C871704701460020A14A1A
:1005D000506820F003000843506070479D48406811
:1005E00000F00C007047014600209A4A506820F045
:1005F000F00008435060704701460020954A50685B
:1006000020F4E06008435060704701460020914AA2
:10061000506820F4605040EAC100506070472DE9F6
:10062000F0410021002400278C46002300220025F1
:100630000026DFF82082D8F8048008F00C0121B1F0
:10064000042907D0082930D109E0DFF82082C0F85A
:1006500000802FE0DFF81482C0F800802AE0DFF885
:10066000F481D8F8048008F47014DFF8E881D8F831
:10067000048008F480374FF0020808EB944427B94F
:10068000DFF8EC8104FB08F20DE0DFF8C881D8F850
:100690002C8008F00F0808F1010CDFF8D081B8FBBE
:1006A000FCF808FB04F2026004E0DFF8C081C0F847
:1006B000008000BF00BFDFF89C81D8F8048008F0FC
:1006C000F0010909DFF8AC8118F80160D0F800806A
:1006D00028FA06F8C0F80480DFF87881D8F804809A
:1006E00008F4E061090ADFF88C8118F80130D0F8CD
:1006F000048028FA03F8C0F80880DFF85881D8F899
:10070000048008F46051C90ADFF8688118F80150C4
:10071000D0F8048028FA05F8C0F80C80DFF834819E
:10072000D8F82C8008F4F8710909DFF84C8138F802
:10073000113013F0100F04D0B2FBF3F8C0F81080A2
:1007400003E0D0F80080C0F81080DFF80881D8F806
:100750002C8008F47851490ADFF81C8138F81130F0
:1007600013F0100F04D0B2FBF3F8C0F8148003E0CC
:10077000D0F80080C0F81480DFF8D880D8F8308036
:1007800008F01008B8F1100F04D0DFF8E080C0F8CE
:10079000188003E0D0F80080C0F81880DFF8B4803B
:1007A000D8F8308008F02008B8F1200F04D0DFF826
:1007B000BC80C0F81C8003E0D0F80080C0F81C802A
:1007C000DFF89080D8F8308008F48078B8F5807F22
:1007D0000AD1D0F80080904506D1B54204D14FEA45
:1007E0004208C0F8208003E0D0F80C80C0F82080D8
:1007F000DFF86080D8F8308008F40078B8F5007F22
:100800000AD1D0F80080904506D1B54204D14FEA14
:100810004208C0F8248003E0D0F80C80C0F824809F
:10082000DFF83080D8F8308018F0030F04D1D0F80A
:100830000C80C0F828803CE0DFF81880D8F83080C1
:1008400008F00308B8F1010F18D1D0F80080C0F803
:1008500028802EE00010024000C0FFF8FFFFF6FEE7
:10086000CCFC000F000042428004424200127A0099
:1008700000093D000000002010000020DFF8D083B8
:10088000D8F8308008F00308B8F1020F04D14FF413
:100890000048C0F828800CE0DFF8B483D8F8308036
:1008A00008F00308B8F1030F03D1DFF8A883C0F8FC
:1008B0002880DFF89C83D8F8308018F4403F04D1BA
:1008C000D0F80880C0F82C8028E0DFF88483D8F8BE
:1008D000308008F44038B8F5803F04D1D0F800806B
:1008E000C0F82C801AE0DFF86883D8F8308008F46C
:1008F0004038B8F5003F04D14FF40048C0F82C80D0
:100900000CE0DFF84C83D8F8308008F44038B8F5B4
:10091000403F03D1DFF83C83C0F82C80DFF8308300
:10092000D8F8308018F4402F04D1D0F80880C0F8EF
:10093000308028E0DFF81883D8F8308008F44028A9
:10094000B8F5802F04D1D0F80080C0F830801AE0CC
:10095000DFF8FC82D8F8308008F44028B8F5002F82
:1009600004D14FF40048C0F830800CE0DFF8E0829A
:10097000D8F8308008F44028B8F5402F03D1DFF8CC
:10098000D482C0F83080DFF8C882D8F8308018F4FC
:10099000401F04D1D0F80880C0F8348028E0DFF888
:1009A000B082D8F8308008F44018B8F5801F04D120
:1009B000D0F80080C0F834801AE0DFF89482D8F8CC
:1009C000308008F44018B8F5001F04D14FF40048F7
:1009D000C0F834800CE0DFF87882D8F8308008F472
:1009E0004018B8F5401F03D1DFF86882C0F83480A2
:1009F000DFF85C82D8F8308018F4400F04D1D0F8CA
:100A00000880C0F8388028E0DFF84482D8F83080C9
:100A100008F44008B8F5800F04D1D0F80080C0F881
:100A200038801AE0DFF82882D8F8308008F44008CF
:100A3000B8F5000F04D14FF40048C0F838800CE03E
:100A4000DFF80C82D8F8308008F44008B8F5400F81
:100A500003D1DFF80082C0F83880BDE8F0810021C2
:100A6000010F31B17A4AD26A22F47852784BDA62B5
:100A700005E0774AD26A22F4F872754BDA62744A5A
:100A8000D26A0243724BDA6270470021010F31B122
:100A90006F4A126B22F020026D4B1A6305E06C4A1C
:100AA000126B22F010026A4B1A63694A126B0243FE
:100AB000674B1A6370470021010F31B1644A126B12
:100AC00022F40072624B1A6305E0614A126B22F451
:100AD00080725F4B1A635E4A126B02435C4B1A636F
:100AE00070470021010F062927D2DFE801F0260315
:100AF0000A11181F564A126B22F00302544B1A6354
:100B00001CE0534A126B22F44032514B1A6315E039
:100B10004F4A126B22F440224D4B1A630EE04C4AAE
:100B2000126B22F440124A4B1A6307E0484A126BD8
:100B300022F44002464B1A6300E000BF00BF444A63
:100B4000126B0243424B1A63704743490860704777
:100B50003F49096A01433E4A116270473F490860B4
:100B600070473F49086070473D49091D086070475C
:100B700029B1374A52690243354B5A6104E0344A7D
:100B800052698243324B5A61704729B1304A9269A7
:100B900002432F4B9A6104E02D4A926982432C4B09
:100BA0009A61704729B12A4AD2690243284BDA6117
:100BB00004E0274AD2698243254BDA61704729B1A4
:100BC000234A926A0243224B9A6204E0204A926AC4
:100BD00082431F4B9A62704729B11D4AD268024373
:100BE0001B4BDA6004E01A4AD2688243184BDA6081
:100BF000704729B1164A12690243154B1A6104E085
:100C0000134A12698243124B1A61704729B1104A84
:100C1000527A02430E4B5A7204E00D4A527A8243D2
:100C20000B4B5A7270470A48406A40F0807008497E
:100C30004862704701460020054A92680A4201D086
:100C4000012000E0002070470149887270470000D1
:100C50000010024000127A00D8004242DC004242FA
:100C60003C04424210B50446FD48844208D10121AB
:100C7000C014FFF7B1FF0021E014FFF7ADFF6DE0F6
:100C8000B4F1804F08D101210846FFF7B2FF0021DF
:100C90000120FFF7AEFF61E0F248844208D1012154
:100CA0000220FFF7A6FF00210220FFF7A2FF55E078
:100CB000ED48844208D101210420FFF79AFF00216A
:100CC0000420FFF796FF49E0E848844208D101215B
:100CD0001020FFF78EFF00211020FFF78AFF3DE074
:100CE000E348844208D101212020FFF782FF002140
:100CF0002020FFF77EFF31E0DE48844208D1012149
:100D00004014FFF769FF00216014FFF765FF25E03D
:100D1000D948844209D101210804FFF75DFF002171
:100D20004FF48030FFF758FF18E0D448844209D1CF
:100D300001214804FFF750FF00214FF40030FFF776
:100D40004BFF0BE0CE48844208D101218804FFF715
:100D500043FF00214FF48020FFF73EFF10BD00222B
:100D60000288BF4B98420BD0C24B984208D0B0F1DA
:100D7000804F05D0BB4B984202D0BB4B984204D168
:100D80004FF68F731A404B881A43B84B984207D0DE
:100D9000B74B984204D04FF6FF431A400B891A43D1
:100DA00002804B68C3620B880385AD4B98420BD021
:100DB000B04B984208D0B04B984205D0AF4B984208
:100DC00002D0AF4B984201D18B7A03860123436155
:100DD00070474FF0FF314160002101800181418067
:100DE000817270470185426170470A46002101887F
:100DF0004FF68F731940114301807047416270476D
:100E0000C16270470146486A70470146088D7047C5
:100E100021B1028842F00202028004E002884FF60B
:100E2000FD731A400280704721B1028842F004022B
:100E3000028004E002884FF6FB731A40028070477C
:100E400021B1028842F40062028004E002884FF27D
:100E5000FF731A400280704721B1028842F080027D
:100E6000028004E002884FF67F731A4002807047C8
:100E700002884FF6F7731A40028002880A43028004
:100E8000704702884FF6FF431A40028002880A43E7
:100E90000280704721B1028842F00102028004E022
:100EA00002884FF6FE731A400280704730B5002466
:100EB00000220023056A25F001050562026A4368E5
:100EC0008469704D2C4024F003040D682C4322F0FB
:100ED00002028D892A438D882A43614DA8420BD096
:100EE000644DA84208D0644DA84205D0634DA84285
:100EF00002D0634DA8420FD122F00802CD892A43C7
:100F000022F00402CD882A4323F4807323F4007373
:100F10000D8A2B434D8A2B43436084618D68456362
:100F2000026230BD30B5002400220023056A25F09E
:100F300010050562026A43688469534D2C4024F40D
:100F400040740D6844EA052422F020028D8942EAAB
:100F500005128D8842EA0512414DA84202D0454D46
:100F6000A84213D122F08002CD8942EA051222F074
:100F70004002CD8842EA051223F4806323F4006323
:100F80000D8A43EA85034D8A43EA85034360846101
:100F90008D688563026230BD30B5002400220023D5
:100FA000056A25F480750562026A4368C46924F005
:100FB000700424F003040D682C4322F400728D8920
:100FC00042EA05228D8842EA0522254DA84202D038
:100FD000284DA84213D122F40062CD8942EA0522AD
:100FE00022F48062CD8842EA052223F4805323F460
:100FF00000530D8A43EA05134D8A43EA0513436003
:10100000C4618D68C563026230BD30B50022002323
:101010000024056A25F480550562036A4468C269A4
:1010200022F4E04222F440720D6842EA052223F4E1
:1010300000538D8943EA05338D8843EA0533084D13
:10104000A84202D00B4DA84204D124F480440D8A5A
:1010500044EA85144460C2618D680564036230BD52
:10106000002C014000040040000800400010004037
:1010700000140040003401400040014000440140A1
:10108000004801408FFFFEFFFF8FFFFE30B50023B9
:1010900000220024056A25F480350562026A44684E
:1010A000436D23F070030D682B4322F400328D89C9
:1010B00042EA05428D8842EA0542FE4DA84202D02E
:1010C000FD4DA84204D124F480340D8A44EA05443D
:1010D000446043658D688565026230BD70B500234C
:1010E00000220024056A25F480150562026A44681E
:1010F000436D23F4E0430D6843EA052322F4001214
:101100008D8942EA05528D8842EA0552E94DA8428E
:1011100002D0E94DA84207D124F400340D8A4FF6DD
:10112000FF7606EA85452C43446043658D68C565B6
:10113000026270BD21B1826D42F00052826503E00F
:10114000826D22F000528265704721B1826D42F0BB
:101150008042826503E0826D22F0804282657047A2
:1011600021B1826D42F00042826503E0826D22F07F
:10117000004282657047002101608180C1808160EA
:101180008181C18101824182704770B50346002090
:1011900000241846183001258D40ACB21D6AE64384
:1011A000B6B235401D6209B1082909D100EB6100D2
:1011B0000568C24E354005600568154305600DE0C1
:1011C0000D1F00EB55000568BD4E354005600568F4
:1011D0004FF6FF7606EA02263543056070BD41638F
:1011E000704781637047C1637047016470478165D0
:1011F0007047C16570470A4600218169AF4B1940AD
:101200001143816170470A4600218169AC4B194046
:1012100041EA0221816170470A460021C16921F03B
:1012200070011143C16170470A460021C16921F470
:10123000E04141EA0221C16170470A460021416D47
:1012400021F070011143416570470A460021416D4C
:1012500021F4E04141EA0221416570470A4600213C
:10126000816921F008011143816170470A4600211C
:10127000816921F4006141EA0221816170470A46D7
:101280000021C16921F008011143C16170470A467C
:101290000021C16921F4006141EA0221C161704766
:1012A0000A460021416D21F0080111434165704754
:1012B0000A460021416D21F4006141EA02214165A5
:1012C00070470A460021816921F0040111438161C0
:1012D00070470A460021816921F4806141EA0221B8
:1012E000816170470A460021C16921F00401114360
:1012F000C16170470A460021C16921F4806141EA59
:101300000221C16170470A460021816921F08001F4
:101310001143816170470A460021816921F400412F
:1013200041EA0221816170470A460021C16921F02A
:1013300080011143C16170470A460021C16921F44F
:10134000004141EA0221C16170470A460021416D16
:1013500021F080011143416570470A460021416D2B
:1013600021F4004141EA02214165704782684FF64D
:10137000F7731A40826082680A43826070470A46A7
:101380000021016A21F002011143016270470A46FF
:101390000021016A21F008011143016270470A46E9
:1013A0000021016A21F0200141EA02110162704727
:1013B0000A460021016A21F0800141EA021101621E
:1013C00070470A460021016A21F4007141EA0221B6
:1013D000016270470A460021016A21F4006141EA76
:1013E0000221016270470A460021016A21F400517E
:1013F00041EA0231016270470A460021016A21F484
:10140000003141EA0241016270470A460021016A47
:1014100021F4001141EA02510162704730B5002306
:10142000012404FA01F3046A9C430462046A02FA88
:1014300001F52C43046230BD30B50023042404FAC6
:1014400001F3046A9C430462046A02FA01F52C4326
:10145000046230BDC2694FF2FF331A40C261C269F3
:101460004FF6FF7303EA01231A43C2617047F0B5D8
:101470000C461546002100220026076A4EF6FF7C26
:1014800007EA0C070762C769B9B2076ABAB24FF632
:10149000FF7707EA043640F6FF4739404FF6FF77FB
:1014A00007EA052739434FF6FF7707EA0337394341
:1014B00008E00000002C0140003401408FFFFEFFD7
:1014C000FF8FFFFE45F6FF773A4046F480573A43D8
:1014D000C1610262F0BDC2694FF6F3731A40C26186
:1014E000C2690A43C2617047F0B50C461546002137
:1014F00000220026076A4FF6FF6C07EA0C07076216
:10150000C769B9B2076ABAB24FF6FF7707EA04268D
:101510004FF60C7739404FF6FF7707EA03172F4352
:1015200039434FF2FF573A4046F480773A43C1615E
:101530000262F0BD826922F440628261826942EAFD
:10154000012282617047F0B50C4615460021002249
:101550000026076A4FF6EF7C07EA0C0707628169ED
:10156000026A4FF6FF7707EA041621F4734141EA55
:10157000033141EA05214FF65F773A4046F0100704
:101580003A4381610262F0BD826922F00C028261FD
:1015900082690A438261704770B50C461546002186
:1015A0000022066A26F0010606628169026A21F0BD
:1015B000F30145EA0316314322F00A0244F0010622
:1015C00032438161026270BD70B505460C462088C9
:1015D00050B92389A28861882846FFF7DDFFE1889A
:1015E0002846FFF7D1FF25E0208804280AD1238967
:1015F000A28861882846FFF7A6FFE1882846FFF702
:1016000099FF17E0208808280AD12389A2886188D9
:101610002846FFF769FFE1882846FFF75CFF09E0ED
:101620002389A28861882846FFF721FFE1882846A0
:10163000FFF710FF70BD00210180418001218180F2
:101640000021C180018170472DE9F04105460C461B
:1016500000260127608808B9022600E00026A0883D
:10166000012801D1022700E001272088A0B92389A1
:10167000A28861882846FFF78FFFE1882846FFF798
:1016800083FF23893A4631462846FFF75CFFE1880D
:101690002846FFF74FFF13E02389A2886188284678
:1016A000FFF751FFE1882846FFF744FF23893A46B8
:1016B00031462846FFF770FFE1882846FFF764FFB0
:1016C000BDE8F0810146486B70470146886B704762
:1016D0000146C86B70470146086C70470A884B8802
:1016E0001A438B881A43CB881A430B891A434B89B8
:1016F0001A438B891A434264704710B5436C23F434
:1017000072234364436C41EA02442343436410BDA3
:1017100010B5436C23F03C734364436C41EA0254BC
:101720002343436410BD21B1426C42F480524264B1
:1017300003E0426C22F480524264704721B1426C53
:1017400042F08072426403E0426C22F08072426494
:1017500070470021018041808180C18001814181E9
:101760008181704721B1426C42F40042426403E03F
:10177000426CC2F30E024264704721B1426842F0EB
:101780000402426004E042684FF6FB731A40426074
:10179000704721B1426842F00102426004E04268B1
:1017A0004FF6FE731A404260704710B51AB1C36815
:1017B0000B43C36004E0C368CC43A4B22340C360BE
:1017C00010BD416170470246002013690B4201D0F1
:1017D000012000E000207047CA4392B202617047C6
:1017E00030B50246002000230024156905EA0103F4
:1017F000D56805EA010413B10CB1012000E0002016
:1018000030BDCA4392B20261704741EA0203A0F8B8
:101810004830704710B51AB1C3680B43C36004E089
:10182000C368CC43A4B22340C36010BD21B1426859
:1018300042F00802426004E042684FF6F7731A4033
:101840004260704781684FF6F872114081607047BE
:101850000A460021836899B24FF68F7319401143ED
:101860008160704730B504460D4629462046FFF793
:10187000EFFFA06840F00700A06030BD2DE9F04107
:1018800004460D4616461F46602D06D13B460122F2
:1018900031462046FFF757FE05E03B460122314620
:1018A0002046FFF779FE29462046FFF7D1FFA068C2
:1018B00040F00700A060BDE8F08130B50C46002183
:1018C0008568A9B2C9B24FF6FF7505EA032515432D
:1018D00025432943816030BD2DE9F04105460E4680
:1018E00017469846002443463A4631462846FFF7B5
:1018F000E4FFA86884B24FF6F870044044F007048F
:101900004FF68F70044044F07004AC60BDE8F08185
:10191000F0B504460D4616461F463B46324629465C
:101920002046FFF7CAFFA06840F48040A060F0BDE9
:1019300042684FF68F731A40426042680A43426021
:101940007047426822F47002426042680A43426073
:1019500070478268214B1A40826082680A43826025
:10196000704782684FF67F731A40826082680A432C
:1019700082607047F0B50C4615461E4600210022D5
:1019800000238768B9B28769BAB2076ABBB24FF65B
:10199000F877394021434FF6FC473A4040F20117AF
:1019A0003A434FF6DD773B404FF6FF7707EA0617DD
:1019B0002F433B43816082610362F0BD21B14268E5
:1019C00042F08002426004E042684FF67F731A40A2
:1019D00042607047A0F8501070470000F8FFFEFF0B
:1019E00010B50446F948844209D101218803FFF764
:1019F000F3F800214FF48040FFF7EEF832E0F448AE
:101A0000844209D101214804FFF7F3F800214FF483
:101A10000030FFF7EEF825E0EE48844209D10121BD
:101A20008804FFF7E6F800214FF48020FFF7E1F883
:101A300018E0E948844209D10121C804FFF7D9F828
:101A400000214FF40020FFF7D4F80BE0E348844274
:101A500008D101210805FFF7CCF800214FF48010D0
:101A6000FFF7C7F810BD2DE9F04190B004460D46D0
:101A70000027B8460026206820F001002060666834
:101A800026F44056A86806436660266841F20C605A
:101A90008643E96868680843296908430643266065
:101AA000A66826F4407668690643A66001A8FEF79A
:101AB000B6FDC648844202D1DDF82C8013E0C4484C
:101AC000844202D1DDF830800DE0C248844202D168
:101AD000DDF8348007E0C048844202D1DDF8388068
:101AE00001E0DDF83C80206810F4004F0CD04FEA94
:101AF00048002968B0FBF1F74FEA48002968B0FBBD
:101B0000F1F201FB120607E02868B8FBF0F728683D
:101B1000B8FBF0F100FB11862868B6EB500F00D33C
:101B20007F1C206810F4004F07D0C7F342064FF621
:101B3000F07107EA010040EA0607A78110B0BDE88E
:101B4000F0814FF416510160002141608160C16055
:101B50000C21016100214161704710B500224268EB
:101B600022F47062D1E9003423438C682343CC68AB
:101B700023431A43426010BD00210160416081602F
:101B8000C160704721B1026842F00102026003E0C7
:101B9000026822F00102026070471AB103680B4329
:101BA000036002E003688B430360704721B1026861
:101BB00042F40042026003E0026822F40042026044
:101BC000704721B1826842F40062826003E082685B
:101BD00022F400628260704721B1426842F4002220
:101BE000426003E0426822F400224260704721B163
:101BF000426842F48022426003E0426822F480227C
:101C0000426070471AB143680B43436002E0436887
:101C10008B434360704721B1426842F40042426006
:101C200003E0426822F400424260704721B14268FA
:101C300042F40002426003E0426822F40002426083
:101C40007047426902F07F42426142690A43426141
:101C50007047028A02F47F420282028A0A430282A9
:101C6000704721B1026842F00202026003E002689C
:101C700022F0020202607047826822F44012826001
:101C800082680A438260704721B1426842F4801240
:101C9000426003E0426822F480124260704742686A
:101CA00022F4C002426042680A4342607047C1F3B6
:101CB0000802028570470146888CC0F3080070470F
:101CC000426822F07F424260426842EA016242601A
:101CD000704721B1026842F40052026003E00268DA
:101CE00022F4005202607047026822F4006202602F
:101CF00002680A4302607047426822F010024260A4
:101D000042680A4342607047426822F02002426003
:101D100042680A434260704721B1426842F48042FF
:101D2000426003E0426822F480424260704721B181
:101D3000826842F00802826003E0826822F00802B2
:101D400082607047028AD2B20282028A42EA01228B
:101D50000282704721B1826842F02002826003E073
:101D6000826822F020028260704721B1826842F0CE
:101D70001002826003E0826822F0100282607047E5
:101D8000826822F460228260826842EA4142826074
:101D90007047426922F07F424261426942EA016231
:101DA00042617047826822F00402826082680A43BE
:101DB0008260704721B1826842F00202826003E0D3
:101DC000826822F002028260704700000038014001
:101DD0000044004000480040004C004000500040DB
:101DE00021B1826842F48042826003E0826822F47A
:101DF000804282607047826822F40042826082687A
:101E00000A4382607047026822F0787202600268BA
:101E100042EA415202607047026822F4F8120260FE
:101E2000026842EA0142026070471AB183680B43BC
:101E3000836002E083688B4383607047826822F48A
:101E40000052826082680A4382607047F0B50346A0
:101E500000240026002500201846C1F30724CEB236
:101E6000012707FA06F5022C01D1001D02E0032C20
:101E700000D108301AB107682F43076002E00768F5
:101E8000AF430760F0BD1AB1038B0B43038302E03D
:101E9000038B8B4303837047826822F480528260F5
:101EA00082680A438260704702460020D3690B4271
:101EB00001D0012000E0002070470162704770B53A
:101EC00002460B460024002100250020C3F307250D
:101ED000D9B2012606FA01F1012D02D1166831406E
:101EE00006E0022D02D15668314001E0966831408B
:101EF0001C0C012606FA04F4D669344011B10CB169
:101F0000012000E0002070BD10B5002200230A0C63
:101F1000012404FA02F3036210BD000010B52DED98
:101F2000028BB0EE408AF0EE608A9FEDB10B53EC6D
:101F3000102B51EC180B02F0A3FA03D1AEA0BDECAC
:101F4000028B10BD9FEDB20B53EC102B51EC180B14
:101F500002F096FA01D1B0A0F1E79FEDB50B53EC7A
:101F6000102B51EC180B02F08BFA01D1B2A0E6E76E
:101F70009FEDB70B53EC102B51EC180B02F080FACD
:101F800001D1B5A0DBE79FEDBA0B53EC102B51EC60
:101F9000180B02F075FA01D1B7A0D0E79FEDBC0B8A
:101FA00053EC102B51EC180B02F06AFA01D1BAA0D5
:101FB000C5E79FEDBF0B53EC102B51EC180B02F053
:101FC0005FFA01D1BCA0BAE79FEDC10B53EC102B17
:101FD00051EC180B02F054FA01D1BFA0AFE79FED0E
:101FE000C40B53EC102B51EC180B02F049FA01D141
:101FF000C1A0A4E79FEDC60B53EC102B51EC180BBE
:1020000002F03EFA01D1C4A099E79FEDC90B53EC51
:10201000102B51EC180B02F033FA01D1C6A08EE759
:102020009FEDCB0B53EC102B51EC180B02F028FA60
:1020300001D1C9A083E79FEDCE0B53EC102B51ECDF
:10204000180B02F01DFA01D1CBA078E79FEDD00B61
:1020500053EC102B51EC180B02F012FA01D1CEA068
:102060006DE79FEDD30B53EC102B51EC180B02F0E6
:1020700007FA01D1D0A062E79FEDD50B53EC102BEE
:1020800051EC180B02F0FCF901D1D3A057E79FEDFA
:10209000D80B53EC102B51EC180B02F0F1F901D1D5
:1020A000D5A04CE79FEDDA0B53EC102B51EC180B3D
:1020B00002F0E6F901D1D8A041E79FEDDD0B53EC2A
:1020C000102B51EC180B02F0DBF901D1DAA036E746
:1020D0009FEDDF0B53EC102B51EC180B02F0D0F9F5
:1020E00001D1DDA02BE79FEDE20B53EC102B51EC5F
:1020F000180B02F0C5F901D1DFA020E79FEDE40B3A
:1021000053EC102B51EC180B02F0BAF901D1E2A0FC
:1021100015E79FEDE70B53EC102B51EC180B02F079
:10212000AFF901D1E4A00AE79FEDE90B53EC102BC6
:1021300051EC180B02F0A4F901D1E7A0FFE69FEDE6
:10214000EC0B53EC102B51EC180B02F099F901D168
:10215000E9A0F4E69FEDEE0B53EC102B51EC180BBD
:1021600002F08EF901D1ECA0E9E69FEDF10B53EC02
:10217000102B51EC180B02F083F901D1EEA0DEE632
:102180009FEDF30B53EC102B51EC180B02F078F988
:1021900001D1F1A0D3E69FEDF60B53EC102B51ECDF
:1021A000180B02F06DF901D1F3A0C8E69FEDF80B12
:1021B00053EC102B51EC180B02F062F901D1F6A090
:1021C000BDE69FEDFB0B53EC102B51EC180B02F00E
:1021D00057F901D1F8A0B2E69FEDFD0B53EC102B9F
:1021E00051EC180B02F04CF900D1F5E1F6E10000DA
:1021F00000000000000034C0202020202020202DDE
:1022000032302E302020202020202020000000000E
:1022100000000000008033C0202020202020202D3E
:1022200031392E35202020202020202000000000E1
:1022300000000000000033C0202020202020202D9E
:1022400031392E30202020202020202000000000C6
:1022500000000000008032C0202020202020202DFF
:1022600031382E35202020202020202000000000A2
:1022700000000000000032C0202020202020202D5F
:1022800031382E3020202020202020200000000087
:1022900000000000008031C0202020202020202DC0
:1022A00031372E3520202020202020200000000063
:1022B00000000000000031C0202020202020202D20
:1022C00031372E3020202020202020200000000048
:1022D00000000000008030C0202020202020202D81
:1022E00031362E3520202020202020200000000024
:1022F00000000000000030C0202020202020202DE1
:1023000031362E3020202020202020200000000008
:102310000000000000002FC0202020202020202DC1
:1023200031352E35202020202020202000000000E4
:102330000000000000002EC0202020202020202DA2
:1023400031352E30202020202020202000000000C9
:102350000000000000002DC0202020202020202D83
:1023600031342E35202020202020202000000000A5
:102370000000000000002CC0202020202020202D64
:1023800031342E302020202020202020000000008A
:102390000000000000002BC0202020202020202D45
:1023A00031332E3520202020202020200000000066
:1023B0000000000000002AC0202020202020202D26
:1023C00031332E302020202020202020000000004B
:1023D00000000000000029C0202020202020202D07
:1023E00031322E3520202020202020200000000027
:1023F00000000000000028C0202020202020202DE8
:1024000031322E302020202020202020000000000B
:1024100000000000000027C0202020202020202DC8
:1024200031312E35202020202020202000000000E7
:1024300000000000000026C0202020202020202DA9
:1024400031312E30202020202020202000000000CC
:1024500000000000000025C0202020202020202D8A
:1024600031302E35202020202020202000000000A8
:1024700000000000000024C0202020202020202D6B
:1024800031302E302020202020202020000000008D
:1024900000000000000023C0202020202020202059
:1024A0002D392E3520202020202020200000000063
:1024B00000000000000022C020202020202020203A
:1024C0002D392E3020202020202020200000000048
:1024D00000000000000021C020202020202020201B
:1024E0002D382E3520202020202020200000000024
:1024F00000000000000020C02020202020202020FC
:102500002D382E3020202020202020200000000008
:102510000000000000001EC02020202020202020DD
:102520002D372E35202020202020202000000000E4
:102530000000000000001CC02020202020202020BF
:102540002D372E30202020202020202000000000C9
:102550000000000000001AC02020202020202020A1
:102560002D362E35202020202020202000000000A5
:1025700000000000000018C0202020202020202083
:102580002D362E302020202020202020000000008A
:1025900000000000000016C0202020202020202065
:1025A0002D352E3520202020202020200000000066
:1025B00000000000000014C0202020202020202047
:1025C0002D352E302020202020202020000000004B
:1025D00000000000000012C0ABA0B0E49FEDB00B03
:1025E00053EC102B51EC180B01F04AFF01D1AEA0B7
:1025F000A5E49FEDB30B53EC102B51EC180B01F03D
:102600003FFF01D1B0A09AE49FEDB50B53EC102B26
:1026100051EC180B01F034FF01D1B3A08FE49FED12
:10262000B80B53EC102B51EC180B01F029FF01D122
:10263000B5A084E49FEDBA0B53EC102B51EC180BB2
:1026400001F01EFF01D1B8A079E49FEDBD0B53EC62
:10265000102B51EC180B01F013FF01D1BAA06EE45E
:102660009FEDBF0B53EC102B51EC180B01F008FF42
:1026700001D1BDA063E49FEDC20B53EC102B51ECD4
:10268000180B01F0FDFE01D1BFA058E49FEDC40B73
:1026900053EC102B51EC180B01F0F2FE01D1C2A04B
:1026A0004DE49FEDC70B53EC102B51EC180B01F0D0
:1026B000E7FE01D1C4A042E49FEDC90B53EC102BFF
:1026C00051EC180B01F0DCFE01D1C7A037E49FEDFF
:1026D000CC0B53EC102B51EC180B01F0D1FE01D1B7
:1026E000C9A02CE49FEDCE0B53EC102B51EC180B32
:1026F00001F0C6FE01D1CCA021E49FEDD10B53EC3B
:10270000102B51EC180B01F0BBFE01D1CEA016E44A
:102710009FEDD30B53EC102B51EC180B01F0B0FED6
:1027200001D1D1A00BE49FEDD60B53EC102B51EC53
:10273000180B01F0A5FE01D1D3A000E49FEDD80B4A
:1027400053EC102B51EC180B01F09AFE01D1D6A0DE
:102750000DE49FEDDB0B53EC102B51EC180B01F04B
:102760008FFE01D1D8A00DE49FEDDD0B53EC102BB3
:1027700051EC180B01F084FE01D1DBA00DE49FEDBC
:10278000E00B53EC102B51EC180B01F079FE01D14A
:10279000DDA00DE49FEDE20B53EC102B51EC180B78
:1027A00001F06EFE01D1E0A00DE49FEDE50B53ECCE
:1027B000102B51EC180B01F063FE01D1E2A00DE4E7
:1027C0009FEDE70B53EC102B51EC180B01F058FE6A
:1027D00001D1E5A00DE49FEDEA0B53EC102B51EC79
:1027E000180B01F04DFE01D1E7A00DE49FEDEC0BBD
:1027F00053EC102B51EC180B01F042FE01D1EAA072
:102800000DE49FEDEF0B53EC102B51EC180B01F086
:1028100037FE01D1ECA00DE49FEDF10B53EC102B32
:1028200051EC180B01F02CFE01D1EFA00DE49FED4F
:10283000F40B53EC102B51EC180B01F021FE01D1DD
:10284000F1A00DE49FEDF60B53EC102B51EC180B9F
:1028500001F016FE01D1F4A00DE49FEDF90B53EC4D
:10286000102B51EC180B01F00BFE01D1F6A00DE47A
:102870009FEDFB0B53EC102B51EC180B01F000FEFD
:1028800000D1F1E1F2E100002020202020202020D2
:102890002D342E3520202020202020200000000074
:1028A00000000000000010C0202020202020202058
:1028B0002D342E3020202020202020200000000059
:1028C00000000000000008C0202020202020202040
:1028D0002D332E302020202020202020000000003A
:1028E00000000000000004C0202020202020202024
:1028F0002D322E3520202020202020200000000016
:1029000000000000000000C0202020202020202007
:102910002D322E30202020202020202000000000FA
:10292000000000000000F8BF2020202020202020F0
:102930002D312E35202020202020202000000000D6
:10294000000000000000F0BF2020202020202020D8
:102950002D312E30202020202020202000000000BB
:10296000000000000000E0BF2020202020202020C8
:102970002D302E3520202020202020200000000097
:102980000000000000000000202020202020202047
:1029900020302E3020202020202020200000000089
:1029A000000000000000E03F202020202020202008
:1029B00020302E3520202020202020200000000064
:1029C000000000000000F03F2020202020202020D8
:1029D00020312E3020202020202020200000000048
:1029E000000000000000F83F2020202020202020B0
:1029F00020312E3520202020202020200000000023
:102A00000000000000000040202020202020202086
:102A100020322E3020202020202020200000000006
:102A20000000000000000440202020202020202062
:102A300020322E35202020202020202000000000E1
:102A4000000000000000084020202020202020203E
:102A500020332E30202020202020202000000000C5
:102A60000000000000000C4020202020202020201A
:102A700020332E35202020202020202000000000A0
:102A800000000000000010402020202020202020F6
:102A900020342E3020202020202020200000000084
:102AA00000000000000012402020202020202020D4
:102AB00020342E352020202020202020000000005F
:102AC00000000000000014402020202020202020B2
:102AD00020352E3020202020202020200000000043
:102AE0000000000000001640202020202020202090
:102AF00020352E352020202020202020000000001E
:102B0000000000000000184020202020202020206D
:102B100020362E3020202020202020200000000001
:102B20000000000000001A4020202020202020204B
:102B300020362E35202020202020202000000000DC
:102B40000000000000001C40202020202020202029
:102B500020372E30202020202020202000000000C0
:102B60000000000000001E40202020202020202007
:102B700020372E352020202020202020000000009B
:102B800000000000000020402020202020202020E5
:102B900020382E302020202020202020000000007F
:102BA00000000000000021402020202020202020C4
:102BB00020382E352020202020202020000000005A
:102BC00000000000000022402020202020202020A3
:102BD00020392E302020202020202020000000003E
:102BE0000000000000002340202020202020202082
:102BF00020392E3520202020202020200000000019
:102C00000000000000002440202020202020202060
:102C100031302E30202020202020202000000000F5
:102C2000000000000000254020202020202020203F
:102C300031302E35202020202020202000000000D0
:102C4000000000000000264020202020202020201E
:102C500031312E30202020202020202000000000B4
:102C60000000000000002740ABA0B6E49FEDB00BD1
:102C700053EC102B51EC180B01F002FC01D1AEA06B
:102C8000ABE49FEDB30B53EC102B51EC180B01F0A0
:102C9000F7FB01D1B0A0A0E49FEDB50B53EC102BD6
:102CA00051EC180B01F0ECFB01D1B3A095E49FEDC2
:102CB000B80B53EC102B51EC180B01F0E1FB01D1D8
:102CC000B5A08AE49FEDBA0B53EC102B51EC180B16
:102CD00001F0D6FB01D1B8A07FE49FEDBD0B53EC12
:102CE000102B51EC180B01F0CBFB01D1BAA074E40E
:102CF0009FEDBF0B53EC102B51EC180B01F0C0FBF8
:102D000001D1BDA069E49FEDC20B53EC102B51EC37
:102D1000180B01F0B5FB01D1BFA05EE49FEDC40B21
:102D200053EC102B51EC180B01F0AAFB01D1C2A0FF
:102D300053E49FEDC70B53EC102B51EC180B01F033
:102D40009FFB01D1C4A048E49FEDC90B53EC102BAD
:102D500051EC180B01F094FB01D1C7A03DE49FEDAD
:102D6000CC0B53EC102B51EC180B01F089FB01D16B
:102D7000C9A032E49FEDCE0B53EC102B51EC180B95
:102D800001F07EFB01D1CCA027E49FEDD10B53ECE9
:102D9000102B51EC180B01F073FB01D1CEA01CE4F9
:102DA0009FEDD30B53EC102B51EC180B01F068FB8B
:102DB00001D1D1A011E49FEDD60B53EC102B51ECB7
:102DC000180B01F05DFB01D1D3A006E49FEDD80BF9
:102DD00053EC102B51EC180B01F052FB01D1D6A093
:102DE00006E49FEDDB0B53EC102B51EC180B01F0BC
:102DF00047FB01D1D8A006E49FEDDD0B53EC102B6F
:102E000051EC180B01F03CFB01D1DBA006E49FED77
:102E1000E00B53EC102B51EC180B01F031FB01D1FE
:102E2000DDA006E49FEDE20B53EC102B51EC180BE8
:102E300001F026FB01D1E0A006E49FEDE50B53EC89
:102E4000102B51EC180B01F01BFB01D1E2A006E4A2
:102E50009FEDE70B53EC102B51EC180B01F010FB1E
:102E600001D1E5A006E49FEDEA0B53EC102B51ECE9
:102E7000180B01F005FB01D1E7A006E49FEDEC0B78
:102E800053EC102B51EC180B01F0FAFA01D1EAA027
:102E900006E49FEDEF0B53EC102B51EC180B01F0F7
:102EA000EFFA01D1ECA006E49FEDF10B53EC102BEF
:102EB00051EC180B01F0E4FA01D1EFA006E49FED0C
:102EC000F40B53EC102B51EC180B01F0D9FA01D193
:102ED000F1A006E49FEDF60B53EC102B51EC180B10
:102EE00001F0CEFA01D1F4A006E49FEDF90B53EC0A
:102EF000102B51EC180B01F0C3FA01D1F6A006E437
:102F00009FEDFB0B53EC102B51EC180B01F0B8FAB2
:102F100001D1F9A006E4FBE1202020202020202080
:102F200031312E35202020202020202000000000DC
:102F30000000000000002840202020202020202029
:102F400031322E30202020202020202000000000C0
:102F50000000000000002940202020202020202008
:102F600031322E352020202020202020000000009B
:102F70000000000000002A402020202020202020E7
:102F800031332E302020202020202020000000007F
:102F90000000000000002B402020202020202020C6
:102FA00031332E352020202020202020000000005A
:102FB0000000000000002C402020202020202020A5
:102FC00031342E302020202020202020000000003E
:102FD0000000000000002D40202020202020202084
:102FE00031342E3520202020202020200000000019
:102FF0000000000000002E40202020202020202063
:1030000031352E30202020202020202000000000FC
:103010000000000000002F40202020202020202041
:1030200031352E35202020202020202000000000D7
:103030000000000000003040202020202020202020
:1030400031362E30202020202020202000000000BB
:103050000000000000803040202020202020202080
:1030600031362E3520202020202020200000000096
:1030700000000000000031402020202020202020DF
:1030800031372E302020202020202020000000007A
:10309000000000000080314020202020202020203F
:1030A00031372E3520202020202020200000000055
:1030B000000000000000324020202020202020209E
:1030C00031382E3020202020202020200000000039
:1030D00000000000008032402020202020202020FE
:1030E00031382E3520202020202020200000000014
:1030F000000000000000334020202020202020205D
:1031000031392E30202020202020202000000000F7
:1031100000000000008033402020202020202020BC
:1031200031392E35202020202020202000000000D2
:10313000000000000000344020202020202020201B
:1031400032302E30202020202020202000000000BF
:10315000000000000080344020202020202020207B
:1031600032302E352020202020202020000000009A
:1031700000000000000035402020202020202020DA
:1031800032312E302020202020202020000000007E
:10319000000000000080354020202020202020203A
:1031A00032312E3520202020202020200000000059
:1031B0000000000000003640202020202020202099
:1031C00032322E302020202020202020000000003D
:1031D00000000000008036402020202020202020F9
:1031E00032322E3520202020202020200000000018
:1031F0000000000000003740202020202020202058
:1032000032332E30202020202020202000000000FB
:1032100000000000008037402020202020202020B7
:1032200032332E35202020202020202000000000D6
:103230000000000000003840202020202020202016
:1032400032342E30202020202020202000000000BA
:103250000000000000803840202020202020202076
:1032600032342E3520202020202020200000000095
:1032700000000000000039402020202020202020D5
:1032800032352E3020202020202020200000000079
:103290000000000000803940202020202020202035
:1032A00032352E3520202020202020200000000054
:1032B0000000000000003A40202020202020202094
:1032C00032362E3020202020202020200000000038
:1032D0000000000000803A402020202020202020F4
:1032E00032362E3520202020202020200000000013
:1032F0000000000000003B40202020202020202053
:1033000032372E30202020202020202000000000F6
:103310009FEDCE0B53EC102B51EC180B01F0B0F8D5
:1033200001D1CCA0A1E49FEDD10B53EC102B51ECBB
:10333000180B01F0A5F801D1CEA096E49FEDD30BB8
:1033400053EC102B51EC180B01F09AF801D1D1A0DD
:103350008BE49FEDD60B53EC102B51EC180B01F0C6
:103360008FF801D1D3A080E49FEDD80B53EC102B44
:1033700051EC180B01F084F801D1D6A075E49FED53
:10338000DB0B53EC102B51EC180B01F079F801D149
:10339000D8A06AE49FEDDD0B53EC102B51EC180B19
:1033A00001F06EF801D1DBA05FE49FEDE00B53EC80
:1033B000102B51EC180B01F063F801D1DDA054E49F
:1033C0009FEDE20B53EC102B51EC180B01F058F869
:1033D00001D1E0A049E49FEDE50B53EC102B51EC3B
:1033E000180B01F04DF801D1E2A03EE49FEDE70B90
:1033F00053EC102B51EC180B01F042F801D1E5A071
:1034000033E49FEDEA0B53EC102B51EC180B01F059
:1034100037F801D1E7A028E49FEDEC0B53EC102B1B
:1034200051EC180B01F02CF801D1EAA01DE49FED3E
:10343000EF0B53EC102B51EC180B01F021F801D1DC
:10344000ECA012E49FEDF10B53EC102B51EC180B98
:1034500001F016F801D1EFA007E49FEDF40B53EC57
:10346000102B51EC180B01F00BF801D1F1A007E47F
:10347000F6A005E470B504460D4600BF8021F9486A
:10348000FEF712FD0028F9D029462046FEF70FFC72
:1034900070BD2DE9F04104460E46142700253CB9C5
:1034A000FE21F048FFF7E6FF8021EE48FFF7E2FF3C
:1034B000012C07D1FE21EB48FFF7DCFFC021E948D2
:1034C000FFF7D8FF022C07D1FE21E648FFF7D2FF15
:1034D0009421E448FFF7CEFF05E0715DE148FFF776
:1034E000C9FF681CC5B2BD42F7DBBDE8F08170B50D
:1034F00000268021DC48FCF760FF04464FF4807111
:10350000D948FCF75AFF0546002C10DD0DE080215C
:10351000D548FCF752FF04464FF48071D248FCF7BF
:103520004CFF0546002D00DD0126002CEFDC002DB0
:1035300010DD0DE08021CC48FCF73FFF04464FF43E
:103540008071C948FCF739FF0546002C00DD0226D2
:10355000002DEFDC304670BD012500260024A0467A
:10356000A1460027C1A10020FFF793FFDFE3FFF78B
:10357000BEFF20B1012804D0022862D1D3E2002787
:10358000D3E2012F00D1D0E20127012D06D0022D78
:103590001ED0032D56D0042D55D1C0E226B1012EE8
:1035A00008D0022E12D10BE00126B6A10020FFF7B1
:1035B00070FF0BE00226B9A10020FFF76AFF05E0CB
:1035C0000026AAA10020FFF764FF00BF00BFA8E209
:1035D00026B1012E29D0022E26D1BCE1042C01D126
:1035E000002400E0641C052C1DD2DFE804F0030871
:1035F0000D121700AFA10120FFF74BFF13E0B3A19D
:103600000120FFF746FF0EE0B6A10120FFF741FFC2
:1036100009E0BAA10120FFF73CFF04E0BDA10120B1
:10362000FFF737FF00BF00BFA9E1C04800680128CD
:103630000AD10020BD490860BDA10120FFF729FF84
:1036400088E1FCE39DE16BE27EE100000000000008
:1036500000803B40202020202020202032372E35A3
:10366000202020202020202000000000000000005A
:1036700000003C40202020202020202032382E3501
:10368000202020202020202000000000000000003A
:1036900000003D40202020202020202032392E30E4
:1036A000202020202020202000000000000000001A
:1036B00000803D40202020202020202032392E353F
:1036C00020202020202020200000000000000000FA
:1036D00000003E40202020202020202033302E30AB
:1036E000202020202020202000000000333333330E
:1036F0003333C33F2020202020202020302E31359E
:1037000020202020202020200000000000000000B9
:103710000000D03F2020202020202020302E3235D5
:103720002020202020202020000000006666666601
:103730006666D63F2020202020202020302E3335E2
:10374000202020202020202000000000CDCCCCCC48
:10375000CCCCDC3F2020202020202020302E3435EF
:103760002020202020202020000000009A999999F4
:103770009999E13F2020202020202020302E35352F
:10378000202020202020202000000000CDCCCCCC08
:10379000CCCCE43F2020202020202020302E3635A5
:1037A0002020202020202020000000000000000019
:1037B0000000E83F2020202020202020302E373518
:1037C000202020202020202000000000333333332D
:1037D0003333EB3F2020202020202020302E38358E
:1037E0002020202020202020000000006666666641
:1037F0006666EE3F2020202020202020302E393504
:10380000202020202020202000000000CDCCCCCC87
:10381000CCCCF03F2020202020202020312E30351D
:103820002020202020202020000000006666666600
:103830006666F23F2020202020202020312E3135C6
:1038400020202020202020200000000020202020F8
:103850002020202020202020202020202020202068
:1038600020000000003801400010004820202020E7
:103870002020204D616E75616C20202020202020AA
:10388000000000002020202020204175746F6D6F03
:10389000646520202020202000000000202020201F
:1038A0002020204279706173732020202020202066
:1038B00000000000202020202020546872657368DA
:1038C0006F6C642020202020000000002020202099
:1038D000204D616B655570204761696E2020202066
:1038E000000000002020202020202041747461630B
:1038F0006B202020202020200000000020202020FD
:10390000202052656C6561736520202020202020D6
:103910000000000020202020202020526174696FC8
:10392000202020202020202000000000580000201F
:1039300020202020202044697361626C656420206F
:1039400020202020000000000120F9490860F9A192
:10395000FFF79FFD13E0FD480068012808D1002013
:10396000FA490860AFF238010120FFF792FD05E047
:103970000120F6490860EFA1FFF78BFD00BF00BFF3
:10398000CFE0052C79D2DFE804F0032A5179A000BA
:103990009FEDEF0B53EC102BEF4890ED000B51EC2B
:1039A000100B00F06DFD00D1B7E09FEDEC0B53EC78
:1039B000102BE94890ED000B51EC100B00F0ACFC23
:1039C00041EC100BE44880ED000B90ED000BFEF78E
:1039D000A5FA824651460220FFF75BFD9DE09FED70
:1039E000E10B53EC102BE14890ED000B51EC100B68
:1039F00000F046FD00D190E09FEDD80B53EC102B6A
:103A0000DA4890ED000B51EC100B00F085FC41EC16
:103A1000100BD64880ED000B90ED000BFEF77EFA00
:103A2000824651460220FFF734FD76E01FEDD90BA8
:103A300053EC102BCE4890ED000B51EC100B00F026
:103A40001FFD00D169E09FEDC50B53EC102BC8485A
:103A500090ED000B51EC100B00F05EFC41EC100BF4
:103A6000C34880ED000B90ED000BFEF757FA82463D
:103A700051460220FFF70DFD4FE04DE09FEDBD0BDD
:103A800053EC102BBD4890ED000B51EC100B00F0E7
:103A9000F7FC00D141E09FEDBA0B53EC102BB74877
:103AA00090ED000B51EC100B00F036FC41EC100BCC
:103AB000B24880ED000B90ED000BFEF72FFA824626
:103AC00051460220FFF7E5FC27E09FEDAF0B53ECDA
:103AD000102BAF4890ED000B51EC100B00F0D0FC18
:103AE00000D11AE09FEDAB0B53EC102BA84890EDE2
:103AF000000B51EC100B00F00FFC41EC100BA44834
:103B000080ED000B90ED000BFEF708FA824651465F
:103B10000220FFF7BEFC00E000BF00BF00BF00E0D6
:103B200000BF00BF00BF012F00D19BE10127012D85
:103B300006D0022D21D0032D7CD0042D70D18CE134
:103B400026B1012E09D0022E15D10DE00226AFF2CA
:103B5000B4210020FFF79DFC0DE00026AFF2F42118
:103B60000020FFF796FC06E00126AFF2E8210020D6
:103B7000FFF78FFC00BF00BF71E126B1012E2DD0F1
:103B8000022E55D13EE00CB9042400E0641E052C41
:103B900022D2DFE804F003090F151B00AFF2EC217D
:103BA0000120FFF776FC17E0AFF2E0210120FFF7DC
:103BB00070FC11E0AFF2D4210120FFF76AFC0BE0AA
:103BC000AFF2C8210120FFF764FC05E0AFF2BC2191
:103BD0000120FFF75EFC00BF00BF29E054480068E9
:103BE000012808D1002052490860AFF2BC21012011
:103BF000FFF74FFC05E001204D4908604DA1FFF79C
:103C000048FC15E05148006801280AD100204F49BE
:103C10000860AFF2E4210120FFF73BFC07E009E078
:103C20001CE101204949086042A1FFF732FC00BFB6
:103C300000BF14E1052C79D2DFE804F0032A51BC5F
:103C4000E3009FED560B53EC102B434890ED000B17
:103C500051EC100B00F014FC00D1FCE09FED3F0B89
:103C600053EC102B3C4890ED000B51EC100B00F086
:103C700097FC41EC100B384880ED000B90ED000BE9
:103C8000FEF74CF9824651460220FFF702FCE2E0C3
:103C90009FED440B53EC102B344890ED000B51EC8E
:103CA000100B00F0EDFB00D1D5E09FED2C0B53EC99
:103CB000102B2E4890ED000B51EC100B00F070FC17
:103CC00041EC100B294880ED000B90ED000BFEF746
:103CD00025F9824651460220FFF7DBFBBBE09FED52
:103CE000330B53EC102B224890ED000B51EC100BD2
:103CF00000F0C6FB00D1AEE09FED180B53EC102B8B
:103D00001B4890ED000B51EC100B00F049FC41EC0E
:103D1000100B174880ED000B90ED000BFEF7FEF83E
:103D2000824651460220FFF7B4FB94E092E003E1A3
:103D300058000020202020202020456E61626C6504
:103D40006420202020202020000000005C000020B3
:103D50000000000000002E403000002000000000A5
:103D60000000E03F0000000000002840500000205C
:103D700038000020333333333333F33F480000201F
:103D80009A9999999999A93F000000000000344040
:103D900040000020000000000000F03F0000000094
:103DA000000034C000000000000014C09A999999E6
:103DB0009999B93F1FED030B53EC102B8C4890EDF4
:103DC000000B51EC100B00F05BFB00D143E01FED4A
:103DD000140B53EC102B864890ED000B51EC100B9C
:103DE00000F0DEFB41EC100B814880ED000B90ED04
:103DF000000BFEF793F8824651460220FFF749FB7D
:103E000029E01FED1C0B53EC102B7A4890ED000BB2
:103E100051EC100B00F034FB00D11CE01FED230B24
:103E200053EC102B734890ED000B51EC100B00F08D
:103E3000B7FB41EC100B6F4880ED000B00E010E089
:103E400090ED000BFEF76AF8824651460220FFF71C
:103E500020FB00E000BF00BF00BF00E000BF00BFCC
:103E600000BF00BF00BFB9F1000F2FD14FF40071A8
:103E70006148FCF7A2FA002830DD4FF00109012D5E
:103E800004D0022D1DD0032D1FD11DE06D1C26B1C5
:103E9000012E08D0022E12D10BE058A10120FFF70D
:103EA000F8FA00240BE0AFF278510120FFF7F1FAA5
:103EB00005E0AFF284510120FFF7EBFA00BF00BF2D
:103EC00003E006B96D1C00E000BF07E04FF400718D
:103ED0004948FCF772FA08B94FF00009B8F1000F31
:103EE0002BD14FF480614448FCF767FA00282CDDA1
:103EF0004FF00108012D04D0022D03D0032D1BD15A
:103F000014E019E06D1E43A10120FFF7C2FA4748F3
:103F10000068012802D10020444908604448006834
:103F2000012802D100204249086005E06D1E39A138
:103F30000220FFF7AEFA00BF07E04FF480612E4881
:103F4000FCF73BFA08B94FF00008FFF710BB01215E
:103F50004805FCF70DFE4FF4F0603649086000207C
:103F600008718871032048710220C8712248FCF74B
:103F7000C8F90121C804FCF7FBFD072204212E48E3
:103F8000FCF73EFA10202B490860032048710220FC
:103F90000871002088710120C8712748FCF7B1F929
:103FA00001218803FCF7F1FD4FF416502349086006
:103FB000002048608860C860486108200861204887
:103FC000FDF751FD01211E48FDF7DCFD11A1002088
:103FD000FFF75FFA0FA10120FFF75BFA0DA10220A6
:103FE000FFF757FA0BA10320FFF753FAFFF7B4FAD4
:103FF0004800002040000020001000482020202021
:10400000205468726573686F6C6420202020202023
:104010000000000020202020202020202020202020
:104020002020202020202020000000005800002018
:104030005C00002060000020000800488400002090
:1040400000380140704700BFFEE700BFFEE700BF39
:10405000FEE700BFFEE7704770477047704710B536
:104060001548FCF7DCFA04210807FDF7CAFB4FF0FE
:104070008040FDF72AFB1149088008460088A0B15E
:104080004FF08040FDF71EFB642148430B4909882F
:10409000B0FBF1F00A4908800748406807490988E1
:1040A000B0FBF1F00749086004E0002004490880F3
:1040B0000449086010BD00009C000020680000203A
:1040C0006A0000206C0000200CB5002001900090D8
:1040D0006A48006840F4A0206849086000BF67484B
:1040E000006800F4003000900198401C0190009896
:1040F00018B90198B0F5A06FF1D16048006810F4CC
:10410000003F02D00120009001E0002000900098C4
:10411000012835D112205A4908605848406857494B
:1041200048600846406848600846406840F480603F
:1041300048600846406820F47C10486008464068A3
:1041400040F4E81048600846006840F0807008605D
:1041500000BF4A48006810F0007FFAD04748406826
:1041600020F00300454948600846406840F00200DE
:10417000486000BF4148406800F00C000828F9D1B1
:104180000CBD10B53F48006840F470003D49086020
:104190003A48006840F00100384908600846406825
:1041A00039490840354948600846006837490840A1
:1041B000324908600846006820F4802008600846FC
:1041C000406820F4FE0048600846C06A20F00F00F6
:1041D000C8620846006B2E49084028490863002041
:1041E0008860FFF771FF4FF0006026498039086052
:1041F00010BD30B500210020002200231F4C646850
:1042000004F00C0121B1042906D0082925D107E0CA
:10421000204C214D2C6024E01E4C1F4D2C6020E0D2
:10422000164C646804F47010144C646804F4803212
:10423000022404EB904022B9184C4443164D2C60E4
:104240000AE00E4CE46A04F00F04631C114CB4FB4A
:10425000F3F44443104D2C6003E00E4C0E4D2C60E3
:1042600000BF00BF054C6468C4F303140C4D295D06
:10427000094C2468CC40084D2C6030BD0010024031
:104280000020024088ED00E00CC07FF8FFFFF6FE42
:10429000CCFC00FF00127A007000002000093D00F5
:1042A00074000020704770477047754600F028F88A
:1042B000AE4605006946534620F00700854618B013
:1042C00020B5FBF7BFFFBDE820404FF000064FF0E0
:1042D00000074FF000084FF0000B21F00701AC463B
:1042E000ACE8C009ACE8C009ACE8C009ACE8C0095A
:1042F0008D4670470446AFF300802046FBF78DFFE4
:1043000000487047D800002001491820ABBEFEE7E6
:10431000260002007047000010B591EA030F48BF65
:1043200083F0004300F14481841A71EB030C05D241
:10433000121943EB0C03001B61EB0C01DFF824E1C5
:104340004FEA1154A4EB135C1EEA430F18BF9EEA18
:10435000445F73D023EA0E03DCF1200E21EA0451FE
:1043600043F4801332D322FA0CFE10EB0E0023FA32
:104370000CFE41EB0E01CCF1200E03FA0EFE10EB09
:104380000E0051F10001B1F5801FCCF1200E32D2A8
:1043900001EB045112FA0EF2BDE8104058BF70470D
:1043A000401C38BF5FEA420218BF7047002814BFA4
:1043B00020F0010041F100014FEA410313F5001F15
:1043C00038BF7047A1F1C04100F0E4B8012A43EBC7
:1043D0000302ACF1200CDCF11F0E32BF4FF0000ED7
:1043E00023FA0CF310EB030041EB0451B4EB115F23
:1043F000D0D0A1EB045101F5801149085FEA3000EB
:1044000001EB04510ED350F1000038BF12FA0EFE3A
:1044100008D1BDE81040C9E7401C38BF5FEA42023E
:10442000CAD1C3E7BDE810404FEA410313F5001FAE
:1044300038BF7047A1F1C04100F0ACB89EEA445FBC
:1044400008D011EA5E0FBDE8104004BF01F0004142
:1044500000207047BDE8104070B500F04DF800BF77
:1044600064FBBE3E0000E0FF491058BFC1F140416F
:104470005B1058BFC3F140438B42EFF3008070479D
:1044800051EA030C17D41CF5801F58BFBCF5801FE0
:1044900000F10680994218BF704708BF90427047EC
:1044A00007D711F5801F58BF13F5801F19D4994203
:1044B0007047894270471CF5801F08D5BCF5801FE6
:1044C000F7D58B4218BF704708BF824270474FF440
:1044D000001C1CEB410F38BF1CEB430F01D28B4279
:1044E000704770B500F008F8922449004FF0005171
:1044F0004FF08053FFF7B8BF0EF1020E2EF0030EFF
:104500005EF8046B364205D4012A43EB030515F52A
:10451000001F12D8012841EB010C1CF5001F0CD81C
:104520000ED14FEAD17C15F5001F0CEB4C0C0CF1B1
:10453000020C08BF4CEBD37C04E04FF0080C01E008
:104540004FEAD37C0CEB4C0526FA05F606F007067D
:10455000B6F1040C06D20EEB860CBDE870404CF0B0
:10456000010C6047DFE80CF0090B02024FF000413C
:104570004FF00000A1F5002170BD1946104601283A
:1045800051EB010418BFD4F5001484BF002001F0E2
:10459000004170BD0808A0F500114FEA31017047D5
:1045A00010B591EA030F48BF83F000433FF5BCAE5E
:1045B000841A71EB030C07D212198CF0004C43EBF8
:1045C0000C03001B61EB0C01DFF8A4E14FEA11546E
:1045D000A4EB135C1EEA430F18BF9EEA445F00F091
:1045E000B08023EA6E03524221EA0451C3EB6E030A
:1045F00038BF5B1EDCF1200E25D322FA0CFE10EB37
:104600000E0043FA0CFE41EB0E01CCF1200E03FA32
:104610000EFE10EB0E0051F10001CCF1200E29D45A
:1046200012FA0EF201EB0451BDE8104058BF70477A
:10463000401C1CBFB2F1004F704700280CBF491C42
:1046400020F00100704712EB020E43EB030218BF8B
:104650004FF0010E4EEA4202ACF1200CDCF11E0ECE
:1046600054D943FA0CFE10EB0E0051F1FF31CCF19E
:104670001E0ED5D50EF1010E12FA0EFE404141EB91
:10468000010101EB445C5FEA5C5C10D910EBDE7069
:1046900001EB045138BFBEF1004FBDE8104018BF18
:1046A000704700280CBF491C20F00100704730D231
:1046B0004FEAD42C11F5001124F400641BD0B1FA98
:1046C00081F20B3AA41AA41ED2F12003914030FAD1
:1046D00003F31943904001EBCC71002C01EB045122
:1046E000BDE81040A8BF704701F1C0414FF0000085
:1046F00001F000417047B0FA80F310FA03F100D1E5
:1047000010BDE41A173C4805C90AE4E701EB04515F
:1047100010BD491001EB0451BDE810404FEA3000D4
:1047200002E04FF0000170474A0008BF0042F8D095
:10473000B2F5001F28BF704701F000414FF00000A4
:1047400070479EEA445F07D011EA5E0FBDE8104053
:1047500004BF002100207047BDE8104070B5FFF78E
:10476000CBFE00BF40DFF63E83F0004110467047AD
:104770000000E0FF4FF04070E1EE100A70470000CB
:10478000A04700080000002084000000C4010008C9
:104790002448000884000020B4060000E00100085E
:1047A00000000000010203040102030406070809D7
:1047B0000000010002000400060008000A000C00CE
:1047C00010002000400080000001000000000000F8
:1047D00000000000000000000000000000002E406B
:1047E0000000000000002440333333333333E33F11
:1047F00000000000000000000000000000000000B9
:1048000000000000000000000000000000000000A8
:1048100000A24A040000000000000000010203049E
:044820000607080976
:0400000508000229C4
:00000001FF
