:020000040800F2
:10000000F807002029020008E55B0008E75B00080C
:10001000EB5B0008EF5B0008F35B000800000000EA
:10002000000000000000000000000000F75B000876
:10003000F95B000800000000FB5B0008FD5B0008A6
:10004000430200084302000843020008430200087C
:10005000430200084302000843020008430200086C
:10006000430200084302000843020008430200085C
:10007000430200084302000843020008430200084C
:10008000430200084302000843020008430200083C
:10009000430200084302000843020008430200082C
:1000A000430200084302000843020008430200081C
:1000B000FF5B0008A55E0008430200084302000839
:1000C00043020008430200084302000843020008FC
:1000D00043020008430200084302000843020008EC
:1000E00043020008430200084302000843020008DC
:1000F00043020008430200084302000843020008CC
:1001000000000000000000000000000043020008A2
:1001100043020008430200084302000843020008AB
:10012000430200084302000843020008430200089B
:100130004302000843020008000000000000000025
:1001400043020008430200084302000800000000C8
:10015000000000000000000000000000000000009F
:1001600000000000000000004302000843020008F5
:100170004302000800000000000000000000000032
:10018000000000004302000800F002F800F03CF814
:100190000AA090E8000C82448344AAF10107DA45E2
:1001A00001D100F031F8AFF2090EBAE80F0013F0F8
:1001B000010F18BFFB1A43F001031847606E0000DF
:1001C000806E0000103A24BF78C878C1FAD8520770
:1001D00024BF30C830C144BF04680C6070470000C1
:1001E0000023002400250026103A28BF78C1FBD840
:1001F000520728BF30C148BF0B6070471FB506F0DB
:10020000E7FE1FBD10B510BD06F069F81146FFF7F7
:10021000F5FF05F0A2FC06F087F803B4FFF7F2FF44
:1002200003BC06F08BF800000948804709480047E6
:10023000FEE7FEE7FEE7FEE7FEE7FEE7FEE7FEE796
:10024000FEE7FEE704480549054A064B70470000F3
:10025000B761000889010008F8010020F8070020B4
:10026000F8030020F80300201CB50446454951F866
:100270002400012101F0ECFB434830F81400009009
:1002800001208DF8040000208DF8060001208DF873
:10029000070003208DF805003C4951F82400694609
:1002A00000F031FF1CBD384931F81010374A52F8C0
:1002B000202091617047344931F81010334A52F8C8
:1002C000202011857047314951F82010898A2E4A23
:1002D00032F8102051402D4A52F820209182704768
:1002E00030B585B004460D46294951F82400012156
:1002F00001F0AEFB0121084601F0B7FB00208DF8AC
:1003000010008DF81300234830F8140003902249A0
:1003100051F8240003A900F0F6FE012D24D11F4A54
:10032000115D1F4A105D01F06FFC1E4830F814008B
:10033000019000208DF8080008208DF809000120A8
:100340008DF80A0001A800F081FD1748005D8DF8C6
:1003500000000F208DF801008DF8020001208DF8BB
:100360000300684600F081FF05B030BD10B50446BB
:10037000084A32F81410084A52F8240000F01FFF0F
:1003800010BD0000EC6F0008DC6F000800000020CA
:10039000107000080C700008200000201770000882
:1003A00016700008147000081870000810B5044694
:1003B000B4F1A04F02D0FA48844209D101210807C4
:1003C00001F06DFB00214FF0805001F068FB0EE062
:1003D000F448844202D0F448844208D101214807FD
:1003E00001F05DFB00214FF0005001F058FB10BD03
:1003F00010B502460020D068EC4B1840D1E900341B
:1004000023438C682343CC6823430C6923434C6902
:1004100023438C6923431843D060106B20F00F00F6
:100420000B7F5B1E1843106310BD0021016041600B
:100430008160C16001614161816101210177704783
:1004400010B50022C26C00220B7A5B1E0C6823439D
:100450004C682343CC6843EA04230C6943EA8433A1
:100460008C8A43EA04530C7E43EA8462C26410BD62
:1004700000210160416001210172C160016141619F
:100480008161704710B50022B0F1A04F02D0C44B7B
:10049000984205D1C64B1A68C64B02EA030203E034
:1004A000C54B1A68C34B1A40D1E9003423438C680A
:1004B0002343CC6843EA04330C7C43EA04231A4305
:1004C000B0F1A04F02D0B64B984202D1B84B1A609F
:1004D00001E0B94B1A6010BD0021016041608160EC
:1004E000C1600174704721B1826842F001028260EC
:1004F00003E0826842F0020282607047816841F046
:100500000041816070470146D1F8B4007047C0F8DF
:10051000B4107047826822F08042826082680A4389
:1005200082607047014600208A6812F0004F01D0B7
:10053000012000E000207047816841F002018160E5
:100540007047014600208A6812F0020F01D0012096
:1005500000E000207047826822F04052826021B1A2
:10056000826842F08052826003E0826842F000526A
:100570008260704710B53AB1D0F8B03001248C4099
:100580002343C0F8B03006E0D0F8B03001248C40EE
:10059000A343C0F8B03010BD21B1C26842F40012CC
:1005A000C26003E0C26822F40012C260704721B149
:1005B000C26842F48042C26003E0C26822F4804212
:1005C000C26070470A460021C16821F0E071114302
:1005D000C160704710B5036A784C23400362036A18
:1005E00043EA01430362036A6FF30B030362036A86
:1005F0001343036210BD436A23F47F034362436ADB
:1006000043EA01434362436A23F0FF034362436AC0
:10061000134343627047836A23F47F038362836AD0
:1006200043EA01438362836A23F0FF038362836AA0
:100630001343836270470A460021C16821F0F841E4
:1006400041EA8261C16070470A46002150F8A01F4C
:100650005B4B194001239340194303680B4340F857
:10066000A03970470A46002150F8A41F544B194086
:1006700001239340194303680B4340F8A4397047A2
:10068000B0F1A04F02D0464A904212D141B1484A3F
:10069000126842F400024FF0A043C3F8082316E0AA
:1006A000434A126822F400024FF0A043C3F8082323
:1006B0000DE031B1404A126842F400023E4B1A602C
:1006C00005E03D4A126822F400023B4B1A60704775
:1006D000B0F1A04F02D0324A904212D141B1344A17
:1006E000126842F480024FF0A043C3F8082316E0DA
:1006F0002F4A126822F480024FF0A043C3F8082367
:100700000DE031B12C4A126842F480022A4B1A6083
:1007100005E0294A126822F48002274B1A607047CC
:10072000B0F1A04F02D01E4A904212D141B1204AEE
:10073000126842F080724FF0A043C3F8082316E01D
:100740001B4A126822F080724FF0A043C3F80823BE
:100750000DE031B1184A126842F08072164B1A60EF
:1007600005E0154A126822F08072134B1A60704738
:10077000F0B50C461D4600BF00BF052A22DA016B0A
:1007800002EB420677001F2606FA07F3994302EBB5
:100790004206760004FA06F3194301634FE00000B5
:1007A00000010050000400500005005007C0FFFD8C
:1007B00008030050E010FCFF08070050FFFF00F0A6
:1007C0000100F8FF0A2A11DA416B561F06EB4606B4
:1007D00077001F2606FA07F39943561F06EB4606D5
:1007E000760004FA06F31943416328E00F2A13DA6E
:1007F000816BA2F10A0606EB460677001F2606FA71
:1008000007F39943A2F10A0606EB4606760004FABE
:1008100006F31943816312E0C16BA2F10F0606EBE8
:10082000460677001F2606FA07F39943A2F10F0642
:1008300006EB4606760004FA06F31943C163092C59
:1008400014DD8169A4F10A0606EB4607072606FABD
:1008500007F386699E4386618669A4F10A0707EB60
:10086000470705FA07F73E43866110E04169661EB7
:1008700006EB4607382606FA07F346699E434661AB
:10088000466904EB440705FA07F73E434661F0BDAD
:10089000026B22F00F020263026B4B1E1A430263CB
:1008A000704710B5C36823F47C63C360C36842EA31
:1008B00001042343C36010BD816841F004018160DD
:1008C0007047014600208A6812F0040F01D0012011
:1008D00000E000207047816841F01001816070479E
:1008E00010B50A4600210023C16821F46021531E7F
:1008F00041EA4341C16010BD21B1C26842F4803277
:10090000C26003E0C26822F48032C26070470146D0
:10091000086C80B2704701460020B1F1A04F02D0B0
:10092000B14A914202D1B14A106801E0B04A106860
:100930007047036E23F0F8430366036E43EA816356
:100940000366036E6FF30B030366036E13430366C4
:100950007047436E23F0F8434366436E43EA816376
:100960004366436E6FF30B034366436E1343436664
:100970007047836E23F0F8438366836E43EA816396
:100980008366836E6FF30B038366836E1343836604
:100990007047C36E23F0F843C366C36E43EA8163B6
:1009A000C366C36E6FF30B03C366C36E1343C366A4
:1009B000704721B1026E42F00042026603E0026E0F
:1009C00022F000420266704721B1426E42F00042BE
:1009D000426603E0426E22F000424266704721B157
:1009E000826E42F00042826603E0826E22F0004294
:1009F0008266704721B1C26E42F00042C26603E0D7
:100A0000C26E22F00042C266704721B1C26842F055
:100A10000102C26003E0C26822F00102C2607047B6
:100A2000C26822F00202C260C2680A43C260704714
:100A3000F0B50446154600200022092911DDA06901
:100A4000A1F10A0606EB4607072606FA07F29043CD
:100A5000A1F10A0606EB460603FA06F21043A0616E
:100A60000CE0606901EB4107072606FA07F29043A4
:100A700001EB410603FA06F210436061E06C6E1E62
:100A800006EB460677004FF4F85606FA07F2904355
:100A90006E1E06EB4606760001FA06F21043E0648D
:100AA000F0BD0A460021C16C21F00301531E194319
:100AB000C164704710B5C36C23F0FC03C364C36CFE
:100AC00041EA02042343C36410BD816841F0080178
:100AD00081607047816841F0200181607047014664
:100AE00000208A6812F0080F01D0012000E00020E9
:100AF000704721B1C26842F00072C26003E0C26870
:100B000022F00072C260704721B1C26842F48012C4
:100B1000C26003E0C26822F48012C260704708B568
:100B2000024600200090009201F18000009B1844D2
:100B300000900098006880B208BD1AB143680B436A
:100B4000436002E043688B434360704702460020E5
:100B500013680B4201D0012000E0002070470160C3
:100B6000704710B5024600230020B2F1A04F02D01A
:100B70001D4CA24202D11F4C236802E01C4C0C3CCD
:100B800023680B4201D0012000E0002010BDB0F12D
:100B9000A04F02D0144A904208D1164A126842EA85
:100BA00001024FF0A043C3F8002306E0104A0C3ABC
:100BB00012680A430E4B0C3B1A60704730B5024670
:100BC00000200023002415680D40ABB255680D408D
:100BD000ACB213B10CB1012000E0002030BD0268BE
:100BE0000A43026070470000000100500C030050EF
:100BF0000C0700500003005010B50121480700F019
:100C000068FF00214FF0005000F063FF10BD30B5C9
:100C1000002200237B4C226840F6FE748440A243ED
:100C2000D1E900452C438D682C43CD6844EA050387
:100C300003FA00F42243734C226030BD00210160AE
:100C400041608160C160704739B16E4A126801230A
:100C500083401A436B4B1A6006E06A4A126801230C
:100C600083409A43674B1A60704710B551B1654A8B
:100C7000121D126804090123A3401A43614B1B1D76
:100C80001A6009E05F4A121D126804090123A3409B
:100C90009A435C4B1B1D1A6010BD40B15949091D98
:100CA000096841F00301574A121D116007E05549D8
:100CB000091D096821F00301524A121D1160704795
:100CC00010B53AB14F4B1B6801FA00F423434D4C69
:100CD000236006E04B4B1B6801FA00F4A343494C28
:100CE000236010BD08B500220092464A009200F130
:100CF0000802009B1A440092009A116008BD08B5D2
:100D0000002200923F4A009200F11402009B1A4414
:100D10000092009A116008BD30B500240023082815
:100D200002D142EA012401E042EA0144354B00F1DC
:100D300020052B441C6030BD08B501460020009002
:100D4000304800902C2000EB9100009A1044009055
:100D50000098006880B208BD41B12A4A12684FF479
:100D6000805383401A43274B1A6007E0254A1268D4
:100D70004FF4805383409A43224B1A60704710B55A
:100D80003AB1204B1B6801FA00F423431D4C236049
:100D900006E01C4B1B6801FA00F4A343194C2360C6
:100DA00010BD10B502460020164B34331B6801FA03
:100DB00002F4234201D0012000E0002010BD01FA1E
:100DC00000F2104B34331A60704730B502460020F1
:100DD00000230C4C246801FA02F504EA0503094CCF
:100DE0003434246801FA02F52C4202D00BB1012000
:100DF00000E0002030BD01FA00F2024B34331A60EB
:100E000070470000007400404FF0FC5096490860A5
:100E10000020091D0860091D0860091D0860091DE2
:100E200008606FF0FC50091D08600C208E492031CD
:100E300008600020091D0860091D0860091D086080
:100E4000091D08600320091D0860704710B50021C6
:100E500085498279002A7DD0026852090B4603EB4E
:100E600042121268037803F01F040123A3409A433F
:100E700003685B090C4604EB43131A6002685209CD
:100E80000B1D03EB42121268037803F01F040123C9
:100E9000A3409A4303685B090C1D04EB43131A60DB
:100EA00003790268520903EB421211440A6803787D
:100EB00003F01F040123A3401A430A606A49026831
:100EC0005209694B083303EB42121268037803F0AE
:100ED0001F040123A3409A4303685B09624C083452
:100EE00004EB43131A6002685209231D03EB4212FC
:100EF0001268037803F01F040123A3409A43036898
:100F00005B09594C0C3404EB43131A604279102AE4
:100F100028D102685209231F03EB4212126803789A
:100F200003F01F040123A3401A4303685B094E4CDE
:100F3000083404EB43131A6002685209231D03EBC3
:100F400042121268037803F01F040123A3401A43DE
:100F5000036800E015E05B09434C0C3404EB4313D9
:100F60001A601CE043790268520903EB42121144F3
:100F70000A68037803F01F040123A3401A430A60A0
:100F80000DE003790268520903EB421211440A682A
:100F9000037803F01F040123A3409A430A6010BDA5
:100FA00000210160017110214171002181717047A0
:100FB00041092D4A103202EB4111096800F01F036C
:100FC00001229A4011434209274B103303EB42128E
:100FD0001160704710B5014600204A09224B1433B6
:100FE00003EB4212126801F01F040123A3401A42CE
:100FF00001D0012000E0002010BD00F01F020121FF
:1010000091404209184B143303EB421211607047B0
:1010100030B50146002000224B09134C04EB43136A
:101020001B6801F01F050124AC4003EA04024B09D0
:101030000D4C143404EB43131B6801F01F0501240D
:10104000AC40234202D00AB1012000E0002030BDB4
:1010500000F01F02012191404209034B143303EBBE
:1010600042121160704700000004014010B50446B0
:10107000B4F1904F09D10121480400F010FD002186
:101080004FF4003000F00BFD3CE07048844208D182
:101090000121000200F003FD0021200200F0FFFC0E
:1010A00030E06B48844208D10121000200F0F7FCD7
:1010B0000021200200F0F3FC24E06648844209D1BC
:1010C0000121080500F0EBFC00214FF4801000F036
:1010D000E6FC17E06048844208D10121400200F09C
:1010E000DEFC0021600200F0DAFC0BE05B48844289
:1010F00008D10121880500F0D2FC00214FF48000C6
:1011000000F0CDFC10BDF0B50A46002100230024FC
:1011100000BF3DE0012505FA01F3156805EA030467
:101120009C4234D11579012D02D01579022D16D1AA
:1011300085684F000326BE40B543856055794E0053
:10114000B540866835438560868801258D40AE436D
:101150008680868895798D40ADB22E43868005685D
:101160004F000326BE40B543056015794E00B540DB
:10117000066835430560C5684F000326BE40B54389
:10118000C560D5794E00B540C6683543C560491C79
:101190001029BFD3F0BD4FF6FF710160002101712E
:1011A0000121417100218171C17170474FF480327A
:1011B0000A43C261C161C261C269C2697047024625
:1011C0000020138A0B4201D0012000E0002070476C
:1011D0000146088A704702460020938A0B4201D0DC
:1011E000012000E0002070470146888A7047816135
:1011F0007047018570470AB1816100E00185704741
:1012000081827047F0B5002300244D07ED0E02FAED
:1012100005F3CE1000F1200555F826504E07F70EC5
:101220000F26BE40B543CF1000F1200646F82750E8
:10123000CE1000F1200555F8265045EA0304CE10E3
:1012400000F1200545F82640F0BD000000040048EC
:1012500000080048000C0048001000480014004836
:1012600031490143314A1160704770B500210023B4
:101270000F22C4780CB32D4C246804F4E064C4F548
:10128000E064210AC1F10403CA40447804FA03F17E
:101290008478144021430901254C0678A15504782F
:1012A00004F01F050124AC4005786D114FF0E026D5
:1012B00006EB8505C5F8004109E0047804F01F0538
:1012C0000124AC401B4D0678761145F8264070BDD0
:1012D000194A0A400243154B1B1F1A60704739B167
:1012E000124A121D12680243104B1B1D1A6006E0C1
:1012F0000E4A121D126882430C4B1B1D1A60704768
:10130000042808D14FF0E021096941F004014FF0B1
:10131000E022116107E04FF0E021096921F00401AA
:101320004FF0E022116170470000FA050CED00E07B
:1013300000E400E080E100E080FFFF1FFD4800685E
:1013400040F00100FB49086008464068FA4908403F
:10135000F849486008460068F8490840F5490860BF
:101360000846006820F4802008600846406820F4A1
:10137000FE0048600846C06A6FF30D00C862084668
:10138000006BEF490840EB49086300208860704714
:101390000021E84A917011468870704710B50246E6
:1013A000002100230020511111B9E24C23680BE009
:1013B000012902D1DF4C236A06E0042902D1DD4C69
:1013C000636801E0DB4C636A02F01F0101248C407A
:1013D0001C4201D0012000E0002010BD38B50020E3
:1013E00000900024002500BF1120FFF7D7FF05461D
:1013F0000098401C00900098B0F5A06F01D0002D1F
:10140000F2D01120FFF7CAFF08B1012400E0002448
:10141000204638BD01460020C64A106820F0F8007A
:1014200040EAC10010607047C64908607047C14972
:10143000096A21F00101BF4A11621146096A21F0CF
:10144000040111621146096A014311627047B949EA
:10145000096A21F01801B74A11621146096A01436D
:1014600011627047B84908607047B24A526822F466
:101470007412B04B5A601A46526840EA01031A438C
:10148000AC4B5A607047AF49086670470146002070
:10149000A84AD06A20F00F000843D0627047A949DB
:1014A000C8647047A349C871704701460020A14A2B
:1014B000506820F003000843506070479D48406822
:1014C00000F00C007047014600209A4A506820F056
:1014D000F00008435060704701460020954A50686C
:1014E00020F4E06008435060704701460020914AB4
:1014F000506820F4605040EAC100506070472DE908
:10150000F0410021002400278C4600230022002502
:101510000026DFF82082D8F8048008F00C0121B101
:10152000042907D0082930D109E0DFF82082C0F86B
:1015300000802FE0DFF81482C0F800802AE0DFF896
:10154000F481D8F8048008F47014DFF8E881D8F842
:10155000048008F480374FF0020808EB944427B960
:10156000DFF8EC8104FB08F20DE0DFF8C881D8F861
:101570002C8008F00F0808F1010CDFF8D081B8FBCF
:10158000FCF808FB04F2026004E0DFF8C081C0F858
:10159000008000BF00BFDFF89C81D8F8048008F00D
:1015A000F0010909DFF8AC8118F80160D0F800807B
:1015B00028FA06F8C0F80480DFF87881D8F80480AB
:1015C00008F4E061090ADFF88C8118F80130D0F8DE
:1015D000048028FA03F8C0F80880DFF85881D8F8AA
:1015E000048008F46051C90ADFF8688118F80150D6
:1015F000D0F8048028FA05F8C0F80C80DFF83481B0
:10160000D8F82C8008F4F8710909DFF84C8138F813
:10161000113013F0100F04D0B2FBF3F8C0F81080B3
:1016200003E0D0F80080C0F81080DFF80881D8F817
:101630002C8008F47851490ADFF81C8138F8113001
:1016400013F0100F04D0B2FBF3F8C0F8148003E0DD
:10165000D0F80080C0F81480DFF8D880D8F8308047
:1016600008F01008B8F1100F04D0DFF8E080C0F8DF
:10167000188003E0D0F80080C0F81880DFF8B4804C
:10168000D8F8308008F02008B8F1200F04D0DFF837
:10169000BC80C0F81C8003E0D0F80080C0F81C803B
:1016A000DFF89080D8F8308008F48078B8F5807F33
:1016B0000AD1D0F80080904506D1B54204D14FEA56
:1016C0004208C0F8208003E0D0F80C80C0F82080E9
:1016D000DFF86080D8F8308008F40078B8F5007F33
:1016E0000AD1D0F80080904506D1B54204D14FEA26
:1016F0004208C0F8248003E0D0F80C80C0F82480B1
:10170000DFF83080D8F8308018F0030F04D1D0F81B
:101710000C80C0F828803CE0DFF81880D8F83080D2
:1017200008F00308B8F1010F18D1D0F80080C0F814
:1017300028802EE00010024000C0FFF8FFFFF6FEF8
:10174000CCFC000F000042428004424200127A00AA
:1017500000093D002400002034000020DFF8D08381
:10176000D8F8308008F00308B8F1020F04D14FF424
:101770000048C0F828800CE0DFF8B483D8F8308047
:1017800008F00308B8F1030F03D1DFF8A883C0F80D
:101790002880DFF89C83D8F8308018F4403F04D1CB
:1017A000D0F80880C0F82C8028E0DFF88483D8F8CF
:1017B000308008F44038B8F5803F04D1D0F800807C
:1017C000C0F82C801AE0DFF86883D8F8308008F47D
:1017D0004038B8F5003F04D14FF40048C0F82C80E1
:1017E0000CE0DFF84C83D8F8308008F44038B8F5C6
:1017F000403F03D1DFF83C83C0F82C80DFF8308312
:10180000D8F8308018F4402F04D1D0F80880C0F800
:10181000308028E0DFF81883D8F8308008F44028BA
:10182000B8F5802F04D1D0F80080C0F830801AE0DD
:10183000DFF8FC82D8F8308008F44028B8F5002F93
:1018400004D14FF40048C0F830800CE0DFF8E082AB
:10185000D8F8308008F44028B8F5402F03D1DFF8DD
:10186000D482C0F83080DFF8C882D8F8308018F40D
:10187000401F04D1D0F80880C0F8348028E0DFF899
:10188000B082D8F8308008F44018B8F5801F04D131
:10189000D0F80080C0F834801AE0DFF89482D8F8DD
:1018A000308008F44018B8F5001F04D14FF4004808
:1018B000C0F834800CE0DFF87882D8F8308008F483
:1018C0004018B8F5401F03D1DFF86882C0F83480B3
:1018D000DFF85C82D8F8308018F4400F04D1D0F8DB
:1018E0000880C0F8388028E0DFF84482D8F83080DB
:1018F00008F44008B8F5800F04D1D0F80080C0F893
:1019000038801AE0DFF82882D8F8308008F44008E0
:10191000B8F5000F04D14FF40048C0F838800CE04F
:10192000DFF80C82D8F8308008F44008B8F5400F92
:1019300003D1DFF80082C0F83880BDE8F0810021D3
:10194000010F31B17A4AD26A22F47852784BDA62C6
:1019500005E0774AD26A22F4F872754BDA62744A6B
:10196000D26A0243724BDA6270470021010F31B133
:101970006F4A126B22F020026D4B1A6305E06C4A2D
:10198000126B22F010026A4B1A63694A126B02430F
:10199000674B1A6370470021010F31B1644A126B23
:1019A00022F40072624B1A6305E0614A126B22F462
:1019B00080725F4B1A635E4A126B02435C4B1A6380
:1019C00070470021010F062927D2DFE801F0260326
:1019D0000A11181F564A126B22F00302544B1A6365
:1019E0001CE0534A126B22F44032514B1A6315E04B
:1019F0004F4A126B22F440224D4B1A630EE04C4AC0
:101A0000126B22F440124A4B1A6307E0484A126BE9
:101A100022F44002464B1A6300E000BF00BF444A74
:101A2000126B0243424B1A63704743490860704788
:101A30003F49096A01433E4A116270473F490860C5
:101A400070473F49086070473D49091D086070476D
:101A500029B1374A52690243354B5A6104E0344A8E
:101A600052698243324B5A61704729B1304A9269B8
:101A700002432F4B9A6104E02D4A926982432C4B1A
:101A80009A61704729B12A4AD2690243284BDA6128
:101A900004E0274AD2698243254BDA61704729B1B5
:101AA000234A926A0243224B9A6204E0204A926AD5
:101AB00082431F4B9A62704729B11D4AD268024384
:101AC0001B4BDA6004E01A4AD2688243184BDA6092
:101AD000704729B1164A12690243154B1A6104E096
:101AE000134A12698243124B1A61704729B1104A96
:101AF000527A02430E4B5A7204E00D4A527A8243E4
:101B00000B4B5A7270470A48406A40F0807008498F
:101B10004862704701460020054A92680A4201D097
:101B2000012000E0002070470149887270470000E2
:101B30000010024000127A00D8004242DC0042420B
:101B40003C0442425148006800F003004F490860DD
:101B50000846006840F0F84008600020486088604F
:101B600000214A48C1600161416100204749886104
:101B7000704701460020454A106820F003000843E2
:101B80001060704729B1414A126802433F4B1A6006
:101B900004E03E4A126882433C4B1A60704729B108
:101BA0003A4A12680243394B1A6004E0374A126815
:101BB0008243364B1A6070473449096821F440016A
:101BC000324A11601146096801431160704730497B
:101BD0004861704729B12D4A126802432B4B1A60A5
:101BE00004E02A4A12688243284B1A60704729B1E0
:101BF000264A12680243254B1A6004E0234A126801
:101C00008243224B1A60704730B500228B071C0FAD
:101C10000F2303FA04F21D4B08338C1053F82430C1
:101C200093431A4C08348D1044F8253023468C1009
:101C300053F824308C07240F00FA04F42343134C88
:101C400008348D1044F8253030BD104989690143AE
:101C50000E4A9161704701200E49086070470B4998
:101C600049680143094A5160704701460020074A0C
:101C7000926912F4807F01D0012000E000207047BB
:101C8000024989690143014A91617047000001409E
:101C9000000020421003204210B50446FD48844253
:101CA00008D10121C014FFF707FF0021E014FFF75E
:101CB00003FF6DE0B4F1804F08D101210846FFF722
:101CC00008FF00210120FFF704FF61E0F248844291
:101CD00008D101210220FFF7FCFE00210220FFF7BE
:101CE000F8FE55E0ED48844208D101210420FFF7B9
:101CF000F0FE00210420FFF7ECFE49E0E8488442B2
:101D000008D101211020FFF7E4FE00211020FFF789
:101D1000E0FE3DE0E348844208D101212020FFF7A6
:101D2000D8FE00212020FFF7D4FE31E0DE488442B7
:101D300008D101214014FFF7BFFE00216014FFF716
:101D4000BBFE25E0D948844209D101210804FFF7F0
:101D5000B3FE00214FF48030FFF7AEFE18E0D44808
:101D6000844209D101214804FFF7A6FE00214FF467
:101D70000030FFF7A1FE0BE0CE48844208D10121DC
:101D80008804FFF799FE00214FF48020FFF794FEAE
:101D900010BD00220288BF4B98420BD0C24B984224
:101DA00008D0B0F1804F05D0BB4B984202D0BB4B5E
:101DB000984204D14FF68F731A404B881A43B84BA0
:101DC000984207D0B74B984204D04FF6FF431A40D1
:101DD0000B891A4302804B68C3620B880385AD4BA5
:101DE00098420BD0B04B984208D0B04B984205D0E7
:101DF000AF4B984202D0AF4B984201D18B7A038609
:101E00000123436170474FF0FF31416000210180A1
:101E100001814180817270470185426170470A46A5
:101E2000002101884FF68F731940114301807047DC
:101E300041627047C16270470146486A7047014677
:101E4000088D704721B1028842F00202028004E04E
:101E500002884FF6FD731A400280704721B1028854
:101E600042F00402028004E002884FF6FB731A403D
:101E70000280704721B1028842F40062028004E0CF
:101E800002884FF2FF731A400280704721B1028826
:101E900042F08002028004E002884FF67F731A400D
:101EA0000280704702884FF6F7731A40028002885A
:101EB0000A430280704702884FF6FF431A400280AF
:101EC00002880A430280704721B1028842F0010271
:101ED000028004E002884FF6FE731A4002807047C9
:101EE00030B5002400220023056A25F001050562B3
:101EF000026A43688469704D2C4024F003040D6825
:101F00002C4322F002028D892A438D882A43614D99
:101F1000A8420BD0644DA84208D0644DA84205D019
:101F2000634DA84202D0634DA8420FD122F00802AF
:101F3000CD892A4322F00402CD882A4323F48073FA
:101F400023F400730D8A2B434D8A2B434360846135
:101F50008D684563026230BD30B500240022002345
:101F6000056A25F010050562026A43688469534DCD
:101F70002C4024F440740D6844EA052422F0200229
:101F80008D8942EA05128D8842EA0512414DA84228
:101F900002D0454DA84213D122F08002CD8942EAF9
:101FA000051222F04002CD8842EA051223F4806334
:101FB00023F400630D8A43EA85034D8A43EA8503CF
:101FC000436084618D688563026230BD30B5002452
:101FD00000220023056A25F480750562026A4368C1
:101FE000C46924F0700424F003040D682C4322F427
:101FF00000728D8942EA05228D8842EA0522254D2C
:10200000A84202D0284DA84213D122F40062CD8903
:1020100042EA052222F48062CD8842EA052223F4B6
:10202000805323F400530D8A43EA05134D8A43EA93
:1020300005134360C4618D68C563026230BD30B56D
:10204000002200230024056A25F480550562036AF6
:102050004468C26922F4E04222F440720D6842EA08
:10206000052223F400538D8943EA05338D8843EA22
:102070000533084DA84202D00B4DA84204D124F4E8
:1020800080440D8A44EA85144460C2618D68056409
:10209000036230BD002C01400004004000080040F5
:1020A0000010004000140040003401400040014096
:1020B00000440140004801408FFFFEFFFF8FFFFEFC
:1020C00030B5002300220024056A25F4803505621E
:1020D000026A4468436D23F070030D682B4322F4B9
:1020E00000328D8942EA05428D8842EA0542FE4D62
:1020F000A84202D0FD4DA84204D124F480340D8AB8
:1021000044EA0544446043658D688565026230BDDC
:1021100070B5002300220024056A25F480150562AD
:10212000026A4468436D23F4E0430D6843EA0523E3
:1021300022F400128D8942EA05528D8842EA055246
:10214000E94DA84202D0E94DA84207D124F4003459
:102150000D8A4FF6FF7606EA85452C4344604365B9
:102160008D68C565026270BD21B1826D42F000527A
:10217000826503E0826D22F000528265704721B1D2
:10218000826D42F08042826503E0826D22F08042DF
:102190008265704721B1826D42F00042826503E0A2
:1021A000826D22F0004282657047002101608180CB
:1021B000C18081608181C18101824182704770B597
:1021C0000346002000241846183001258D40ACB28B
:1021D0001D6AE643B6B235401D6209B1082909D12E
:1021E00000EB61000568C24E354005600568154387
:1021F00005600DE00D1F00EB55000568BD4E354034
:10220000056005684FF6FF7606EA0226354305604D
:1022100070BD4163704781637047C163704701645B
:10222000704781657047C16570470A460021816922
:10223000AF4B19401143816170470A460021816903
:10224000AC4B194041EA0221816170470A460021E6
:10225000C16921F070011143C16170470A46002134
:10226000C16921F4E04141EA0221C16170470A4697
:102270000021416D21F070011143416570470A460C
:102280000021416D21F4E04141EA0221416570479E
:102290000A460021816921F00801114381617047DC
:1022A0000A460021816921F4006141EA022181612D
:1022B00070470A460021C16921F008011143C1613C
:1022C00070470A460021C16921F4006141EA0221F8
:1022D000C16170470A460021416D21F00801114398
:1022E000416570470A460021416D21F4006141EAD1
:1022F0000221416570470A460021816921F00401ED
:102300001143816170470A460021816921F480618F
:1023100041EA0221816170470A460021C16921F02A
:1023200004011143C16170470A460021C16921F4CB
:10233000806141EA0221C16170470A46002181693A
:1023400021F080011143816170470A4600218169B3
:1023500021F4004141EA0221816170470A460021CF
:10236000C16921F080011143C16170470A46002113
:10237000C16921F4004141EA0221C16170470A4666
:102380000021416D21F080011143416570470A46EB
:102390000021416D21F4004141EA0221416570476D
:1023A00082684FF6F7731A40826082680A4382603F
:1023B00070470A460021016A21F0020111430162BF
:1023C00070470A460021016A21F0080111430162A9
:1023D00070470A460021016A21F0200141EA0211FA
:1023E000016270470A460021016A21F0800141EA3A
:1023F0000211016270470A460021016A21F400714E
:1024000041EA0221016270470A460021016A21F473
:10241000006141EA0221016270470A460021016A17
:1024200021F4005141EA0231016270470A4600215D
:10243000016A21F4003141EA0241016270470A4613
:102440000021016A21F4001141EA02510162704742
:1024500030B50023012404FA01F3046A9C430462AA
:10246000046A02FA01F52C43046230BD30B5002342
:10247000042404FA01F3046A9C430462046A02FA25
:1024800001F52C43046230BDC2694FF2FF331A409C
:10249000C261C2694FF6FF7303EA01231A43C261A6
:1024A0007047F0B50C461546002100220026076A49
:1024B0004EF6FF7C07EA0C070762C769B9B2076AE4
:1024C000BAB24FF6FF7707EA043640F6FF473940C5
:1024D0004FF6FF7707EA052739434FF6FF7707EAFC
:1024E0000337394308E00000002C0140003401406C
:1024F0008FFFFEFFFF8FFFFE45F6FF773A4046F461
:1025000080573A43C1610262F0BDC2694FF6F3736E
:102510001A40C261C2690A43C2617047F0B50C46F5
:102520001546002100220026076A4FF6FF6C07EAD5
:102530000C070762C769B9B2076ABAB24FF6FF77EC
:1025400007EA04264FF60C7739404FF6FF7707EA83
:1025500003172F4339434FF2FF573A4046F4807731
:102560003A43C1610262F0BD826922F44062826135
:10257000826942EA012282617047F0B50C46154635
:10258000002100220026076A4FF6EF7C07EA0C07BD
:1025900007628169026A4FF6FF7707EA041621F4A1
:1025A000734141EA033141EA05214FF65F773A4032
:1025B00046F010073A4381610262F0BD826922F061
:1025C0000C02826182690A438261704770B50C46D1
:1025D000154600210022066A26F00106066281697E
:1025E000026A21F0F30145EA0316314322F00A02A0
:1025F00044F0010632438161026270BD70B5054648
:102600000C46208850B92389A28861882846FFF7A4
:10261000DDFFE1882846FFF7D1FF25E02088042868
:102620000AD12389A28861882846FFF7A6FFE1889E
:102630002846FFF799FF17E0208808280AD1238948
:10264000A28861882846FFF769FFE1882846FFF7DE
:102650005CFF09E02389A28861882846FFF721FFF3
:10266000E1882846FFF710FF70BD002101804180FE
:10267000012181800021C180018170472DE9F04155
:1026800005460C4600260127608808B9022600E0AE
:102690000026A088012801D1022700E00127208818
:1026A000A0B92389A28861882846FFF78FFFE188B7
:1026B0002846FFF783FF23893A4631462846FFF72D
:1026C0005CFFE1882846FFF74FFF13E02389A288CB
:1026D00061882846FFF751FFE1882846FFF744FF4D
:1026E00023893A4631462846FFF770FFE18828469D
:1026F000FFF764FFBDE8F0810146486B7047014673
:10270000886B70470146C86B70470146086C70477C
:102710000A884B881A438B881A43CB881A430B8943
:102720001A434B891A438B891A434264704710B588
:10273000436C23F472234364436C41EA0244234311
:10274000436410BD10B5436C23F03C734364436C89
:1027500041EA02542343436410BD21B1426C42F468
:102760008052426403E0426C22F48052426470471B
:1027700021B1426C42F08072426403E0426C22F06C
:102780008072426470470021018041808180C18055
:10279000018141818181704721B1426C42F4004244
:1027A000426403E0426CC2F30E024264704721B1FE
:1027B000426842F00402426004E042684FF6FB7354
:1027C0001A404260704721B1426842F00102426003
:1027D00004E042684FF6FE731A404260704710B53D
:1027E0001AB1C3680B43C36004E0C368CC43A4B20E
:1027F0002340C36010BD4161704702460020136949
:102800000B4201D0012000E000207047CA4392B281
:102810000261704730B5024600200023002415698C
:1028200005EA0103D56805EA010413B10CB10120E2
:1028300000E0002030BDCA4392B20261704741EA15
:102840000203A0F84830704710B51AB1C3680B43B3
:10285000C36004E0C368CC43A4B22340C36010BD8E
:1028600021B1426842F00802426004E042684FF63B
:10287000F7731A404260704781684FF6F872114052
:10288000816070470A460021836899B24FF68F73C2
:10289000194011438160704730B504460D46294602
:1028A0002046FFF7EFFFA06840F00700A06030BDB2
:1028B0002DE9F04104460D4616461F46602D06D10F
:1028C0003B46012231462046FFF757FE05E03B46D6
:1028D000012231462046FFF779FE29462046FFF7C0
:1028E000D1FFA06840F00700A060BDE8F08130B5DE
:1028F0000C4600218568A9B2C9B24FF6FF7505EAFA
:102900000325154325432943816030BD2DE9F0415E
:1029100005460E4617469846002443463A46314639
:102920002846FFF7E4FFA86884B24FF6F870044029
:1029300044F007044FF68F70044044F07004AC601C
:10294000BDE8F081F0B504460D4616461F463B46ED
:10295000324629462046FFF7CAFFA06840F480406F
:10296000A060F0BD42684FF68F731A404260426823
:102970000A4342607047426822F470024260426833
:102980000A43426070478268214B1A408260826825
:102990000A438260704782684FF67F731A408260F4
:1029A00082680A4382607047F0B50C4615461E46A1
:1029B0000021002200238768B9B28769BAB2076A8A
:1029C000BBB24FF6F877394021434FF6FC473A4007
:1029D00040F201173A434FF6DD773B404FF6FF7761
:1029E00007EA06172F433B43816082610362F0BD13
:1029F00021B1426842F08002426004E042684FF632
:102A00007F731A4042607047A0F850107047000072
:102A1000F8FFFEFF10B50446F948844209D10121B0
:102A20008803FFF749F800214FF48040FFF744F88E
:102A300032E0F448844209D101214804FFF749F803
:102A400000214FF40030FFF744F825E0EE488442BF
:102A500009D101218804FFF73CF800214FF48020C0
:102A6000FFF737F818E0E948844209D10121C8048A
:102A7000FFF72FF800214FF40020FFF72AF80BE0B2
:102A8000E348844208D101210805FFF722F800211C
:102A90004FF48010FFF71DF810BD2DE9F04190B004
:102AA00004460D460027B8460026206820F00100A5
:102AB0002060666826F44056A8680643666026686B
:102AC00041F20C608643E968686808432969084355
:102AD00006432660A66826F4407668690643A66029
:102AE00001A8FEF70CFDC648844202D1DDF82C8017
:102AF00013E0C448844202D1DDF830800DE0C248C2
:102B0000844202D1DDF8348007E0C048844202D11B
:102B1000DDF8388001E0DDF83C80206810F4004FDB
:102B20000CD04FEA48002968B0FBF1F74FEA4800A3
:102B30002968B0FBF1F201FB120607E02868B8FB38
:102B4000F0F72868B8FBF0F100FB11862868B6EBB7
:102B5000500F00D37F1C206810F4004F07D0C7F33C
:102B600042064FF6F07107EA010040EA0607A78126
:102B700010B0BDE8F0814FF41651016000214160B2
:102B80008160C1600C21016100214161704710B575
:102B90000022426822F47062D1E9003423438C6839
:102BA0002343CC6823431A43426010BD00210160D7
:102BB00041608160C160704721B1026842F001024A
:102BC000026003E0026822F00102026070471AB15D
:102BD00003680B43036002E003688B4303607047A4
:102BE00021B1026842F40042026003E0026822F46C
:102BF00000420260704721B1826842F40062826044
:102C000003E0826822F400628260704721B142686A
:102C100042F40022426003E0426822F40022426053
:102C2000704721B1426842F48022426003E042686A
:102C300022F48022426070471AB143680B4343601C
:102C400002E043688B434360704721B1426842F41D
:102C50000042426003E0426822F400424260704752
:102C600021B1426842F40002426003E0426822F46B
:102C7000000242607047426902F07F42426142694D
:102C80000A4342617047028A02F47F420282028A4A
:102C90000A430282704721B1026842F002020260D8
:102CA00003E0026822F0020202607047826822F4A8
:102CB0004012826082680A438260704721B1426894
:102CC00042F48012426003E0426822F480124260C3
:102CD0007047426822F4C002426042680A43426080
:102CE0007047C1F30802028570470146888CC0F323
:102CF00008007047426822F07F424260426842EA20
:102D000001624260704721B1026842F400520260E1
:102D100003E0026822F4005202607047026822F465
:102D20000062026002680A4302607047426822F053
:102D30001002426042680A4342607047426822F0D3
:102D40002002426042680A434260704721B14268F3
:102D500042F48042426003E0426822F480424260D2
:102D6000704721B1826842F00802826003E0826805
:102D700022F0080282607047028AD2B20282028A7E
:102D800042EA01220282704721B1826842F02002A9
:102D9000826003E0826822F020028260704721B1E5
:102DA000826842F01002826003E0826822F0100222
:102DB00082607047826822F460228260826842EA00
:102DC000414282607047426922F07F42426142691B
:102DD00042EA016242617047826822F00402826026
:102DE00082680A438260704721B1826842F0020221
:102DF000826003E0826822F0020282607047000075
:102E0000003801400044004000480040004C0040B1
:102E10000050004021B1826842F48042826003E0A9
:102E2000826822F4804282607047826822F4004205
:102E3000826082680A4382607047026822F078727A
:102E40000260026842EA415202607047026822F45E
:102E5000F8120260026842EA0142026070471AB149
:102E600083680B43836002E083688B438360704711
:102E7000826822F40052826082680A43826070474E
:102E8000F0B5034600240026002500201846C1F3B3
:102E90000724CEB2012707FA06F5022C01D1001D46
:102EA00002E0032C00D108301AB107682F430760F5
:102EB00002E00768AF430760F0BD1AB1038B0B4314
:102EC000038302E0038B8B4303837047826822F401
:102ED0008052826082680A43826070470246002006
:102EE000D3690B4201D0012000E00020704701624D
:102EF000704770B502460B460024002100250020D3
:102F0000C3F30725D9B2012606FA01F1012D02D13A
:102F10001668314006E0022D02D15668314001E0CA
:102F2000966831401C0C012606FA04F4D669344038
:102F300011B10CB1012000E0002070BD10B50022DD
:102F400000230A0C012404FA02F3036210BD0000FE
:102F500070B504460D4600BF8021D048FFF7BEFF84
:102F60000028F9D029462046FFF7BBFE70BD2DE9A9
:102F7000F04104460E46142700253CB9FE21C748FF
:102F8000FFF7E6FF8021C548FFF7E2FF012C07D1DC
:102F9000FE21C248FFF7DCFFC021C048FFF7D8FF81
:102FA000022C07D1FE21BD48FFF7D2FF9421BB4878
:102FB000FFF7CEFF032C07D1FE21B848FFF7C8FF6B
:102FC000D421B648FFF7C4FF05E0715DB348FFF7B1
:102FD000BFFF681CC5B2BD42F7DBBDE8F08110B58C
:102FE0002DED028BB0EE408AF0EE608A9FEDAC0BC7
:102FF00053EC102B51EC180B03F0CCFC03D1AAA01E
:10300000BDEC028B10BD9FEDAE0B53EC102B51ECC1
:10301000180B03F0BFFC01D1ABA0F1E79FEDB00BA3
:1030200053EC102B51EC180B03F0B4FC01D1AEA003
:10303000E6E79FEDB30B53EC102B51EC180B03F0AC
:10304000A9FC01D1B0A0DBE79FEDB50B53EC102B31
:1030500051EC180B03F09EFC01D1B3A0D0E79FED1B
:10306000B80B53EC102B51EC180B03F093FC01D16F
:10307000B5A0C5E79FEDBA0B53EC102B51EC180B24
:1030800003F088FC01D1B8A0BAE79FEDBD0B53EC6B
:10309000102B51EC180B03F07DFC01D1BAA0AFE767
:1030A0009FEDBF0B53EC102B51EC180B03F072FC8F
:1030B00001D1BDA0A4E79FEDC20B53EC102B51EC46
:1030C000180B03F067FC01D1BFA099E79FEDC40B7B
:1030D00053EC102B51EC180B03F05CFC01D1C2A097
:1030E0008EE79FEDC70B53EC102B51EC180B03F040
:1030F00051FC01D1C4A083E79FEDC90B53EC102B09
:1031000051EC180B03F046FC01D1C7A078E79FED06
:10311000CC0B53EC102B51EC180B03F03BFC01D102
:10312000C9A06DE79FEDCE0B53EC102B51EC180BA3
:1031300003F030FC01D1CCA062E79FEDD10B53EC42
:10314000102B51EC180B03F025FC01D1CEA057E752
:103150009FEDD30B53EC102B51EC180B03F01AFC22
:1031600001D1D1A04CE79FEDD60B53EC102B51ECC5
:10317000180B03F00FFC01D1D3A041E79FEDD80B52
:1031800053EC102B51EC180B03F004FC01D1D6A02A
:1031900036E79FEDDB0B53EC102B51EC180B03F0D3
:1031A000F9FB01D1D8A02BE79FEDDD0B53EC102BE1
:1031B00051EC180B03F0EEFB01D1DBA020E79FEDF3
:1031C000E00B53EC102B51EC180B03F0E3FB01D197
:1031D000DDA015E79FEDE20B53EC102B51EC180B23
:1031E00003F0D8FB01D1E0A00AE79FEDE50B53EC1B
:1031F000102B51EC180B03F0CDFB01D1E2A0FFE640
:103200009FEDE70B53EC102B51EC180B03F0C2FBB6
:1032100001D1E5A0F4E69FEDEA0B53EC102B51EC45
:10322000180B03F0B7FB01D1E7A0E9E69FEDEC0B2B
:1032300053EC102B51EC180B03F0ACFB01D1EAA0BE
:10324000DEE69FEDEF0B53EC102B51EC180B03F067
:10325000A1FB01D1ECA0D3E69FEDF10B53EC102BB9
:1032600051EC180B03F096FB01D1EFA0C8E69FEDDF
:10327000F40B53EC102B51EC180B03F08BFB01D12A
:10328000F1A0BDE69FEDF60B53EC102B51EC180BA3
:1032900003F080FB01D1F4A0B2E6F1E10038014077
:1032A00000000000000034C0202020202020202D1D
:1032B00032302E302020202020202020000000004E
:1032C00000000000008033C0202020202020202D7E
:1032D00031392E3520202020202020200000000021
:1032E00000000000000033C0202020202020202DDE
:1032F00031392E3020202020202020200000000006
:1033000000000000008032C0202020202020202D3E
:1033100031382E35202020202020202000000000E1
:1033200000000000000032C0202020202020202D9E
:1033300031382E30202020202020202000000000C6
:1033400000000000008031C0202020202020202DFF
:1033500031372E35202020202020202000000000A2
:1033600000000000000031C0202020202020202D5F
:1033700031372E3020202020202020200000000087
:1033800000000000008030C0202020202020202DC0
:1033900031362E3520202020202020200000000063
:1033A00000000000000030C0202020202020202D20
:1033B00031362E3020202020202020200000000048
:1033C0000000000000002FC0202020202020202D01
:1033D00031352E3520202020202020200000000024
:1033E0000000000000002EC0202020202020202DE2
:1033F00031352E3020202020202020200000000009
:103400000000000000002DC0202020202020202DC2
:1034100031342E35202020202020202000000000E4
:103420000000000000002CC0202020202020202DA3
:1034300031342E30202020202020202000000000C9
:103440000000000000002BC0202020202020202D84
:1034500031332E35202020202020202000000000A5
:103460000000000000002AC0202020202020202D65
:1034700031332E302020202020202020000000008A
:1034800000000000000029C0202020202020202D46
:1034900031322E3520202020202020200000000066
:1034A00000000000000028C0202020202020202D27
:1034B00031322E302020202020202020000000004B
:1034C00000000000000027C0202020202020202D08
:1034D00031312E3520202020202020200000000027
:1034E00000000000000026C0202020202020202DE9
:1034F00031312E302020202020202020000000000C
:1035000000000000000025C0202020202020202DC9
:1035100031302E35202020202020202000000000E7
:1035200000000000000024C0202020202020202DAA
:1035300031302E30202020202020202000000000CC
:1035400000000000000023C0202020202020202098
:103550002D392E35202020202020202000000000A2
:1035600000000000000022C0202020202020202079
:103570002D392E3020202020202020200000000087
:1035800000000000000021C020202020202020205A
:103590002D382E3520202020202020200000000063
:1035A00000000000000020C020202020202020203B
:1035B0002D382E3020202020202020200000000048
:1035C0000000000000001EC020202020202020201D
:1035D0002D372E3520202020202020200000000024
:1035E0000000000000001CC02020202020202020FF
:1035F0002D372E3020202020202020200000000009
:103600000000000000001AC02020202020202020E0
:103610002D362E35202020202020202000000000E4
:1036200000000000000018C02020202020202020C2
:103630002D362E30202020202020202000000000C9
:1036400000000000000016C02020202020202020A4
:103650002D352E35202020202020202000000000A5
:1036600000000000000014C0202020202020202086
:103670002D352E302020202020202020000000008A
:103680009FEDAF0B53EC102B51EC180B03F082F9AC
:1036900001D1ADA0B4E49FEDB20B53EC102B51EC73
:1036A000180B03F077F901D1AFA0A9E49FEDB40B9B
:1036B00053EC102B51EC180B03F06CF901D1B2A0B4
:1036C0009EE49FEDB70B53EC102B51EC180B03F05D
:1036D00061F901D1B4A093E49FEDB90B53EC102B29
:1036E00051EC180B03F056F901D1B7A088E49FED17
:1036F000BC0B53EC102B51EC180B03F04BF901D120
:10370000B9A07DE49FEDBE0B53EC102B51EC180BD0
:1037100003F040F901D1BCA072E49FEDC10B53EC62
:10372000102B51EC180B03F035F901D1BEA067E462
:103730009FEDC30B53EC102B51EC180B03F02AF93F
:1037400001D1C1A05CE49FEDC60B53EC102B51ECF2
:10375000180B03F01FF901D1C3A051E49FEDC80B72
:1037600053EC102B51EC180B03F014F901D1C6A047
:1037700046E49FEDCB0B53EC102B51EC180B03F0F0
:1037800009F901D1C8A03BE49FEDCD0B53EC102B00
:1037900051EC180B03F0FEF801D1CBA030E49FED03
:1037A000D00B53EC102B51EC180B03F0F3F801D1B4
:1037B000CDA025E49FEDD20B53EC102B51EC180B50
:1037C00003F0E8F801D1D0A01AE49FEDD50B53EC3B
:1037D000102B51EC180B03F0DDF801D1D2A00FE44F
:1037E0009FEDD70B53EC102B51EC180B03F0D2F8D4
:1037F00001D1D5A004E49FEDDA0B53EC102B51EC72
:10380000180B03F0C7F801D1D7A006E49FEDDC0B3D
:1038100053EC102B51EC180B03F0BCF801D1DAA0DB
:1038200006E49FEDDF0B53EC102B51EC180B03F06B
:10383000B1F801D1DCA006E49FEDE10B53EC102BB5
:1038400051EC180B03F0A6F801D1DFA006E49FEDC0
:10385000E40B53EC102B51EC180B03F09BF801D147
:10386000E1A006E49FEDE60B53EC102B51EC180B96
:1038700003F090F801D1E4A006E49FEDE90B53ECCE
:10388000102B51EC180B03F085F801D1E6A006E4EB
:103890009FEDEB0B53EC102B51EC180B03F07AF867
:1038A00001D1E9A006E49FEDEE0B53EC102B51EC97
:1038B000180B03F06FF801D1EBA006E49FEDF00BBD
:1038C00053EC102B51EC180B03F064F801D1EEA06F
:1038D00006E49FEDF30B53EC102B51EC180B03F0A7
:1038E00059F801D1F0A006E49FEDF50B53EC102B35
:1038F00051EC180B03F04EF801D1F3A006E49FED54
:10390000F80B53EC102B51EC180B03F043F801D1DA
:10391000F5A006E49FEDFA0B53EC102B51EC180BBD
:1039200003F038F801D1F8A006E49FEDFD0B53EC4D
:10393000102B51EC180B03F02DF800D1F4E1F5E158
:1039400000000000000012C02020202020202020A5
:103950002D342E35202020202020202000000000A3
:1039600000000000000010C0202020202020202087
:103970002D342E3020202020202020200000000088
:103980000000000000000CC020202020202020206B
:103990002D332E3520202020202020200000000064
:1039A00000000000000008C020202020202020204F
:1039B0002D332E3020202020202020200000000049
:1039C00000000000000004C0202020202020202033
:1039D0002D322E3520202020202020200000000025
:1039E00000000000000000C0202020202020202017
:1039F0002D322E302020202020202020000000000A
:103A0000000000000000F8BF2020202020202020FF
:103A10002D312E35202020202020202000000000E5
:103A2000000000000000F0BF2020202020202020E7
:103A30002D312E30202020202020202000000000CA
:103A4000000000000000E0BF2020202020202020D7
:103A50002D302E35202020202020202000000000A6
:103A60000000000000000000202020202020202056
:103A700020302E3020202020202020200000000098
:103A80009A9999999999B93F2020202020202020A7
:103A900020302E3120202020202020200000000077
:103AA000333333333333C33F2020202020202020E2
:103AB00020302E3135202020202020200000000042
:103AC0009A9999999999C93F202020202020202057
:103AD00020302E3220202020202020200000000036
:103AE000000000000000D03F2020202020202020C7
:103AF00020302E3235202020202020200000000001
:103B0000333333333333D33F202020202020202071
:103B100020302E33202020202020202000000000F4
:103B2000666666666666D63F20202020202020201C
:103B300020302E33352020202020202000000000BF
:103B40009A9999999999D93F2020202020202020C6
:103B500020302E34202020202020202000000000B3
:103B6000CDCCCCCCCCCCDC3F202020202020202071
:103B700020302E343520202020202020000000007E
:103B8000000000000000E03F202020202020202016
:103B900020302E3520202020202020200000000072
:103BA0009A9999999999E13F20202020202020205E
:103BB00020302E353520202020202020000000003D
:103BC000333333333333E33F2020202020202020A1
:103BD00020302E3620202020202020200000000031
:103BE000CDCCCCCCCCCCE43F2020202020202020E9
:103BF00020302E36352020202020202000000000FC
:103C0000666666666666E63F20202020202020202B
:103C100020302E37202020202020202000000000EF
:103C2000000000000000E83F20202020202020206D
:103C300020302E37352020202020202000000000BA
:103C40009A9999999999E93F2020202020202020B5
:103C500020302E38202020202020202000000000AE
:103C6000333333333333EB3F2020202020202020F8
:103C700020302E3835202020202020200000000079
:103C8000CDCCCCCCCCCCEC3F202020202020202040
:103C900020302E392020202020202020000000006D
:103CA000666666666666EE3F202020202020202083
:103CB00020302E3935202020202020200000000038
:103CC000000000000000F03F2020202020202020C5
:103CD00020312E3020202020202020200000000035
:103CE000CDCCCCCCCCCCF03F2020202020202020DC
:103CF00020312E3035202020202020200000000000
:103D00009A9999999999F13F2020202020202020EC
:103D100020312E31202020202020202000000000F3
:103D2000666666666666F23FABA0B3E49FEDB00BD5
:103D300053EC102B51EC180B02F02CFE01D1AEA06D
:103D4000A8E49FEDB30B53EC102B51EC180B02F0D1
:103D500021FE01D1B0A09DE49FEDB50B53EC102BDB
:103D600051EC180B02F016FE01D1B3A092E49FEDC6
:103D7000B80B53EC102B51EC180B02F00BFE01D1D9
:103D8000B5A087E49FEDBA0B53EC102B51EC180B48
:103D900002F000FE01D1B8A07CE49FEDBD0B53EC16
:103DA000102B51EC180B02F0F5FD01D1BAA071E413
:103DB0009FEDBF0B53EC102B51EC180B02F0EAFDFA
:103DC00001D1BDA066E49FEDC20B53EC102B51EC6A
:103DD000180B02F0DFFD01D1BFA05BE49FEDC40B27
:103DE00053EC102B51EC180B02F0D4FD01D1C2A002
:103DF00050E49FEDC70B53EC102B51EC180B02F065
:103E0000C9FD01D1C4A045E49FEDC90B53EC102BB3
:103E100051EC180B02F0BEFD01D1C7A03AE49FEDB2
:103E2000CC0B53EC102B51EC180B02F0B3FD01D16D
:103E3000C9A02FE49FEDCE0B53EC102B51EC180BC7
:103E400002F0A8FD01D1CCA024E49FEDD10B53ECEE
:103E5000102B51EC180B02F09DFD01D1CEA019E4FE
:103E60009FEDD30B53EC102B51EC180B02F092FD8D
:103E700001D1D1A00EE49FEDD60B53EC102B51ECE9
:103E8000180B02F087FD01D1D3A00EE49FEDD80BF3
:103E900053EC102B51EC180B02F07CFD01D1D6A095
:103EA0000EE49FEDDB0B53EC102B51EC180B02F0E2
:103EB00071FD01D1D8A00EE49FEDDD0B53EC102B6A
:103EC00051EC180B02F066FD01D1DBA00EE49FED72
:103ED000E00B53EC102B51EC180B02F05BFD01D101
:103EE000DDA00EE49FEDE20B53EC102B51EC180B10
:103EF00002F050FD01D1E0A00EE49FEDE50B53EC84
:103F0000102B51EC180B02F045FD01D1E2A00EE49C
:103F10009FEDE70B53EC102B51EC180B02F03AFD20
:103F200001D1E5A00EE49FEDEA0B53EC102B51EC10
:103F3000180B02F02FFD01D1E7A00EE49FEDEC0B72
:103F400053EC102B51EC180B02F024FD01D1EAA028
:103F50000EE49FEDEF0B53EC102B51EC180B02F01D
:103F600019FD01D1ECA00EE49FEDF10B53EC102BE9
:103F700051EC180B02F00EFD01D1EFA00EE49FED05
:103F8000F40B53EC102B51EC180B02F003FD01D194
:103F9000F1A00EE49FEDF60B53EC102B51EC180B37
:103FA00002F0F8FC01D1F4A00EE49FEDF90B53EC04
:103FB000102B51EC180B02F0EDFC01D1F6A00EE431
:103FC0009FEDFB0B53EC102B51EC180B02F0E2FCB5
:103FD00000D1F1E1F2E1000020202020202020206B
:103FE00020312E313520202020202020000000000C
:103FF000333333333333F33F20202020202020205D
:1040000020312E32202020202020202000000000FF
:10401000000000000000F83F202020202020202069
:1040200020312E35202020202020202000000000DC
:104030000000000000000040202020202020202040
:1040400020322E30202020202020202000000000C0
:10405000000000000000044020202020202020201C
:1040600020322E352020202020202020000000009B
:1040700000000000000008402020202020202020F8
:1040800020332E302020202020202020000000007F
:104090000000000000000C402020202020202020D4
:1040A00020332E352020202020202020000000005A
:1040B00000000000000010402020202020202020B0
:1040C00020342E302020202020202020000000003E
:1040D000000000000000124020202020202020208E
:1040E00020342E3520202020202020200000000019
:1040F000000000000000144020202020202020206C
:1041000020352E30202020202020202000000000FC
:104110000000000000001640202020202020202049
:1041200020352E35202020202020202000000000D7
:104130000000000000001840202020202020202027
:1041400020362E30202020202020202000000000BB
:104150000000000000001A40202020202020202005
:1041600020362E3520202020202020200000000096
:104170000000000000001C402020202020202020E3
:1041800020372E302020202020202020000000007A
:104190000000000000001E402020202020202020C1
:1041A00020372E3520202020202020200000000055
:1041B000000000000000204020202020202020209F
:1041C00020382E3020202020202020200000000039
:1041D000000000000000214020202020202020207E
:1041E00020382E3520202020202020200000000014
:1041F000000000000000224020202020202020205D
:1042000020392E30202020202020202000000000F7
:10421000000000000000234020202020202020203B
:1042200020392E35202020202020202000000000D2
:10423000000000000000244020202020202020201A
:1042400031302E30202020202020202000000000AF
:1042500000000000000025402020202020202020F9
:1042600031302E352020202020202020000000008A
:1042700000000000000026402020202020202020D8
:1042800031312E302020202020202020000000006E
:1042900000000000000027402020202020202020B7
:1042A00031312E3520202020202020200000000049
:1042B0000000000000002840202020202020202096
:1042C00031322E302020202020202020000000002D
:1042D0000000000000002940202020202020202075
:1042E00031322E3520202020202020200000000008
:1042F0000000000000002A40202020202020202054
:1043000031332E30202020202020202000000000EB
:104310000000000000002B40202020202020202032
:1043200031332E35202020202020202000000000C6
:104330000000000000002C40202020202020202011
:1043400031342E30202020202020202000000000AA
:104350000000000000002D402020202020202020F0
:1043600031342E3520202020202020200000000085
:104370000000000000002E402020202020202020CF
:1043800031352E3020202020202020200000000069
:104390000000000000002F402020202020202020AE
:1043A00031352E3520202020202020200000000044
:1043B0000000000000003040AAA0B6E49FEDAF0B63
:1043C00053EC102B51EC180B02F0E4FA01D1ADA024
:1043D000ABE49FEDB20B53EC102B51EC180B02F039
:1043E000D9FA01D1AFA0A0E49FEDB40B53EC102B90
:1043F00051EC180B02F0CEFA01D1B2A095E49FED7A
:10440000B70B53EC102B51EC180B02F0C3FA01D18F
:10441000B4A08AE49FEDB90B53EC102B51EC180BB0
:1044200002F0B8FA01D1B7A07FE49FEDBC0B53ECCA
:10443000102B51EC180B02F0ADFA01D1B9A074E4C5
:104440009FEDBE0B53EC102B51EC180B02F0A2FAAF
:1044500001D1BCA069E49FEDC10B53EC102B51ECD2
:10446000180B02F097FA01D1BEA05EE49FEDC30BDA
:1044700053EC102B51EC180B02F08CFA01D1C1A0B7
:1044800053E49FEDC60B53EC102B51EC180B02F0CC
:1044900081FA01D1C3A048E49FEDC80B53EC102B67
:1044A00051EC180B02F076FA01D1C6A03DE49FED65
:1044B000CB0B53EC102B51EC180B02F06BFA01D123
:1044C000C8A032E49FEDCD0B53EC102B51EC180B30
:1044D00002F060FA01D1CBA027E49FEDD00B53ECA2
:1044E000102B51EC180B02F055FA01D1CDA01CE4B1
:1044F0009FEDD20B53EC102B51EC180B02F04AFA43
:1045000001D1D0A011E49FEDD50B53EC102B51EC51
:10451000180B02F03FFA01D1D2A006E49FEDD70BB1
:1045200053EC102B51EC180B02F034FA01D1D5A04A
:1045300006E49FEDDA0B53EC102B51EC180B02F054
:1045400029FA01D1D7A006E49FEDDC0B53EC102B28
:1045500051EC180B02F01EFA01D1DAA006E49FED2F
:10456000DF0B53EC102B51EC180B02F013FA01D1B6
:10457000DCA006E49FEDE10B53EC102B51EC180B83
:1045800002F008FA01D1DFA006E49FEDE40B53EC42
:10459000102B51EC180B02F0FDF901D1E1A006E45B
:1045A0009FEDE60B53EC102B51EC180B02F0F2F9D7
:1045B00001D1E4A006E49FEDE90B53EC102B51EC84
:1045C000180B02F0E7F901D1E6A006E49FEDEB0B32
:1045D00053EC102B51EC180B02F0DCF901D1E9A0DF
:1045E00006E49FEDEE0B53EC102B51EC180B02F090
:1045F000D1F901D1EBA006E49FEDF00B53EC102BA9
:1046000051EC180B02F0C6F901D1EEA006E49FEDC3
:10461000F30B53EC102B51EC180B02F0BBF901D14A
:10462000F0A006E4F5A004E470B500268021F94866
:10463000FCF7C5FD04464FF48071F648FCF7BFFD5A
:1046400005466019F4490968401806D0012805D0CC
:10465000022804D0032803D1F3E1DFE1DFE1EBE13D
:10466000F1E10000202020202020202031362E30B3
:10467000202020202020202000000000000000003A
:1046800000803040202020202020202031362E3570
:10469000202020202020202000000000000000001A
:1046A00000003140202020202020202031372E30D3
:1046B00020202020202020200000000000000000FA
:1046C00000803140202020202020202031372E352E
:1046D00020202020202020200000000000000000DA
:1046E00000003240202020202020202031382E3091
:1046F00020202020202020200000000000000000BA
:1047000000803240202020202020202031382E35EB
:104710002020202020202020000000000000000099
:1047200000003340202020202020202031392E304E
:104730002020202020202020000000000000000079
:1047400000803340202020202020202031392E35A9
:104750002020202020202020000000000000000059
:1047600000003440202020202020202032302E3015
:104770002020202020202020000000000000000039
:1047800000803440202020202020202032302E3570
:104790002020202020202020000000000000000019
:1047A00000003540202020202020202032312E30D3
:1047B00020202020202020200000000000000000F9
:1047C00000803540202020202020202032312E352E
:1047D00020202020202020200000000000000000D9
:1047E00000003640202020202020202032322E3091
:1047F00020202020202020200000000000000000B9
:1048000000803640202020202020202032322E35EB
:104810002020202020202020000000000000000098
:1048200000003740202020202020202032332E304E
:104830002020202020202020000000000000000078
:1048400000803740202020202020202032332E35A9
:104850002020202020202020000000000000000058
:1048600000003840202020202020202032342E300C
:104870002020202020202020000000000000000038
:1048800000803840202020202020202032342E3567
:104890002020202020202020000000000000000018
:1048A00000003940202020202020202032352E30CA
:1048B00020202020202020200000000000000000F8
:1048C00000803940202020202020202032352E3525
:1048D00020202020202020200000000000000000D8
:1048E00000003A40202020202020202032362E3088
:1048F00020202020202020200000000000000000B8
:1049000000803A40202020202020202032362E35E2
:104910002020202020202020000000000000000097
:1049200000003B40202020202020202032372E3045
:104930002020202020202020000000000000000077
:1049400000803B40202020202020202032372E35A0
:104950002020202020202020000000000000000057
:1049600000003C40202020202020202032382E3003
:104970002020202020202020000000000000000037
:1049800000803C40202020202020202032382E355E
:104990002020202020202020000000000000000017
:1049A00000003D40202020202020202032392E30C1
:1049B00020202020202020200000000000000000F7
:1049C00000803D40202020202020202032392E351C
:1049D00020202020202020200000000000000000D7
:1049E00000003E40202020202020202033302E3088
:1049F0002020202020202020000000002020202037
:104A000020202020202020202020202020202020A6
:104A100000000000001000488000002013E0012C7E
:104A200003D101260220E3490860012D03D10226AB
:104A30000220E049086006E000260020DD49086009
:104A400001E0002600BF00BF304670BD10B52DED5F
:104A5000048BD948008802F036F841EC100BB0EE18
:104A6000409AF0EE609A9FEDD50B53EC102B51EC71
:104A7000190B01F037FE41EC100BB0EE408AF0EE5E
:104A8000608A51EC180B01F0C1FF04462CB9AFF25B
:104A900094010320FEF76BFA90E0012C04D1C9A128
:104AA0000320FEF764FA89E0022C04D1CBA1032095
:104AB000FEF75DFA82E0032C04D1CEA10320FEF7BD
:104AC00056FA7BE0042C04D1D0A10320FEF74FFA64
:104AD00074E0052C04D1D3A10320FEF748FA6DE061
:104AE000062C04D1D5A10320FEF741FA66E0072C7D
:104AF00004D1D8A10320FEF73AFA5FE0082C04D1D4
:104B0000DAA10320FEF733FA58E0092C04D1DDA125
:104B10000320FEF72CFA51E00A2C04D1DFA1032078
:104B2000FEF725FA4AE00B2C04D1E2A10320FEF7A0
:104B30001EFA43E00C2C04D1E4A10320FEF717FA7F
:104B40003CE00D2C04D1E7A10320FEF710FA35E07C
:104B50000E2C04D1E9A10320FEF709FA2EE00F2C58
:104B600004D1ECA10320FEF702FA27E0102C04D1B7
:104B7000EEA10320FEF7FBF920E0112C04D1F1A1F6
:104B80000320FEF7F4F919E0122C04D1F3A103205D
:104B9000FEF7EDF912E0132C04D1F6A10320FEF785
:104BA000E6F90BE0142C04D1F8A10320FEF7DFF99D
:104BB00004E0AFF2B8110320FEF7D9F9BDEC048B85
:104BC00010BD2DED028B012500260024A046A14634
:104BD0000027F4A10020FEF7CAF9F4E3FFF736FF3F
:104BE000FFF722FD20B1012804D0022876D13CE352
:104BF00000273CE3012F00D1FBE70127012D06D060
:104C0000022D36D0032D6AD0042D69D129E326B1B7
:104C1000012E10D0022E2AD11BE00126E7480068A1
:104C200020B9E7A10020FEF7A2F903E0EAA10020E5
:104C3000FEF79DF91BE00226E048006820B9ECA1D0
:104C40000020FEF794F903E0EFA10020FEF78FF9B2
:104C50000DE00026D948006820B9D2A10020FEF757
:104C600086F903E0EEA10020FEF781F900BF00BF46
:104C7000F9E226B1012E29D0022E59D13DE0042CB3
:104C800001D1002400E0641C052C1DD2DFE804F0F3
:104C900003080D121700E8A10120FEF768F913E0E0
:104CA000EBA10120FEF763F90EE0EFA10120FEF772
:104CB0005EF909E0F2A10120FEF759F904E0F6A13E
:104CC0000120FEF754F900BF00BF31E0F84800684A
:104CD00001280BD10020F649086002E0F4E329E046
:104CE000C0E2F4A10120FEF742F905E00120F049FD
:104CF0000860F6A1FEF73BF91AE0B0480068012809
:104D00000BD10020AD490860EAA10120FEF72FF980
:104D1000B7A10020FEF72BF909E00120A7490860A0
:104D2000EAA1FEF724F9B8A10020FEF720F900BFA0
:104D300000BF98E2052C10D2DFE804F0032A3A39CC
:104D400038009FEDE80B53EC102BE84890ED000B7A
:104D500051EC100B01F01EFE00D180E29FEDE40B40
:104D600053EC102BE14890ED000B51EC100B01F0CF
:104D700005FC41EC100BDD4880ED000B90ED000BC5
:104D8000FEF72DF9824651460220FEF7F0F866E262
:104D90009FEDD90B53EC102BD94890ED000B51EC43
:104DA000100B01F0F7FD00D159E2ABE130E208E26F
:104DB000E0E1000080000020000100209A9999990C
:104DC000999969402D20202020202020202020207B
:104DD0002020202020202020000000002D2D202039
:104DE00020202020202020202020202020202020C3
:104DF000000000002D2D2D2020202020202020200C
:104E00002020202020202020000000002D2D2D2DEE
:104E10002020202020202020202020202020202092
:104E2000000000002D2D2D2D2D20202020202020C1
:104E30002020202020202020000000002D2D2D2DBE
:104E40002D2D202020202020202020202020202048
:104E5000000000002D2D2D2D2D2D2D202020202077
:104E60002020202020202020000000002D2D2D2D8E
:104E70002D2D2D2D202020202020202020202020FE
:104E8000000000002D2D2D2D2D2D2D2D2D2020202D
:104E90002020202020202020000000002D2D2D2D5E
:104EA0002D2D2D2D2D2D20202020202020202020B4
:104EB000000000002D2D2D2D2D2D2D2D2D2D2D20E3
:104EC0002020202020202020000000002D2D2D2D2E
:104ED0002D2D2D2D2D2D2D2D20202020202020206A
:104EE000000000002D2D2D2D2D2D2D2D2D2D2D2DA6
:104EF0002D20202020202020000000002D2D2D2DF1
:104F00002D2D2D2D2D2D2D2D2D2D2020202020201F
:104F1000000000002D2D2D2D2D2D2D2D2D2D2D2D75
:104F20002D2D2D2020202020000000002D2D2D2DA6
:104F30002D2D2D2D2D2D2D2D2D2D2D2D20202020D5
:104F4000000000002D2D2D2D2D2D2D2D2D2D2D2D45
:104F50002D2D2D2D2D202020000000002D2D2D2D5C
:104F60002D2D2D2D2D2D2D2D2D2D2D2D2D2D20208B
:104F7000000000002D2D2D2D2D2D2D2D2D2D2D2D15
:104F80002D2D2D2D2D2D2D20000000002D2D2D2D12
:104F90002D2D2D2D2D2D2D2D2D2D2D2D2D2D2D2D41
:104FA00000000000202020202020204D616E75612F
:104FB0006C20202020202020000000007C00002009
:104FC0002020202020204175746F6D6F64652020A3
:104FD00020202020000000002020202020204175DB
:104FE000746F6D6F646520202020202A000000006F
:104FF00020202020202020427970617373202020FF
:1050000020202020000000002020202020202042FE
:1050100079706173732020202020202A0000000076
:10502000202020202020204D616E75616C202020E2
:105030002020202A0000000020202020202054686A
:10504000726573686F6C64202020202000000000CF
:1050500020202020204D616B655570204761696ECE
:10506000202020200000000020202020202020419F
:10507000747461636B202020202020200000000039
:1050800020202020202052656C656173652020203F
:10509000202020200000000020202020202020525E
:1050A0006174696F20202020202020200000000053
:1050B0007800002020202020202044697361626C49
:1050C00065642020202020200000000020202020D7
:1050D0002020456E61626C65642020202020202005
:1050E000000000000000000000002E4050000020E2
:1050F000000000000000E03F000000000000284029
:10510000700000201FED060B53EC102BFC4890EDB7
:10511000000B51EC100B01F031FA41EC100BF84888
:1051200080ED000B90ED000B53EC102B9FEDF50B79
:1051300051EC100B01F02EFD41EC100BB0EE408A4B
:10514000F0EE608A51EC180B01F090FCEF490880FA
:1051500008460088EE498860EE48FCF7C1FEE84842
:1051600090ED000BFDF73BFF824651460220FDF714
:10517000FEFE74E09FEDE80B53EC102BE84890ED39
:10518000000B51EC100B01F005FC00D167E01FEDA6
:10519000280B53EC102BE24890ED000B51EC100B58
:1051A00001F0ECF941EC100BDD4880ED000B90EDC7
:1051B000000BFDF714FF824651460220FDF7D7FE93
:1051C0004DE09FEDD80B53EC102BD84890ED000B21
:1051D00051EC100B01F0DEFB00D140E09FEDD40B51
:1051E00053EC102BD14890ED000B51EC100B01F05B
:1051F000C5F941EC100BCD4880ED000B90ED000B94
:10520000FDF7EDFE824651460220FDF7B0FE26E096
:105210009FEDC90B53EC102BC94890ED000B51ECDE
:10522000100B01F0B7FB00D119E09FEDC60B53EC5A
:10523000102BC34890ED000B51EC100B01F09EF9C0
:1052400041EC100BBE4880ED000B90ED000BFDF71C
:10525000C6FE824651460220FDF789FE00BF00BF10
:1052600000BF00E000BF00BF00BF012F00D1DAE1A6
:105270000127012D06D0022D3CD0032D78D0042D1E
:1052800077D1CBE126B1012E12D0022E30D11FE012
:105290000226AE48006828B9AFF2AC210020FDF725
:1052A00066FE04E0AFF2A0210020FDF760FE1FE0E3
:1052B0000026A648006828B9AFF218310020FDF793
:1052C00056FE04E0AFF2A8210020FDF750FE0FE0EB
:1052D00001269E48006828B9AFF21C310020FDF776
:1052E00046FE04E0AFF210310020FDF740FE00BFA3
:1052F00000BF95E126B1012E2DD0022E61D141E0F3
:105300000CB9042400E0641E052C22D2DFE804F06E
:1053100003090F151B00AFF2E0210120FDF727FE66
:1053200017E0AFF2D4210120FDF721FE11E0AFF22A
:10533000C8210120FDF71BFE0BE0AFF2BC210120CC
:10534000FDF715FE05E0AFF2B0210120FDF70FFEDD
:1053500000BF00BF35E07E48006801280AD1002068
:105360007B490860AFF2B4210120FDF700FE08E0A0
:105370002AE054E1012076490860AFF2B021FDF740
:10538000F6FD1EE07148006801280DD100206F492C
:105390000860AFF2E0210120FDF7E9FDAFF2B03186
:1053A0000020FDF7E4FD0BE0012068490860AFF242
:1053B000E421FDF7DCFDAFF2B0310020FDF7D7FDB1
:1053C00000BF00BF2CE10BE2052C10D2DFE804F097
:1053D000032A6FD0FD009FED5F0B53EC102B5F484D
:1053E00090ED000B51EC100B01F0D4FA00D113E159
:1053F0001FEDC10B53EC102B584890ED000B51ECF6
:10540000100B01F0FBFC41EC100B544880ED000B3D
:1054100090ED000BFDF7E3FD824651460220FDF7BB
:10542000A6FDF9E09FED4E0B53EC102B344890EDA8
:10543000000B51EC100B01F0ADFA00D1ECE01FEDC8
:10544000D40B53EC102B2E4890ED000B51EC100BAD
:1054500001F0D4FC41EC100B294880ED000B90EDDD
:10546000000B53EC102B9FED270B51EC100B01F0B0
:1054700091FB41EC100BB0EE408AF0EE608A51ECEB
:10548000180B01F0F3FA21490880084600882049EA
:1054900088602048FCF724FD194890ED000BFDF7CB
:1054A0009EFD824651460220FDF761FDB4E09FED6E
:1054B0002E0B53EC102B1A4890ED000B51EC100BF7
:1054C00001F068FA01D1A7E0ACE01FEDF70B53EC57
:1054D000102B134890ED000B51EC100B01F08EFCDB
:1054E00041EC100B0E4880ED000B90ED000BFDF72A
:1054F00076FD824651460220FDF739FD8CE0000022
:10550000700000200000000000A060409C0000200F
:1055100068010020000800400000000000003E403C
:1055200060000020333333333333F33F680000200F
:105530009A9999999999A93F000000000000344078
:1055400058000020000000000000F03F7C00002018
:105550007800002000000000000034C0500000204F
:1055600000000000000014C09A9999999999B93FD8
:105570001FED030B53EC102BFE4890ED000B51EC8C
:10558000100B01F0CBFA05D81FED090BF94880ED9F
:10559000000B41E01FED1A0B53EC102BF54890ED7A
:1055A000000B51EC100B01F029FC41EC100BF14801
:1055B00080ED000B90ED000BFDF711FD824651468A
:1055C0000220FDF7D4FC27E0FFE71FED220B53EC90
:1055D000102BE94890ED000B51EC100B01F0DAF9BB
:1055E00000D119E01FED290B53EC102BE24890ED90
:1055F000000B51EC100B01F001FC41EC100BDE48EC
:1056000080ED000B90ED000BFDF7E9FC8246514662
:105610000220FDF7ACFC00BF00BF00BF00E000BFF0
:1056200000BF00BF00BF00BFB9F1000F7BD14FF436
:105630000071D248FBF7C3FD002875DD4FF001096A
:10564000012D04D0022D5AD0032D57D19CE06D1CA2
:1056500026B1012E29D0022E4FD135E0052C22D2C1
:10566000DFE804F003090F151B00AFF234610120DD
:10567000FDF77DFC17E0AFF228610120FDF777FC14
:1056800011E0AFF21C610120FDF771FC0BE0AFF2FD
:1056900010610120FDF76BFC05E0AFF20461012011
:1056A000FDF765FC00BF00BF27E0B5480068012892
:1056B00004D1AFF2E851FDF75AFC04E0AFF20C61FF
:1056C0000120FDF754FC18E0AE480068012809D11C
:1056D000AFF20861FDF74BFCAFF2D4610020FDF79B
:1056E00046FC09E0AFF234610120FDF740FCAFF267
:1056F00000710020FDF73BFC00BF00BF45E0AEBBE2
:105700006D1C052C3ED2DFE804F003101B2632008E
:105710009D4890ED000BFDF762FC82465146022049
:10572000FDF725FC2EE031E038E0984890ED000BC5
:10573000FDF755FC824651460220FDF718FC21E09A
:10574000934890ED000BFDF74AFC8246514602203B
:10575000FDF70DFC16E0874890ED000BFDF73FFCD0
:10576000824651460220FDF702FC0BE00BE0824826
:1057700090ED000BFDF733FC824651460220FDF709
:10578000F6FB00BF00BF00E000BF07E04FF4007170
:105790007A48FBF714FD08B94FF00009B8F1000F83
:1057A0001FD14FF480617548FBF709FD002820DD0B
:1057B0004FF00108012D04D0022D03D0032D0FD18D
:1057C00007E00DE06D1EAFF6CC510120FDF7CFFBD9
:1057D00006E06D1EAFF6DC510220FDF7C8FB00BFEE
:1057E00007E04FF480616548FBF7E9FC08B94FF02A
:1057F0000008FFF7F3B910B50121C804FCF728F938
:10580000072204216348FBF7FDFC10206249086071
:105810000320487102200871002088710120C8719E
:105820005C48FBF770FC01218803FCF71EF94FF47C
:1058300016505A490860002048608860C860486176
:10584000082008615648FDF728F901215448FDF762
:10585000B3F9AFF658610020FDF789FBAFF664613C
:105860000120FDF784FBAFF66C610220FDF77FFBA2
:10587000AFF678610320FDF77AFB10BD10B501216A
:105880004807FCF7FFF8102043490860032008711F
:10589000002088710220C8714FF09040FBF733FC64
:1058A000FBF7AAF900203F49086048600220C86061
:1058B0000020FBF7ACF901210020FBF7C5F910BD72
:1058C00010B54FF48870FCF73AF801210807FCF78F
:1058D000BFF801214804FCF7BBF801202E490860FD
:1058E000032008710020C8714FF09040FBF70BFCBB
:1058F00000214FF0A040FAF70DFE4FF0A040FAF75C
:10590000FDFD00BF4FF0A040FAF70CFE0028F9D1D2
:105910004FF0A040FAF7F7FD234908800020234903
:10592000086048608860C86008744FF0A040FAF7CB
:10593000A9FD4FF400501E490860002048608860AF
:10594000C860086148618861012008774FF0A04075
:10595000FAF74EFD0323012211464FF0A040FAF75B
:1059600007FF01214FF0A040FAF7BDFD00BF012164
:1059700020E00000680000205800002000100048CF
:10598000780000207C0000205000002070000020E3
:105990006000002000080048A40000207C010020D6
:1059A000003801404C0100209E00002038010020FA
:1059B000180100204FF0A040FBF7C8F80028D6D00F
:1059C0004FF0A040FAF778FF10BD10B50121042078
:1059D000FCF758F84FF6FF707649486001200880C0
:1059E0000020488008817448FCF7D3F9012108059C
:1059F000FCF72EF84FF480507049086002200871BF
:105A000000208871C871032048716D48FBF77BFB4B
:105A100002220C216A48FBF7F5FB60206949086007
:105A20000120888068480088886000208881C880BC
:105A3000C8814FF4807048825F48FCF751FA082112
:105A40005D48FCF725FC00215B48FCF71FFA0121AB
:105A50005948FCF7A1FE01215748FCF735FA10BD63
:105A600010B501210220FCF70DF81D2057490870E0
:105A70000020487001208870C8700846FBF7F5FBCD
:105A800001204C49486040F60F60088000200881E2
:105A900048804F48FCF77DF900204A490860012002
:105AA00088804C4800888860002088814848FCF73E
:105AB00017FA00214648FCF7EBFB0122022144487B
:105AC000FCF78DFE10BD10B501210846FBF7DAFF8B
:105AD0001C203E4908700020487002208870012078
