:020000040800F2
:10000000F807002029020008115C0008135C0008B2
:10001000175C00081B5C00081F5C00080000000063
:10002000000000000000000000000000235C000849
:10003000255C000800000000275C0008295C00081F
:10004000430200084302000843020008430200087C
:10005000430200084302000843020008430200086C
:10006000430200084302000843020008430200085C
:10007000430200084302000843020008430200084C
:10008000430200084302000843020008430200083C
:10009000430200084302000843020008430200082C
:1000A000430200084302000843020008430200081C
:1000B0002B5C0008D15E00084302000843020008E0
:1000C00043020008430200084302000843020008FC
:1000D00043020008430200084302000843020008EC
:1000E00043020008430200084302000843020008DC
:1000F00043020008430200084302000843020008CC
:1001000000000000000000000000000043020008A2
:1001100043020008430200084302000843020008AB
:10012000430200084302000843020008430200089B
:100130004302000843020008000000000000000025
:1001400043020008430200084302000800000000C8
:10015000000000000000000000000000000000009F
:1001600000000000000000004302000843020008F5
:100170004302000800000000000000000000000032
:10018000000000004302000800F002F800F03CF814
:100190000AA090E8000C82448344AAF10107DA45E2
:1001A00001D100F031F8AFF2090EBAE80F0013F0F8
:1001B000010F18BFFB1A43F001031847A06E00009F
:1001C000C06E0000103A24BF78C878C1FAD8520730
:1001D00024BF30C830C144BF04680C6070470000C1
:1001E0000023002400250026103A28BF78C1FBD840
:1001F000520728BF30C148BF0B6070471FB506F0DB
:1002000007FF1FBD10B510BD06F07FF81146FFF7C0
:10021000F5FF05F0BBFC06F09DF803B4FFF7F2FF15
:1002200003BC06F0A1F800000948804709480047D0
:10023000FEE7FEE7FEE7FEE7FEE7FEE7FEE7FEE796
:10024000FEE7FEE704480549054A064B70470000F3
:10025000E361000889010008F8010020F807002088
:10026000F8030020F80300201CB50446454951F866
:100270002400012101F0ECFB434830F81400009009
:1002800001208DF8040000208DF8060001208DF873
:10029000070003208DF805003C4951F82400694609
:1002A00000F031FF1CBD384931F81010374A52F8C0
:1002B000202091617047344931F81010334A52F8C8
:1002C000202011857047314951F82010898A2E4A23
:1002D00032F8102051402D4A52F820209182704768
:1002E00030B585B004460D46294951F82400012156
:1002F00001F0AEFB0121084601F0B7FB00208DF8AC
:1003000010008DF81300234830F8140003902249A0
:1003100051F8240003A900F0F6FE012D24D11F4A54
:10032000115D1F4A105D01F06FFC1E4830F814008B
:10033000019000208DF8080008208DF809000120A8
:100340008DF80A0001A800F081FD1748005D8DF8C6
:1003500000000F208DF801008DF8020001208DF8BB
:100360000300684600F081FF05B030BD10B50446BB
:10037000084A32F81410084A52F8240000F01FFF0F
:1003800010BD00002C7000081C7000080000002048
:10039000507000084C7000082000002057700008C2
:1003A00056700008547000085870000810B50446D4
:1003B000B4F1A04F02D0FA48844209D101210807C4
:1003C00001F06DFB00214FF0805001F068FB0EE062
:1003D000F448844202D0F448844208D101214807FD
:1003E00001F05DFB00214FF0005001F058FB10BD03
:1003F00010B502460020D068EC4B1840D1E900341B
:1004000023438C682343CC6823430C6923434C6902
:1004100023438C6923431843D060106B20F00F00F6
:100420000B7F5B1E1843106310BD0021016041600B
:100430008160C16001614161816101210177704783
:1004400010B50022C26C00220B7A5B1E0C6823439D
:100450004C682343CC6843EA04230C6943EA8433A1
:100460008C8A43EA04530C7E43EA8462C26410BD62
:1004700000210160416001210172C160016141619F
:100480008161704710B50022B0F1A04F02D0C44B7B
:10049000984205D1C64B1A68C64B02EA030203E034
:1004A000C54B1A68C34B1A40D1E9003423438C680A
:1004B0002343CC6843EA04330C7C43EA04231A4305
:1004C000B0F1A04F02D0B64B984202D1B84B1A609F
:1004D00001E0B94B1A6010BD0021016041608160EC
:1004E000C1600174704721B1826842F001028260EC
:1004F00003E0826842F0020282607047816841F046
:100500000041816070470146D1F8B4007047C0F8DF
:10051000B4107047826822F08042826082680A4389
:1005200082607047014600208A6812F0004F01D0B7
:10053000012000E000207047816841F002018160E5
:100540007047014600208A6812F0020F01D0012096
:1005500000E000207047826822F04052826021B1A2
:10056000826842F08052826003E0826842F000526A
:100570008260704710B53AB1D0F8B03001248C4099
:100580002343C0F8B03006E0D0F8B03001248C40EE
:10059000A343C0F8B03010BD21B1C26842F40012CC
:1005A000C26003E0C26822F40012C260704721B149
:1005B000C26842F48042C26003E0C26822F4804212
:1005C000C26070470A460021C16821F0E071114302
:1005D000C160704710B5036A784C23400362036A18
:1005E00043EA01430362036A6FF30B030362036A86
:1005F0001343036210BD436A23F47F034362436ADB
:1006000043EA01434362436A23F0FF034362436AC0
:10061000134343627047836A23F47F038362836AD0
:1006200043EA01438362836A23F0FF038362836AA0
:100630001343836270470A460021C16821F0F841E4
:1006400041EA8261C16070470A46002150F8A01F4C
:100650005B4B194001239340194303680B4340F857
:10066000A03970470A46002150F8A41F544B194086
:1006700001239340194303680B4340F8A4397047A2
:10068000B0F1A04F02D0464A904212D141B1484A3F
:10069000126842F400024FF0A043C3F8082316E0AA
:1006A000434A126822F400024FF0A043C3F8082323
:1006B0000DE031B1404A126842F400023E4B1A602C
:1006C00005E03D4A126822F400023B4B1A60704775
:1006D000B0F1A04F02D0324A904212D141B1344A17
:1006E000126842F480024FF0A043C3F8082316E0DA
:1006F0002F4A126822F480024FF0A043C3F8082367
:100700000DE031B12C4A126842F480022A4B1A6083
:1007100005E0294A126822F48002274B1A607047CC
:10072000B0F1A04F02D01E4A904212D141B1204AEE
:10073000126842F080724FF0A043C3F8082316E01D
:100740001B4A126822F080724FF0A043C3F80823BE
:100750000DE031B1184A126842F08072164B1A60EF
:1007600005E0154A126822F08072134B1A60704738
:10077000F0B50C461D4600BF00BF052A22DA016B0A
:1007800002EB420677001F2606FA07F3994302EBB5
:100790004206760004FA06F3194301634FE00000B5
:1007A00000010050000400500005005007C0FFFD8C
:1007B00008030050E010FCFF08070050FFFF00F0A6
:1007C0000100F8FF0A2A11DA416B561F06EB4606B4
:1007D00077001F2606FA07F39943561F06EB4606D5
:1007E000760004FA06F31943416328E00F2A13DA6E
:1007F000816BA2F10A0606EB460677001F2606FA71
:1008000007F39943A2F10A0606EB4606760004FABE
:1008100006F31943816312E0C16BA2F10F0606EBE8
:10082000460677001F2606FA07F39943A2F10F0642
:1008300006EB4606760004FA06F31943C163092C59
:1008400014DD8169A4F10A0606EB4607072606FABD
:1008500007F386699E4386618669A4F10A0707EB60
:10086000470705FA07F73E43866110E04169661EB7
:1008700006EB4607382606FA07F346699E434661AB
:10088000466904EB440705FA07F73E434661F0BDAD
:10089000026B22F00F020263026B4B1E1A430263CB
:1008A000704710B5C36823F47C63C360C36842EA31
:1008B00001042343C36010BD816841F004018160DD
:1008C0007047014600208A6812F0040F01D0012011
:1008D00000E000207047816841F01001816070479E
:1008E00010B50A4600210023C16821F46021531E7F
:1008F00041EA4341C16010BD21B1C26842F4803277
:10090000C26003E0C26822F48032C26070470146D0
:10091000086C80B2704701460020B1F1A04F02D0B0
:10092000B14A914202D1B14A106801E0B04A106860
:100930007047036E23F0F8430366036E43EA816356
:100940000366036E6FF30B030366036E13430366C4
:100950007047436E23F0F8434366436E43EA816376
:100960004366436E6FF30B034366436E1343436664
:100970007047836E23F0F8438366836E43EA816396
:100980008366836E6FF30B038366836E1343836604
:100990007047C36E23F0F843C366C36E43EA8163B6
:1009A000C366C36E6FF30B03C366C36E1343C366A4
:1009B000704721B1026E42F00042026603E0026E0F
:1009C00022F000420266704721B1426E42F00042BE
:1009D000426603E0426E22F000424266704721B157
:1009E000826E42F00042826603E0826E22F0004294
:1009F0008266704721B1C26E42F00042C26603E0D7
:100A0000C26E22F00042C266704721B1C26842F055
:100A10000102C26003E0C26822F00102C2607047B6
:100A2000C26822F00202C260C2680A43C260704714
:100A3000F0B50446154600200022092911DDA06901
:100A4000A1F10A0606EB4607072606FA07F29043CD
:100A5000A1F10A0606EB460603FA06F21043A0616E
:100A60000CE0606901EB4107072606FA07F29043A4
:100A700001EB410603FA06F210436061E06C6E1E62
:100A800006EB460677004FF4F85606FA07F2904355
:100A90006E1E06EB4606760001FA06F21043E0648D
:100AA000F0BD0A460021C16C21F00301531E194319
:100AB000C164704710B5C36C23F0FC03C364C36CFE
:100AC00041EA02042343C36410BD816841F0080178
:100AD00081607047816841F0200181607047014664
:100AE00000208A6812F0080F01D0012000E00020E9
:100AF000704721B1C26842F00072C26003E0C26870
:100B000022F00072C260704721B1C26842F48012C4
:100B1000C26003E0C26822F48012C260704708B568
:100B2000024600200090009201F18000009B1844D2
:100B300000900098006880B208BD1AB143680B436A
:100B4000436002E043688B434360704702460020E5
:100B500013680B4201D0012000E0002070470160C3
:100B6000704710B5024600230020B2F1A04F02D01A
:100B70001D4CA24202D11F4C236802E01C4C0C3CCD
:100B800023680B4201D0012000E0002010BDB0F12D
:100B9000A04F02D0144A904208D1164A126842EA85
:100BA00001024FF0A043C3F8002306E0104A0C3ABC
:100BB00012680A430E4B0C3B1A60704730B5024670
:100BC00000200023002415680D40ABB255680D408D
:100BD000ACB213B10CB1012000E0002030BD0268BE
:100BE0000A43026070470000000100500C030050EF
:100BF0000C0700500003005010B50121480700F019
:100C000068FF00214FF0005000F063FF10BD30B5C9
:100C1000002200237B4C226840F6FE748440A243ED
:100C2000D1E900452C438D682C43CD6844EA050387
:100C300003FA00F42243734C226030BD00210160AE
:100C400041608160C160704739B16E4A126801230A
:100C500083401A436B4B1A6006E06A4A126801230C
:100C600083409A43674B1A60704710B551B1654A8B
:100C7000121D126804090123A3401A43614B1B1D76
:100C80001A6009E05F4A121D126804090123A3409B
:100C90009A435C4B1B1D1A6010BD40B15949091D98
:100CA000096841F00301574A121D116007E05549D8
:100CB000091D096821F00301524A121D1160704795
:100CC00010B53AB14F4B1B6801FA00F423434D4C69
:100CD000236006E04B4B1B6801FA00F4A343494C28
:100CE000236010BD08B500220092464A009200F130
:100CF0000802009B1A440092009A116008BD08B5D2
:100D0000002200923F4A009200F11402009B1A4414
:100D10000092009A116008BD30B500240023082815
:100D200002D142EA012401E042EA0144354B00F1DC
:100D300020052B441C6030BD08B501460020009002
:100D4000304800902C2000EB9100009A1044009055
:100D50000098006880B208BD41B12A4A12684FF479
:100D6000805383401A43274B1A6007E0254A1268D4
:100D70004FF4805383409A43224B1A60704710B55A
:100D80003AB1204B1B6801FA00F423431D4C236049
:100D900006E01C4B1B6801FA00F4A343194C2360C6
:100DA00010BD10B502460020164B34331B6801FA03
:100DB00002F4234201D0012000E0002010BD01FA1E
:100DC00000F2104B34331A60704730B502460020F1
:100DD00000230C4C246801FA02F504EA0503094CCF
:100DE0003434246801FA02F52C4202D00BB1012000
:100DF00000E0002030BD01FA00F2024B34331A60EB
:100E000070470000007400404FF0FC5096490860A5
:100E10000020091D0860091D0860091D0860091DE2
:100E200008606FF0FC50091D08600C208E492031CD
:100E300008600020091D0860091D0860091D086080
:100E4000091D08600320091D0860704710B50021C6
:100E500085498279002A7DD0026852090B4603EB4E
:100E600042121268037803F01F040123A3409A433F
:100E700003685B090C4604EB43131A6002685209CD
:100E80000B1D03EB42121268037803F01F040123C9
:100E9000A3409A4303685B090C1D04EB43131A60DB
:100EA00003790268520903EB421211440A6803787D
:100EB00003F01F040123A3401A430A606A49026831
:100EC0005209694B083303EB42121268037803F0AE
:100ED0001F040123A3409A4303685B09624C083452
:100EE00004EB43131A6002685209231D03EB4212FC
:100EF0001268037803F01F040123A3409A43036898
:100F00005B09594C0C3404EB43131A604279102AE4
:100F100028D102685209231F03EB4212126803789A
:100F200003F01F040123A3401A4303685B094E4CDE
:100F3000083404EB43131A6002685209231D03EBC3
:100F400042121268037803F01F040123A3401A43DE
:100F5000036800E015E05B09434C0C3404EB4313D9
:100F60001A601CE043790268520903EB42121144F3
:100F70000A68037803F01F040123A3401A430A60A0
:100F80000DE003790268520903EB421211440A682A
:100F9000037803F01F040123A3409A430A6010BDA5
:100FA00000210160017110214171002181717047A0
:100FB00041092D4A103202EB4111096800F01F036C
:100FC00001229A4011434209274B103303EB42128E
:100FD0001160704710B5014600204A09224B1433B6
:100FE00003EB4212126801F01F040123A3401A42CE
:100FF00001D0012000E0002010BD00F01F020121FF
:1010000091404209184B143303EB421211607047B0
:1010100030B50146002000224B09134C04EB43136A
:101020001B6801F01F050124AC4003EA04024B09D0
:101030000D4C143404EB43131B6801F01F0501240D
:10104000AC40234202D00AB1012000E0002030BDB4
:1010500000F01F02012191404209034B143303EBBE
:1010600042121160704700000004014010B50446B0
:10107000B4F1904F09D10121480400F010FD002186
:101080004FF4003000F00BFD3CE07048844208D182
:101090000121000200F003FD0021200200F0FFFC0E
:1010A00030E06B48844208D10121000200F0F7FCD7
:1010B0000021200200F0F3FC24E06648844209D1BC
:1010C0000121080500F0EBFC00214FF4801000F036
:1010D000E6FC17E06048844208D10121400200F09C
:1010E000DEFC0021600200F0DAFC0BE05B48844289
:1010F00008D10121880500F0D2FC00214FF48000C6
:1011000000F0CDFC10BDF0B50A46002100230024FC
:1011100000BF3DE0012505FA01F3156805EA030467
:101120009C4234D11579012D02D01579022D16D1AA
:1011300085684F000326BE40B543856055794E0053
:10114000B540866835438560868801258D40AE436D
:101150008680868895798D40ADB22E43868005685D
:101160004F000326BE40B543056015794E00B540DB
:10117000066835430560C5684F000326BE40B54389
:10118000C560D5794E00B540C6683543C560491C79
:101190001029BFD3F0BD4FF6FF710160002101712E
:1011A0000121417100218171C17170474FF480327A
:1011B0000A43C261C161C261C269C2697047024625
:1011C0000020138A0B4201D0012000E0002070476C
:1011D0000146088A704702460020938A0B4201D0DC
:1011E000012000E0002070470146888A7047816135
:1011F0007047018570470AB1816100E00185704741
:1012000081827047F0B5002300244D07ED0E02FAED
:1012100005F3CE1000F1200555F826504E07F70EC5
:101220000F26BE40B543CF1000F1200646F82750E8
:10123000CE1000F1200555F8265045EA0304CE10E3
:1012400000F1200545F82640F0BD000000040048EC
:1012500000080048000C0048001000480014004836
:1012600031490143314A1160704770B500210023B4
:101270000F22C4780CB32D4C246804F4E064C4F548
:10128000E064210AC1F10403CA40447804FA03F17E
:101290008478144021430901254C0678A15504782F
:1012A00004F01F050124AC4005786D114FF0E026D5
:1012B00006EB8505C5F8004109E0047804F01F0538
:1012C0000124AC401B4D0678761145F8264070BDD0
:1012D000194A0A400243154B1B1F1A60704739B167
:1012E000124A121D12680243104B1B1D1A6006E0C1
:1012F0000E4A121D126882430C4B1B1D1A60704768
:10130000042808D14FF0E021096941F004014FF0B1
:10131000E022116107E04FF0E021096921F00401AA
:101320004FF0E022116170470000FA050CED00E07B
:1013300000E400E080E100E080FFFF1FFD4800685E
:1013400040F00100FB49086008464068FA4908403F
:10135000F849486008460068F8490840F5490860BF
:101360000846006820F4802008600846406820F4A1
:10137000FE0048600846C06A6FF30D00C862084668
:10138000006BEF490840EB49086300208860704714
:101390000021E84A917011468870704710B50246E6
:1013A000002100230020511111B9E24C23680BE009
:1013B000012902D1DF4C236A06E0042902D1DD4C69
:1013C000636801E0DB4C636A02F01F0101248C407A
:1013D0001C4201D0012000E0002010BD38B50020E3
:1013E00000900024002500BF1120FFF7D7FF05461D
:1013F0000098401C00900098B0F5A06F01D0002D1F
:10140000F2D01120FFF7CAFF08B1012400E0002448
:10141000204638BD01460020C64A106820F0F8007A
:1014200040EAC10010607047C64908607047C14972
:10143000096A21F00101BF4A11621146096A21F0CF
:10144000040111621146096A014311627047B949EA
:10145000096A21F01801B74A11621146096A01436D
:1014600011627047B84908607047B24A526822F466
:101470007412B04B5A601A46526840EA01031A438C
:10148000AC4B5A607047AF49086670470146002070
:10149000A84AD06A20F00F000843D0627047A949DB
:1014A000C8647047A349C871704701460020A14A2B
:1014B000506820F003000843506070479D48406822
:1014C00000F00C007047014600209A4A506820F056
:1014D000F00008435060704701460020954A50686C
:1014E00020F4E06008435060704701460020914AB4
:1014F000506820F4605040EAC100506070472DE908
:10150000F0410021002400278C4600230022002502
:101510000026DFF82082D8F8048008F00C0121B101
:10152000042907D0082930D109E0DFF82082C0F86B
:1015300000802FE0DFF81482C0F800802AE0DFF896
:10154000F481D8F8048008F47014DFF8E881D8F842
:10155000048008F480374FF0020808EB944427B960
:10156000DFF8EC8104FB08F20DE0DFF8C881D8F861
:101570002C8008F00F0808F1010CDFF8D081B8FBCF
:10158000FCF808FB04F2026004E0DFF8C081C0F858
:10159000008000BF00BFDFF89C81D8F8048008F00D
:1015A000F0010909DFF8AC8118F80160D0F800807B
:1015B00028FA06F8C0F80480DFF87881D8F80480AB
:1015C00008F4E061090ADFF88C8118F80130D0F8DE
:1015D000048028FA03F8C0F80880DFF85881D8F8AA
:1015E000048008F46051C90ADFF8688118F80150D6
:1015F000D0F8048028FA05F8C0F80C80DFF83481B0
:10160000D8F82C8008F4F8710909DFF84C8138F813
:10161000113013F0100F04D0B2FBF3F8C0F81080B3
:1016200003E0D0F80080C0F81080DFF80881D8F817
:101630002C8008F47851490ADFF81C8138F8113001
:1016400013F0100F04D0B2FBF3F8C0F8148003E0DD
:10165000D0F80080C0F81480DFF8D880D8F8308047
:1016600008F01008B8F1100F04D0DFF8E080C0F8DF
:10167000188003E0D0F80080C0F81880DFF8B4804C
:10168000D8F8308008F02008B8F1200F04D0DFF837
:10169000BC80C0F81C8003E0D0F80080C0F81C803B
:1016A000DFF89080D8F8308008F48078B8F5807F33
:1016B0000AD1D0F80080904506D1B54204D14FEA56
:1016C0004208C0F8208003E0D0F80C80C0F82080E9
:1016D000DFF86080D8F8308008F40078B8F5007F33
:1016E0000AD1D0F80080904506D1B54204D14FEA26
:1016F0004208C0F8248003E0D0F80C80C0F82480B1
:10170000DFF83080D8F8308018F0030F04D1D0F81B
:101710000C80C0F828803CE0DFF81880D8F83080D2
:1017200008F00308B8F1010F18D1D0F80080C0F814
:1017300028802EE00010024000C0FFF8FFFFF6FEF8
:10174000CCFC000F000042428004424200127A00AA
:1017500000093D002400002034000020DFF8D08381
:10176000D8F8308008F00308B8F1020F04D14FF424
:101770000048C0F828800CE0DFF8B483D8F8308047
:1017800008F00308B8F1030F03D1DFF8A883C0F80D
:101790002880DFF89C83D8F8308018F4403F04D1CB
:1017A000D0F80880C0F82C8028E0DFF88483D8F8CF
:1017B000308008F44038B8F5803F04D1D0F800807C
:1017C000C0F82C801AE0DFF86883D8F8308008F47D
:1017D0004038B8F5003F04D14FF40048C0F82C80E1
:1017E0000CE0DFF84C83D8F8308008F44038B8F5C6
:1017F000403F03D1DFF83C83C0F82C80DFF8308312
:10180000D8F8308018F4402F04D1D0F80880C0F800
:10181000308028E0DFF81883D8F8308008F44028BA
:10182000B8F5802F04D1D0F80080C0F830801AE0DD
:10183000DFF8FC82D8F8308008F44028B8F5002F93
:1018400004D14FF40048C0F830800CE0DFF8E082AB
:10185000D8F8308008F44028B8F5402F03D1DFF8DD
:10186000D482C0F83080DFF8C882D8F8308018F40D
:10187000401F04D1D0F80880C0F8348028E0DFF899
:10188000B082D8F8308008F44018B8F5801F04D131
:10189000D0F80080C0F834801AE0DFF89482D8F8DD
:1018A000308008F44018B8F5001F04D14FF4004808
:1018B000C0F834800CE0DFF87882D8F8308008F483
:1018C0004018B8F5401F03D1DFF86882C0F83480B3
:1018D000DFF85C82D8F8308018F4400F04D1D0F8DB
:1018E0000880C0F8388028E0DFF84482D8F83080DB
:1018F00008F44008B8F5800F04D1D0F80080C0F893
:1019000038801AE0DFF82882D8F8308008F44008E0
:10191000B8F5000F04D14FF40048C0F838800CE04F
:10192000DFF80C82D8F8308008F44008B8F5400F92
:1019300003D1DFF80082C0F83880BDE8F0810021D3
:10194000010F31B17A4AD26A22F47852784BDA62C6
:1019500005E0774AD26A22F4F872754BDA62744A6B
:10196000D26A0243724BDA6270470021010F31B133
:101970006F4A126B22F020026D4B1A6305E06C4A2D
:10198000126B22F010026A4B1A63694A126B02430F
:10199000674B1A6370470021010F31B1644A126B23
:1019A00022F40072624B1A6305E0614A126B22F462
:1019B00080725F4B1A635E4A126B02435C4B1A6380
:1019C00070470021010F062927D2DFE801F0260326
:1019D0000A11181F564A126B22F00302544B1A6365
:1019E0001CE0534A126B22F44032514B1A6315E04B
:1019F0004F4A126B22F440224D4B1A630EE04C4AC0
:101A0000126B22F440124A4B1A6307E0484A126BE9
:101A100022F44002464B1A6300E000BF00BF444A74
:101A2000126B0243424B1A63704743490860704788
:101A30003F49096A01433E4A116270473F490860C5
:101A400070473F49086070473D49091D086070476D
:101A500029B1374A52690243354B5A6104E0344A8E
:101A600052698243324B5A61704729B1304A9269B8
:101A700002432F4B9A6104E02D4A926982432C4B1A
:101A80009A61704729B12A4AD2690243284BDA6128
:101A900004E0274AD2698243254BDA61704729B1B5
:101AA000234A926A0243224B9A6204E0204A926AD5
:101AB00082431F4B9A62704729B11D4AD268024384
:101AC0001B4BDA6004E01A4AD2688243184BDA6092
:101AD000704729B1164A12690243154B1A6104E096
:101AE000134A12698243124B1A61704729B1104A96
:101AF000527A02430E4B5A7204E00D4A527A8243E4
:101B00000B4B5A7270470A48406A40F0807008498F
:101B10004862704701460020054A92680A4201D097
:101B2000012000E0002070470149887270470000E2
:101B30000010024000127A00D8004242DC0042420B
:101B40003C0442425148006800F003004F490860DD
:101B50000846006840F0F84008600020486088604F
:101B600000214A48C1600161416100204749886104
:101B7000704701460020454A106820F003000843E2
:101B80001060704729B1414A126802433F4B1A6006
:101B900004E03E4A126882433C4B1A60704729B108
:101BA0003A4A12680243394B1A6004E0374A126815
:101BB0008243364B1A6070473449096821F440016A
:101BC000324A11601146096801431160704730497B
:101BD0004861704729B12D4A126802432B4B1A60A5
:101BE00004E02A4A12688243284B1A60704729B1E0
:101BF000264A12680243254B1A6004E0234A126801
:101C00008243224B1A60704730B500228B071C0FAD
:101C10000F2303FA04F21D4B08338C1053F82430C1
:101C200093431A4C08348D1044F8253023468C1009
:101C300053F824308C07240F00FA04F42343134C88
:101C400008348D1044F8253030BD104989690143AE
:101C50000E4A9161704701200E49086070470B4998
:101C600049680143094A5160704701460020074A0C
:101C7000926912F4807F01D0012000E000207047BB
:101C8000024989690143014A91617047000001409E
:101C9000000020421003204210B50446FD48844253
:101CA00008D10121C014FFF707FF0021E014FFF75E
:101CB00003FF6DE0B4F1804F08D101210846FFF722
:101CC00008FF00210120FFF704FF61E0F248844291
:101CD00008D101210220FFF7FCFE00210220FFF7BE
:101CE000F8FE55E0ED48844208D101210420FFF7B9
:101CF000F0FE00210420FFF7ECFE49E0E8488442B2
:101D000008D101211020FFF7E4FE00211020FFF789
:101D1000E0FE3DE0E348844208D101212020FFF7A6
:101D2000D8FE00212020FFF7D4FE31E0DE488442B7
:101D300008D101214014FFF7BFFE00216014FFF716
:101D4000BBFE25E0D948844209D101210804FFF7F0
:101D5000B3FE00214FF48030FFF7AEFE18E0D44808
:101D6000844209D101214804FFF7A6FE00214FF467
:101D70000030FFF7A1FE0BE0CE48844208D10121DC
:101D80008804FFF799FE00214FF48020FFF794FEAE
:101D900010BD00220288BF4B98420BD0C24B984224
:101DA00008D0B0F1804F05D0BB4B984202D0BB4B5E
:101DB000984204D14FF68F731A404B881A43B84BA0
:101DC000984207D0B74B984204D04FF6FF431A40D1
:101DD0000B891A4302804B68C3620B880385AD4BA5
:101DE00098420BD0B04B984208D0B04B984205D0E7
:101DF000AF4B984202D0AF4B984201D18B7A038609
:101E00000123436170474FF0FF31416000210180A1
:101E100001814180817270470185426170470A46A5
:101E2000002101884FF68F731940114301807047DC
:101E300041627047C16270470146486A7047014677
:101E4000088D704721B1028842F00202028004E04E
:101E500002884FF6FD731A400280704721B1028854
:101E600042F00402028004E002884FF6FB731A403D
:101E70000280704721B1028842F40062028004E0CF
:101E800002884FF2FF731A400280704721B1028826
:101E900042F08002028004E002884FF67F731A400D
:101EA0000280704702884FF6F7731A40028002885A
:101EB0000A430280704702884FF6FF431A400280AF
:101EC00002880A430280704721B1028842F0010271
:101ED000028004E002884FF6FE731A4002807047C9
:101EE00030B5002400220023056A25F001050562B3
:101EF000026A43688469704D2C4024F003040D6825
:101F00002C4322F002028D892A438D882A43614D99
:101F1000A8420BD0644DA84208D0644DA84205D019
:101F2000634DA84202D0634DA8420FD122F00802AF
:101F3000CD892A4322F00402CD882A4323F48073FA
:101F400023F400730D8A2B434D8A2B434360846135
:101F50008D684563026230BD30B500240022002345
:101F6000056A25F010050562026A43688469534DCD
:101F70002C4024F440740D6844EA052422F0200229
:101F80008D8942EA05128D8842EA0512414DA84228
:101F900002D0454DA84213D122F08002CD8942EAF9
:101FA000051222F04002CD8842EA051223F4806334
:101FB00023F400630D8A43EA85034D8A43EA8503CF
:101FC000436084618D688563026230BD30B5002452
:101FD00000220023056A25F480750562026A4368C1
:101FE000C46924F0700424F003040D682C4322F427
:101FF00000728D8942EA05228D8842EA0522254D2C
:10200000A84202D0284DA84213D122F40062CD8903
:1020100042EA052222F48062CD8842EA052223F4B6
:10202000805323F400530D8A43EA05134D8A43EA93
:1020300005134360C4618D68C563026230BD30B56D
:10204000002200230024056A25F480550562036AF6
:102050004468C26922F4E04222F440720D6842EA08
:10206000052223F400538D8943EA05338D8843EA22
:102070000533084DA84202D00B4DA84204D124F4E8
:1020800080440D8A44EA85144460C2618D68056409
:10209000036230BD002C01400004004000080040F5
:1020A0000010004000140040003401400040014096
:1020B00000440140004801408FFFFEFFFF8FFFFEFC
:1020C00030B5002300220024056A25F4803505621E
:1020D000026A4468436D23F070030D682B4322F4B9
:1020E00000328D8942EA05428D8842EA0542FE4D62
:1020F000A84202D0FD4DA84204D124F480340D8AB8
:1021000044EA0544446043658D688565026230BDDC
:1021100070B5002300220024056A25F480150562AD
:10212000026A4468436D23F4E0430D6843EA0523E3
:1021300022F400128D8942EA05528D8842EA055246
:10214000E94DA84202D0E94DA84207D124F4003459
:102150000D8A4FF6FF7606EA85452C4344604365B9
:102160008D68C565026270BD21B1826D42F000527A
:10217000826503E0826D22F000528265704721B1D2
:10218000826D42F08042826503E0826D22F08042DF
:102190008265704721B1826D42F00042826503E0A2
:1021A000826D22F0004282657047002101608180CB
:1021B000C18081608181C18101824182704770B597
:1021C0000346002000241846183001258D40ACB28B
:1021D0001D6AE643B6B235401D6209B1082909D12E
:1021E00000EB61000568C24E354005600568154387
:1021F00005600DE00D1F00EB55000568BD4E354034
:10220000056005684FF6FF7606EA0226354305604D
:1022100070BD4163704781637047C163704701645B
:10222000704781657047C16570470A460021816922
:10223000AF4B19401143816170470A460021816903
:10224000AC4B194041EA0221816170470A460021E6
:10225000C16921F070011143C16170470A46002134
:10226000C16921F4E04141EA0221C16170470A4697
:102270000021416D21F070011143416570470A460C
:102280000021416D21F4E04141EA0221416570479E
:102290000A460021816921F00801114381617047DC
:1022A0000A460021816921F4006141EA022181612D
:1022B00070470A460021C16921F008011143C1613C
:1022C00070470A460021C16921F4006141EA0221F8
:1022D000C16170470A460021416D21F00801114398
:1022E000416570470A460021416D21F4006141EAD1
:1022F0000221416570470A460021816921F00401ED
:102300001143816170470A460021816921F480618F
:1023100041EA0221816170470A460021C16921F02A
:1023200004011143C16170470A460021C16921F4CB
:10233000806141EA0221C16170470A46002181693A
:1023400021F080011143816170470A4600218169B3
:1023500021F4004141EA0221816170470A460021CF
:10236000C16921F080011143C16170470A46002113
:10237000C16921F4004141EA0221C16170470A4666
:102380000021416D21F080011143416570470A46EB
:102390000021416D21F4004141EA0221416570476D
:1023A00082684FF6F7731A40826082680A4382603F
:1023B00070470A460021016A21F0020111430162BF
:1023C00070470A460021016A21F0080111430162A9
:1023D00070470A460021016A21F0200141EA0211FA
:1023E000016270470A460021016A21F0800141EA3A
:1023F0000211016270470A460021016A21F400714E
:1024000041EA0221016270470A460021016A21F473
:10241000006141EA0221016270470A460021016A17
:1024200021F4005141EA0231016270470A4600215D
:10243000016A21F4003141EA0241016270470A4613
:102440000021016A21F4001141EA02510162704742
:1024500030B50023012404FA01F3046A9C430462AA
:10246000046A02FA01F52C43046230BD30B5002342
:10247000042404FA01F3046A9C430462046A02FA25
:1024800001F52C43046230BDC2694FF2FF331A409C
:10249000C261C2694FF6FF7303EA01231A43C261A6
:1024A0007047F0B50C461546002100220026076A49
:1024B0004EF6FF7C07EA0C070762C769B9B2076AE4
:1024C000BAB24FF6FF7707EA043640F6FF473940C5
:1024D0004FF6FF7707EA052739434FF6FF7707EAFC
:1024E0000337394308E00000002C0140003401406C
:1024F0008FFFFEFFFF8FFFFE45F6FF773A4046F461
:1025000080573A43C1610262F0BDC2694FF6F3736E
:102510001A40C261C2690A43C2617047F0B50C46F5
:102520001546002100220026076A4FF6FF6C07EAD5
:102530000C070762C769B9B2076ABAB24FF6FF77EC
:1025400007EA04264FF60C7739404FF6FF7707EA83
:1025500003172F4339434FF2FF573A4046F4807731
:102560003A43C1610262F0BD826922F44062826135
:10257000826942EA012282617047F0B50C46154635
:10258000002100220026076A4FF6EF7C07EA0C07BD
:1025900007628169026A4FF6FF7707EA041621F4A1
:1025A000734141EA033141EA05214FF65F773A4032
:1025B00046F010073A4381610262F0BD826922F061
:1025C0000C02826182690A438261704770B50C46D1
:1025D000154600210022066A26F00106066281697E
:1025E000026A21F0F30145EA0316314322F00A02A0
:1025F00044F0010632438161026270BD70B5054648
:102600000C46208850B92389A28861882846FFF7A4
:10261000DDFFE1882846FFF7D1FF25E02088042868
:102620000AD12389A28861882846FFF7A6FFE1889E
:102630002846FFF799FF17E0208808280AD1238948
:10264000A28861882846FFF769FFE1882846FFF7DE
:102650005CFF09E02389A28861882846FFF721FFF3
:10266000E1882846FFF710FF70BD002101804180FE
:10267000012181800021C180018170472DE9F04155
:1026800005460C4600260127608808B9022600E0AE
:102690000026A088012801D1022700E00127208818
:1026A000A0B92389A28861882846FFF78FFFE188B7
:1026B0002846FFF783FF23893A4631462846FFF72D
:1026C0005CFFE1882846FFF74FFF13E02389A288CB
:1026D00061882846FFF751FFE1882846FFF744FF4D
:1026E00023893A4631462846FFF770FFE18828469D
:1026F000FFF764FFBDE8F0810146486B7047014673
:10270000886B70470146C86B70470146086C70477C
:102710000A884B881A438B881A43CB881A430B8943
:102720001A434B891A438B891A434264704710B588
:10273000436C23F472234364436C41EA0244234311
:10274000436410BD10B5436C23F03C734364436C89
:1027500041EA02542343436410BD21B1426C42F468
:102760008052426403E0426C22F48052426470471B
:1027700021B1426C42F08072426403E0426C22F06C
:102780008072426470470021018041808180C18055
:10279000018141818181704721B1426C42F4004244
:1027A000426403E0426CC2F30E024264704721B1FE
:1027B000426842F00402426004E042684FF6FB7354
:1027C0001A404260704721B1426842F00102426003
:1027D00004E042684FF6FE731A404260704710B53D
:1027E0001AB1C3680B43C36004E0C368CC43A4B20E
:1027F0002340C36010BD4161704702460020136949
:102800000B4201D0012000E000207047CA4392B281
:102810000261704730B5024600200023002415698C
:1028200005EA0103D56805EA010413B10CB10120E2
:1028300000E0002030BDCA4392B20261704741EA15
:102840000203A0F84830704710B51AB1C3680B43B3
:10285000C36004E0C368CC43A4B22340C36010BD8E
:1028600021B1426842F00802426004E042684FF63B
:10287000F7731A404260704781684FF6F872114052
:10288000816070470A460021836899B24FF68F73C2
:10289000194011438160704730B504460D46294602
:1028A0002046FFF7EFFFA06840F00700A06030BDB2
:1028B0002DE9F04104460D4616461F46602D06D10F
:1028C0003B46012231462046FFF757FE05E03B46D6
:1028D000012231462046FFF779FE29462046FFF7C0
:1028E000D1FFA06840F00700A060BDE8F08130B5DE
:1028F0000C4600218568A9B2C9B24FF6FF7505EAFA
:102900000325154325432943816030BD2DE9F0415E
:1029100005460E4617469846002443463A46314639
:102920002846FFF7E4FFA86884B24FF6F870044029
:1029300044F007044FF68F70044044F07004AC601C
:10294000BDE8F081F0B504460D4616461F463B46ED
:10295000324629462046FFF7CAFFA06840F480406F
:10296000A060F0BD42684FF68F731A404260426823
:102970000A4342607047426822F470024260426833
:102980000A43426070478268214B1A408260826825
:102990000A438260704782684FF67F731A408260F4
:1029A00082680A4382607047F0B50C4615461E46A1
:1029B0000021002200238768B9B28769BAB2076A8A
:1029C000BBB24FF6F877394021434FF6FC473A4007
:1029D00040F201173A434FF6DD773B404FF6FF7761
:1029E00007EA06172F433B43816082610362F0BD13
:1029F00021B1426842F08002426004E042684FF632
:102A00007F731A4042607047A0F850107047000072
:102A1000F8FFFEFF10B50446F948844209D10121B0
:102A20008803FFF749F800214FF48040FFF744F88E
:102A300032E0F448844209D101214804FFF749F803
:102A400000214FF40030FFF744F825E0EE488442BF
:102A500009D101218804FFF73CF800214FF48020C0
:102A6000FFF737F818E0E948844209D10121C8048A
:102A7000FFF72FF800214FF40020FFF72AF80BE0B2
:102A8000E348844208D101210805FFF722F800211C
:102A90004FF48010FFF71DF810BD2DE9F04190B004
:102AA00004460D460027B8460026206820F00100A5
:102AB0002060666826F44056A8680643666026686B
:102AC00041F20C608643E968686808432969084355
:102AD00006432660A66826F4407668690643A66029
:102AE00001A8FEF70CFDC648844202D1DDF82C8017
:102AF00013E0C448844202D1DDF830800DE0C248C2
:102B0000844202D1DDF8348007E0C048844202D11B
:102B1000DDF8388001E0DDF83C80206810F4004FDB
:102B20000CD04FEA48002968B0FBF1F74FEA4800A3
:102B30002968B0FBF1F201FB120607E02868B8FB38
:102B4000F0F72868B8FBF0F100FB11862868B6EBB7
:102B5000500F00D37F1C206810F4004F07D0C7F33C
:102B600042064FF6F07107EA010040EA0607A78126
:102B700010B0BDE8F0814FF41651016000214160B2
:102B80008160C1600C21016100214161704710B575
:102B90000022426822F47062D1E9003423438C6839
:102BA0002343CC6823431A43426010BD00210160D7
:102BB00041608160C160704721B1026842F001024A
:102BC000026003E0026822F00102026070471AB15D
:102BD00003680B43036002E003688B4303607047A4
:102BE00021B1026842F40042026003E0026822F46C
:102BF00000420260704721B1826842F40062826044
:102C000003E0826822F400628260704721B142686A
:102C100042F40022426003E0426822F40022426053
:102C2000704721B1426842F48022426003E042686A
:102C300022F48022426070471AB143680B4343601C
:102C400002E043688B434360704721B1426842F41D
:102C50000042426003E0426822F400424260704752
:102C600021B1426842F40002426003E0426822F46B
:102C7000000242607047426902F07F42426142694D
:102C80000A4342617047028A02F47F420282028A4A
:102C90000A430282704721B1026842F002020260D8
:102CA00003E0026822F0020202607047826822F4A8
:102CB0004012826082680A438260704721B1426894
:102CC00042F48012426003E0426822F480124260C3
:102CD0007047426822F4C002426042680A43426080
:102CE0007047C1F30802028570470146888CC0F323
:102CF00008007047426822F07F424260426842EA20
:102D000001624260704721B1026842F400520260E1
:102D100003E0026822F4005202607047026822F465
:102D20000062026002680A4302607047426822F053
:102D30001002426042680A4342607047426822F0D3
:102D40002002426042680A434260704721B14268F3
:102D500042F48042426003E0426822F480424260D2
:102D6000704721B1826842F00802826003E0826805
:102D700022F0080282607047028AD2B20282028A7E
:102D800042EA01220282704721B1826842F02002A9
:102D9000826003E0826822F020028260704721B1E5
:102DA000826842F01002826003E0826822F0100222
:102DB00082607047826822F460228260826842EA00
:102DC000414282607047426922F07F42426142691B
:102DD00042EA016242617047826822F00402826026
:102DE00082680A438260704721B1826842F0020221
:102DF000826003E0826822F0020282607047000075
:102E0000003801400044004000480040004C0040B1
:102E10000050004021B1826842F48042826003E0A9
:102E2000826822F4804282607047826822F4004205
:102E3000826082680A4382607047026822F078727A
:102E40000260026842EA415202607047026822F45E
:102E5000F8120260026842EA0142026070471AB149
:102E600083680B43836002E083688B438360704711
:102E7000826822F40052826082680A43826070474E
:102E8000F0B5034600240026002500201846C1F3B3
:102E90000724CEB2012707FA06F5022C01D1001D46
:102EA00002E0032C00D108301AB107682F430760F5
:102EB00002E00768AF430760F0BD1AB1038B0B4314
:102EC000038302E0038B8B4303837047826822F401
:102ED0008052826082680A43826070470246002006
:102EE000D3690B4201D0012000E00020704701624D
:102EF000704770B502460B460024002100250020D3
:102F0000C3F30725D9B2012606FA01F1012D02D13A
:102F10001668314006E0022D02D15668314001E0CA
:102F2000966831401C0C012606FA04F4D669344038
:102F300011B10CB1012000E0002070BD10B50022DD
:102F400000230A0C012404FA02F3036210BD0000FE
:102F500070B504460D4600BF8021E048FFF7BEFF74
:102F60000028F9D029462046FFF7BBFE70BD2DE9A9
:102F7000F04104460E46142700253CB9FE21D748EF
:102F8000FFF7E6FF8021D548FFF7E2FF012C07D1CC
:102F9000FE21D248FFF7DCFFC021D048FFF7D8FF61
:102FA000022C07D1FE21CD48FFF7D2FF9421CB4858
:102FB000FFF7CEFF05E0715DC848FFF7C9FF681C49
:102FC000C5B2BD42F7DBBDE8F08110B52DED0C8B2D
:102FD000B0EE408AF0EE608AB0EE419AF0EE619A6F
:102FE000B0EE42AAF0EE62AA53EC1A2B51EC180B89
:102FF00003F018FF41EC100BB0EE40BAF0EE60BAEF
:1030000053EC192B51EC180B03F00CFF41EC100B97
:10301000B0EE40DAF0EE60DA9FEDB10B53EC102B1E
:1030200051EC1D0B03F072FB41EC100BB0EE40CAEB
:10303000F0EE60CA53EC1C2B51EC1B0B03F066FB4B
:1030400041EC100BB0EE40DAF0EE60DA51EC1D0B03
:1030500003F0F0FC0446142C04D1A3A10320FFF7D5
:1030600086FF89E024B9A6A10320FFF780FF83E053
:10307000012C04D1A8A10320FFF779FF7CE0022CEA
:1030800004D1ABA10320FFF772FF75E0032C04D13C
:10309000ADA10320FFF76BFF6EE0042C04D1B0A1BB
:1030A0000320FFF764FF67E0052C04D1B2A10320E1
:1030B000FFF75DFF60E0062C04D1B5A10320FFF708
:1030C00056FF59E0072C04D1B7A10320FFF74FFFAB
:1030D00052E0082C04D1BAA10320FFF748FF4BE0CF
:1030E000092C04D1BCA10320FFF741FF44E00A2CC6
:1030F00004D1BFA10320FFF73AFF3DE00B2C04D120
:10310000C1A10320FFF733FF36E00C2C04D1C4A18A
:103110000320FFF72CFF2FE00D2C04D1C6A10320C4
:10312000FFF725FF28E00E2C04D1C9A10320FFF7EB
:103130001EFF21E00F2C04D1CBA10320FFF717FFC6
:103140001AE0102C04D1CEA10320FFF710FF13E0EA
:10315000112C04D1D0A10320FFF709FF0CE0122CA1
:1031600004D1D3A10320FFF702FF05E0132C03D104
:10317000D5A10320FFF7FBFEBDEC0C8B10BD10B5F5
:103180002DED028BB0EE408AF0EE608A9FEDD40BFD
:1031900053EC102B51EC180B03F010FC03D1D2A010
:1031A000BDEC028B10BD9FEDD60B53EC102B51ECF8
:1031B000180B03F003FC01D1D3A0F1E79FEDD80B6E
:1031C00053EC102B51EC180B03F0F8FB01D1D6A0F7
:1031D000E6E79FEDDB0B53EC102B51EC180B03F0E3
:1031E000EDFB01D1D8A0DBE79FEDDD0B53EC102BFD
:1031F00051EC180B03F0E2FB01D1DBA0D0E79FED0F
:10320000E00B53EC102B51EC180B03F0D7FB01D162
:10321000DDA0C5E79FEDE20B53EC102B51EC180B32
:1032200003F0CCFB01D1E0A0BAE79FEDE50B53EC36
:10323000102B51EC180B03F0C1FB01D1E2A0AFE75A
:103240009FEDE70B53EC102B51EC180B03F0B6FB82
:1032500001D1E5A0A4E79FEDEA0B53EC102B51EC54
:10326000180B03F0ABFB01D1E7A099E79FEDEC0B46
:1032700053EC102B51EC180B03F0A0FB01D1EAA08A
:103280008EE79FEDEF0B53EC102B51EC180B03F076
:1032900095FB01D1ECA083E79FEDF10B53EC102BD4
:1032A00051EC180B03F08AFB01D1EFA078E79FEDFA
:1032B000F40B53EC102B51EC180B03F07FFB01D1F6
:1032C000F1A06DE79FEDF60B53EC102B51EC180BB2
:1032D00003F074FB01D1F4A062E7F1E10038014092
:1032E00000000000000034402D2D2D2D2D2D2D2D02
:1032F0002D2D2D2D2D2D2D2D2D2D2D2D00000000B2
:10330000202D2D2D2D2D2D2D2D2D2D2D2D2D2D2DFA
:103310002D2D2D2D000000002D202D2D2D2D2D2D9E
:103320002D2D2D2D2D2D2D2D2D2D2D2D0000000081
:103330002D2D202D2D2D2D2D2D2D2D2D2D2D2D2DCA
:103340002D2D2D2D000000002D2D2D202D2D2D2D6E
:103350002D2D2D2D2D2D2D2D2D2D2D2D0000000051
:103360002D2D2D2D202D2D2D2D2D2D2D2D2D2D2D9A
:103370002D2D2D2D000000002D2D2D2D2D202D2D3E
:103380002D2D2D2D2D2D2D2D2D2D2D2D0000000021
:103390002D2D2D2D2D2D202D2D2D2D2D2D2D2D2D6A
:1033A0002D2D2D2D000000002D2D2D2D2D2D2D200E
:1033B0002D2D2D2D2D2D2D2D2D2D2D2D00000000F1
:1033C0002D2D2D2D2D2D2D2D202D2D2D2D2D2D2D3A
:1033D0002D2D2D2D000000002D2D2D2D2D2D2D2DD1
:1033E0002D202D2D2D2D2D2D2D2D2D2D00000000CE
:1033F0002D2D2D2D2D2D2D2D2D2D202D2D2D2D2D0A
:103400002D2D2D2D000000002D2D2D2D2D2D2D2DA0
:103410002D2D2D202D2D2D2D2D2D2D2D000000009D
:103420002D2D2D2D2D2D2D2D2D2D2D2D202D2D2DD9
:103430002D2D2D2D000000002D2D2D2D2D2D2D2D70
:103440002D2D2D2D2D202D2D2D2D2D2D000000006D
:103450002D2D2D2D2D2D2D2D2D2D2D2D2D2D202DA9
:103460002D2D2D2D000000002D2D2D2D2D2D2D2D40
:103470002D2D2D2D2D2D2D202D2D2D2D000000003D
:103480002D2D2D2D2D2D2D2D2D2D2D2D2D2D2D2D6C
:10349000202D2D2D000000002D2D2D2D2D2D2D2D1D
:1034A0002D2D2D2D2D2D2D2D2D202D2D000000000D
:1034B0002D2D2D2D2D2D2D2D2D2D2D2D2D2D2D2D3C
:1034C0002D2D202D000000002D2D2D2D2D2D2D2DED
:1034D0002D2D2D2D2D2D2D2D2D2D2D2000000000DD
:1034E00000000000000034C0202020202020202DDB
:1034F00032302E302020202020202020000000000C
:1035000000000000008033C0202020202020202D3B
:1035100031392E35202020202020202000000000DE
:1035200000000000000033C0202020202020202D9B
:1035300031392E30202020202020202000000000C3
:1035400000000000008032C0202020202020202DFC
:1035500031382E352020202020202020000000009F
:1035600000000000000032C0202020202020202D5C
:1035700031382E3020202020202020200000000084
:1035800000000000008031C0202020202020202DBD
:1035900031372E3520202020202020200000000060
:1035A00000000000000031C0202020202020202D1D
:1035B00031372E3020202020202020200000000045
:1035C00000000000008030C0202020202020202D7E
:1035D00031362E3520202020202020200000000021
:1035E00000000000000030C0202020202020202DDE
:1035F00031362E3020202020202020200000000006
:103600000000000000002FC0202020202020202DBE
:1036100031352E35202020202020202000000000E1
:103620000000000000002EC0202020202020202D9F
:1036300031352E30202020202020202000000000C6
:103640000000000000002DC0202020202020202D80
:1036500031342E35202020202020202000000000A2
:103660000000000000002CC0202020202020202D61
:1036700031342E3020202020202020200000000087
:103680000000000000002BC0202020202020202D42
:1036900031332E3520202020202020200000000063
:1036A0000000000000002AC0202020202020202D23
:1036B00031332E3020202020202020200000000048
:1036C0009FEDAF0B53EC102B51EC180B03F076F978
:1036D00001D1ADA064E59FEDB20B53EC102B51EC82
:1036E000180B03F06BF901D1AFA059E59FEDB40BB6
:1036F00053EC102B51EC180B03F060F901D1B2A080
:103700004EE59FEDB70B53EC102B51EC180B03F06B
:1037100055F901D1B4A043E59FEDB90B53EC102B43
:1037200051EC180B03F04AF901D1B7A038E59FED31
:10373000BC0B53EC102B51EC180B03F03FF901D1EB
:10374000B9A02DE59FEDBE0B53EC102B51EC180BDF
:1037500003F034F901D1BCA022E59FEDC10B53EC7D
:10376000102B51EC180B03F029F901D1BEA017E57D
:103770009FEDC30B53EC102B51EC180B03F01EF90B
:1037800001D1C1A00CE59FEDC60B53EC102B51EC01
:10379000180B03F013F901D1C3A001E59FEDC80B8D
:1037A00053EC102B51EC180B03F008F901D1C6A013
:1037B000F6E49FEDCB0B53EC102B51EC180B03F000
:1037C000FDF801D1C8A0EBE49FEDCD0B53EC102B1D
:1037D00051EC180B03F0F2F801D1CBA0E0E49FED1F
:1037E000D00B53EC102B51EC180B03F0E7F801D180
:1037F000CDA0D5E49FEDD20B53EC102B51EC180B60
:1038000003F0DCF801D1D0A0CAE49FEDD50B53EC56
:10381000102B51EC180B03F0D1F801D1D2A0BFE46A
:103820009FEDD70B53EC102B51EC180B03F0C6F89F
:1038300001D1D5A0B4E49FEDDA0B53EC102B51EC81
:10384000180B03F0BBF801D1D7A0A9E49FEDDC0B66
:1038500053EC102B51EC180B03F0B0F801D1DAA0A7
:103860009EE49FEDDF0B53EC102B51EC180B03F093
:10387000A5F801D1DCA093E49FEDE10B53EC102BF4
:1038800051EC180B03F09AF801D1DFA088E49FED0A
:10389000E40B53EC102B51EC180B03F08FF801D113
:1038A000E1A07DE49FEDE60B53EC102B51EC180BDF
:1038B00003F084F801D1E4A072E49FEDE90B53EC2E
:1038C000102B51EC180B03F079F801D1E6A067E456
:1038D0009FEDEB0B53EC102B51EC180B03F06EF833
:1038E00001D1E9A05CE49FEDEE0B53EC102B51EC01
:1038F000180B03F063F801D1EBA051E49FEDF00B3E
:1039000053EC102B51EC180B03F058F801D1EEA03A
:1039100046E49FEDF30B53EC102B51EC180B03F026
:103920004DF801D1F0A03BE49FEDF50B53EC102BCB
:1039300051EC180B03F042F801D1F3A030E49FEDF5
:10394000F80B53EC102B51EC180B03F037F801D1A6
:10395000F5A025E49FEDFA0B53EC102B51EC180B5E
:1039600003F02CF801D1F8A01AE49FEDFD0B53EC05
:10397000102B51EC180B03F021F800D1F4E1F5E124
:1039800000000000000029C0202020202020202D41
:1039900031322E3520202020202020200000000061
:1039A00000000000000028C0202020202020202D22
:1039B00031322E3020202020202020200000000046
:1039C00000000000000027C0202020202020202D03
:1039D00031312E3520202020202020200000000022
:1039E00000000000000026C0202020202020202DE4
:1039F00031312E3020202020202020200000000007
:103A000000000000000025C0202020202020202DC4
:103A100031302E35202020202020202000000000E2
:103A200000000000000024C0202020202020202DA5
:103A300031302E30202020202020202000000000C7
:103A400000000000000023C0202020202020202093
:103A50002D392E352020202020202020000000009D
:103A600000000000000022C0202020202020202074
:103A70002D392E3020202020202020200000000082
:103A800000000000000021C0202020202020202055
:103A90002D382E352020202020202020000000005E
:103AA00000000000000020C0202020202020202036
:103AB0002D382E3020202020202020200000000043
:103AC0000000000000001EC0202020202020202018
:103AD0002D372E352020202020202020000000001F
:103AE0000000000000001CC02020202020202020FA
:103AF0002D372E3020202020202020200000000004
:103B00000000000000001AC02020202020202020DB
:103B10002D362E35202020202020202000000000DF
:103B200000000000000018C02020202020202020BD
:103B30002D362E30202020202020202000000000C4
:103B400000000000000016C020202020202020209F
:103B50002D352E35202020202020202000000000A0
:103B600000000000000014C0202020202020202081
:103B70002D352E3020202020202020200000000085
:103B800000000000000012C0202020202020202063
:103B90002D342E3520202020202020200000000061
:103BA00000000000000010C0202020202020202045
:103BB0002D342E3020202020202020200000000046
:103BC0000000000000000CC0202020202020202029
:103BD0002D332E3520202020202020200000000022
:103BE00000000000000008C020202020202020200D
:103BF0002D332E3020202020202020200000000007
:103C000000000000000004C02020202020202020F0
:103C10002D322E35202020202020202000000000E2
:103C200000000000000000C02020202020202020D4
:103C30002D322E30202020202020202000000000C7
:103C4000000000000000F8BF2020202020202020BD
:103C50002D312E35202020202020202000000000A3
:103C6000000000000000F0BF2020202020202020A5
:103C70002D312E3020202020202020200000000088
:103C8000000000000000E0BF202020202020202095
:103C90002D302E3520202020202020200000000064
:103CA0000000000000000000202020202020202014
:103CB00020302E3020202020202020200000000056
:103CC0009A9999999999B93F202020202020202065
:103CD00020302E3120202020202020200000000035
:103CE000333333333333C33F2020202020202020A0
:103CF00020302E3135202020202020200000000000
:103D00009A9999999999C93F202020202020202014
:103D100020302E32202020202020202000000000F3
:103D2000000000000000D03F202020202020202084
:103D300020302E32352020202020202000000000BE
:103D4000333333333333D33F20202020202020202F
:103D500020302E33202020202020202000000000B2
:103D6000666666666666D63FABA0B3E49FEDB00BB1
:103D700053EC102B51EC180B02F020FE01D1AEA039
:103D8000A8E49FEDB30B53EC102B51EC180B02F091
:103D900015FE01D1B0A09DE49FEDB50B53EC102BA7
:103DA00051EC180B02F00AFE01D1B3A092E49FED92
:103DB000B80B53EC102B51EC180B02F0FFFD01D1A6
:103DC000B5A087E49FEDBA0B53EC102B51EC180B08
:103DD00002F0F4FD01D1B8A07CE49FEDBD0B53ECE3
:103DE000102B51EC180B02F0E9FD01D1BAA071E4DF
:103DF0009FEDBF0B53EC102B51EC180B02F0DEFDC6
:103E000001D1BDA066E49FEDC20B53EC102B51EC29
:103E1000180B02F0D3FD01D1BFA05BE49FEDC40BF2
:103E200053EC102B51EC180B02F0C8FD01D1C2A0CD
:103E300050E49FEDC70B53EC102B51EC180B02F024
:103E4000BDFD01D1C4A045E49FEDC90B53EC102B7F
:103E500051EC180B02F0B2FD01D1C7A03AE49FED7E
:103E6000CC0B53EC102B51EC180B02F0A7FD01D139
:103E7000C9A02FE49FEDCE0B53EC102B51EC180B87
:103E800002F09CFD01D1CCA024E49FEDD10B53ECBA
:103E9000102B51EC180B02F091FD01D1CEA019E4CA
:103EA0009FEDD30B53EC102B51EC180B02F086FD59
:103EB00001D1D1A00EE49FEDD60B53EC102B51ECA9
:103EC000180B02F07BFD01D1D3A00EE49FEDD80BBF
:103ED00053EC102B51EC180B02F070FD01D1D6A061
:103EE0000EE49FEDDB0B53EC102B51EC180B02F0A2
:103EF00065FD01D1D8A00EE49FEDDD0B53EC102B36
:103F000051EC180B02F05AFD01D1DBA00EE49FED3D
:103F1000E00B53EC102B51EC180B02F04FFD01D1CC
:103F2000DDA00EE49FEDE20B53EC102B51EC180BCF
:103F300002F044FD01D1E0A00EE49FEDE50B53EC4F
:103F4000102B51EC180B02F039FD01D1E2A00EE468
:103F50009FEDE70B53EC102B51EC180B02F02EFDEC
:103F600001D1E5A00EE49FEDEA0B53EC102B51ECD0
:103F7000180B02F023FD01D1E7A00EE49FEDEC0B3E
:103F800053EC102B51EC180B02F018FD01D1EAA0F4
:103F90000EE49FEDEF0B53EC102B51EC180B02F0DD
:103FA0000DFD01D1ECA00EE49FEDF10B53EC102BB5
:103FB00051EC180B02F002FD01D1EFA00EE49FEDD1
:103FC000F40B53EC102B51EC180B02F0F7FC01D161
:103FD000F1A00EE49FEDF60B53EC102B51EC180BF7
:103FE00002F0ECFC01D1F4A00EE49FEDF90B53ECD0
:103FF000102B51EC180B02F0E1FC01D1F6A00EE4FD
:104000009FEDFB0B53EC102B51EC180B02F0D6FC80
:1040100000D1F1E1F2E1000020202020202020202A
:1040200020302E33352020202020202000000000CA
:104030009A9999999999D93F2020202020202020D1
:1040400020302E34202020202020202000000000BE
:10405000CDCCCCCCCCCCDC3F20202020202020207C
:1040600020302E3435202020202020200000000089
:10407000000000000000E03F202020202020202021
:1040800020302E352020202020202020000000007D
:104090009A9999999999E13F202020202020202069
:1040A00020302E3535202020202020200000000048
:1040B000333333333333E33F2020202020202020AC
:1040C00020302E362020202020202020000000003C
:1040D000CDCCCCCCCCCCE43F2020202020202020F4
:1040E00020302E3635202020202020200000000007
:1040F000666666666666E63F202020202020202037
:1041000020302E37202020202020202000000000FA
:10411000000000000000E83F202020202020202078
:1041200020302E37352020202020202000000000C5
:104130009A9999999999E93F2020202020202020C0
:1041400020302E38202020202020202000000000B9
:10415000333333333333EB3F202020202020202003
:1041600020302E3835202020202020200000000084
:10417000CDCCCCCCCCCCEC3F20202020202020204B
:1041800020302E3920202020202020200000000078
:10419000666666666666EE3F20202020202020208E
:1041A00020302E3935202020202020200000000043
:1041B000000000000000F03F2020202020202020D0
:1041C00020312E3020202020202020200000000040
:1041D000CDCCCCCCCCCCF03F2020202020202020E7
:1041E00020312E303520202020202020000000000B
:1041F0009A9999999999F13F2020202020202020F8
:1042000020312E31202020202020202000000000FE
:10421000666666666666F23F202020202020202009
:1042200020312E31352020202020202000000000C9
:10423000333333333333F33F20202020202020201A
:1042400020312E32202020202020202000000000BD
:10425000000000000000F83F202020202020202027
:1042600020312E352020202020202020000000009A
:1042700000000000000000402020202020202020FE
:1042800020322E302020202020202020000000007E
:1042900000000000000004402020202020202020DA
:1042A00020322E3520202020202020200000000059
:1042B00000000000000008402020202020202020B6
:1042C00020332E302020202020202020000000003D
:1042D0000000000000000C40202020202020202092
:1042E00020332E3520202020202020200000000018
:1042F000000000000000104020202020202020206E
:1043000020342E30202020202020202000000000FB
:10431000000000000000124020202020202020204B
:1043200020342E35202020202020202000000000D6
:104330000000000000001440202020202020202029
:1043400020352E30202020202020202000000000BA
:104350000000000000001640202020202020202007
:1043600020352E3520202020202020200000000095
:1043700000000000000018402020202020202020E5
:1043800020362E3020202020202020200000000079
:104390000000000000001A402020202020202020C3
:1043A00020362E3520202020202020200000000054
:1043B0000000000000001C402020202020202020A1
:1043C00020372E3020202020202020200000000038
:1043D0000000000000001E4020202020202020207F
:1043E00020372E3520202020202020200000000013
:1043F0000000000000002040ABA0B6E49FEDB00B31
:1044000053EC102B51EC180B02F0D8FA01D1AEA0EE
:10441000ABE49FEDB30B53EC102B51EC180B02F0F7
:10442000CDFA01D1B0A0A0E49FEDB50B53EC102B59
:1044300051EC180B02F0C2FA01D1B3A095E49FED44
:10444000B80B53EC102B51EC180B02F0B7FA01D15A
:10445000B5A08AE49FEDBA0B53EC102B51EC180B6E
:1044600002F0ACFA01D1B8A07FE49FEDBD0B53EC94
:10447000102B51EC180B02F0A1FA01D1BAA074E490
:104480009FEDBF0B53EC102B51EC180B02F096FA7A
:1044900001D1BDA069E49FEDC20B53EC102B51EC90
:1044A000180B02F08BFA01D1BFA05EE49FEDC40BA4
:1044B00053EC102B51EC180B02F080FA01D1C2A082
:1044C00053E49FEDC70B53EC102B51EC180B02F08B
:1044D00075FA01D1C4A048E49FEDC90B53EC102B31
:1044E00051EC180B02F06AFA01D1C7A03DE49FED30
:1044F000CC0B53EC102B51EC180B02F05FFA01D1EE
:10450000C9A032E49FEDCE0B53EC102B51EC180BED
:1045100002F054FA01D1CCA027E49FEDD10B53EC6B
:10452000102B51EC180B02F049FA01D1CEA01CE47B
:104530009FEDD30B53EC102B51EC180B02F03EFA0D
:1045400001D1D1A011E49FEDD60B53EC102B51EC0F
:10455000180B02F033FA01D1D3A006E49FEDD80B7B
:1045600053EC102B51EC180B02F028FA01D1D6A015
:1045700006E49FEDDB0B53EC102B51EC180B02F013
:104580001DFA01D1D8A006E49FEDDD0B53EC102BF2
:1045900051EC180B02F012FA01D1DBA006E49FEDFA
:1045A000E00B53EC102B51EC180B02F007FA01D181
:1045B000DDA006E49FEDE20B53EC102B51EC180B41
:1045C00002F0FCF901D1E0A006E49FEDE50B53EC0D
:1045D000102B51EC180B02F0F1F901D1E2A006E426
:1045E0009FEDE70B53EC102B51EC180B02F0E6F9A2
:1045F00001D1E5A006E49FEDEA0B53EC102B51EC42
:10460000180B02F0DBF901D1E7A006E49FEDEC0BFB
:1046100053EC102B51EC180B02F0D0F901D1EAA0A9
:1046200006E49FEDEF0B53EC102B51EC180B02F04E
:10463000C5F901D1ECA006E49FEDF10B53EC102B72
:1046400051EC180B02F0BAF901D1EFA006E49FED8E
:10465000F40B53EC102B51EC180B02F0AFF901D115
:10466000F1A006E49FEDF60B53EC102B51EC180B68
:1046700002F0A4F901D1F4A006E49FEDF90B53EC8C
:10468000102B51EC180B02F099F901D1F6A006E4B9
:104690009FEDFB0B53EC102B51EC180B02F08EF935
:1046A00000D1F1E1F2E10000202020202020202094
:1046B00020382E3020202020202020200000000044
:1046C0000000000000002140202020202020202089
:1046D00020382E352020202020202020000000001F
:1046E0000000000000002240202020202020202068
:1046F00020392E3020202020202020200000000003
:104700000000000000002340202020202020202046
:1047100020392E35202020202020202000000000DD
:104720000000000000002440202020202020202025
:1047300031302E30202020202020202000000000BA
:104740000000000000002540202020202020202004
:1047500031302E3520202020202020200000000095
:1047600000000000000026402020202020202020E3
:1047700031312E3020202020202020200000000079
:1047800000000000000027402020202020202020C2
:1047900031312E3520202020202020200000000054
:1047A00000000000000028402020202020202020A1
:1047B00031322E3020202020202020200000000038
:1047C0000000000000002940202020202020202080
:1047D00031322E3520202020202020200000000013
:1047E0000000000000002A4020202020202020205F
:1047F00031332E30202020202020202000000000F7
:104800000000000000002B4020202020202020203D
:1048100031332E35202020202020202000000000D1
:104820000000000000002C4020202020202020201C
:1048300031342E30202020202020202000000000B5
:104840000000000000002D402020202020202020FB
:1048500031342E3520202020202020200000000090
:104860000000000000002E402020202020202020DA
:1048700031352E3020202020202020200000000074
:104880000000000000002F402020202020202020B9
:1048900031352E352020202020202020000000004F
:1048A0000000000000003040202020202020202098
:1048B00031362E3020202020202020200000000033
:1048C00000000000008030402020202020202020F8
:1048D00031362E352020202020202020000000000E
:1048E0000000000000003140202020202020202057
:1048F00031372E30202020202020202000000000F2
:1049000000000000008031402020202020202020B6
:1049100031372E35202020202020202000000000CC
:104920000000000000003240202020202020202015
:1049300031382E30202020202020202000000000B0
:104940000000000000803240202020202020202075
:1049500031382E352020202020202020000000008B
:1049600000000000000033402020202020202020D4
:1049700031392E302020202020202020000000006F
:104980000000000000803340202020202020202034
:1049900031392E352020202020202020000000004A
:1049A0000000000000003440202020202020202093
:1049B00032302E3020202020202020200000000037
:1049C00000000000008034402020202020202020F3
:1049D00032302E3520202020202020200000000012
:1049E0000000000000003540202020202020202052
:1049F00032312E30202020202020202000000000F6
:104A000000000000008035402020202020202020B1
:104A100032312E35202020202020202000000000D0
:104A20000000000000003640202020202020202010
:104A300032322E30202020202020202000000000B4
:104A40000000000000803640202020202020202070
:104A500032322E352020202020202020000000008F
:104A600000000000000037402020202020202020CF
:104A700032332E3020202020202020200000000073
:104A80000000000000803740D5A0B6E49FEDDA0BAF
:104A900053EC102B51EC180B01F090FF01D1D8A072
:104AA000ABE49FEDDD0B53EC102B51EC180B01F038
:104AB00085FF01D1DAA0A0E49FEDDF0B53EC102BB2
:104AC00051EC180B01F07AFF01D1DDA095E49FEDC8
:104AD000E20B53EC102B51EC180B01F06FFF01D1DE
:104AE000DFA08AE49FEDE40B53EC102B51EC180B84
:104AF00001F064FF01D1E2A07FE49FEDE70B53ECEE
:104B0000102B51EC180B01F059FF01D1E4A074E413
:104B10009FEDE90B53EC102B51EC180B01F04EFFFD
:104B200001D1E7A069E49FEDEC0B53EC102B51ECA5
:104B3000180B01F043FF01D1E9A05EE49FEDEE0BFD
:104B400053EC102B51EC180B01F038FF01D1ECA005
:104B500053E49FEDF10B53EC102B51EC180B01F0CB
:104B60002DFF01D1EEA048E49FEDF30B53EC102B89
:104B700051EC180B01F022FF01D1F1A03DE49FEDB3
:104B8000F60B53EC102B51EC180B01F017FF01D171
:104B9000F3A032E49FEDF80B53EC102B51EC180B03
:104BA00001F00CFF01D1F6A027E4FBA025E470B5CD
:104BB00000268021FE48FCF702FB04464FF480717A
:104BC000FB48FCF7FCFA0546002C10DD0DE08021C7
:104BD000F748FCF7F4FA04464FF48071F448FCF708
:104BE000EEFA0546002D00DD0126002CEFDC002D3D
:104BF00010DD0DE08021EE48FCF7E1FA04464FF4A9
:104C00008071EB48FCF7DBFA0546002C00DD02263C
:104C1000002DEFDC304670BD012500260024A046A3
:104C2000A1460027E3A10020FEF7A1F9FDE3FFF76D
:104C3000BEFF20B1012804D002286ED136E3002740
:104C400036E3012F00D1FBE70127012D06D0022D0D
:104C500036D0032D75D0042D74D123E326B1012E57
:104C600010D0022E2AD11BE00126D848006820B9B6
:104C7000D7A10020FEF77BF903E0DBA10020FEF7BF
:104C800076F91BE00226D148006820B9DCA100209B
:104C9000FEF76DF903E0E0A10020FEF768F90DE0F2
:104CA0000026CA48006820B9C2A10020FEF75FF9BB
:104CB00003E0DFA10020FEF75AF900BF00BFF3E2D6
:104CC00026B1012E2AD0022E58D13CE0042C01D16D
:104CD000002400E0641C052C1DD2DFE804F003086A
:104CE0000D121700D8A10120FEF741F913E0DCA155
:104CF0000120FEF73CF90EE0DFA10120FEF737F9B5
:104D000009E0E3A10120FEF732F904E0E6A1012069
:104D1000FEF72DF900BF00BF30E0EBE3E848006884
:104D2000012807D10020E6490860E6A10120FEF72E
:104D30001EF905E00120E2490860E8A1FEF717F935
:104D40001CE01DE0AFE2A148006801280BD1002063
:104D50009E490860DBA10120FEF709F9A8A1002007
:104D6000FEF705F909E0012098490860DBA1FEF78C
:104D7000FEF8A9A10020FEF7FAF800BF00BF93E2F9
:104D8000052C10D2DFE804F0032B2A2928009FED20
:104D9000D90B53EC102BD94890ED000B51EC100BB4
:104DA00001F00CFE00D17BE29FEDD50B53EC102BF4
:104DB000D24890ED000B51EC100B01F0F3FB41ECED
:104DC000100BCE4880ED000B90ED000BFEF7D7F9ED
:104DD00082465146022097E132E201E2D0E19FE1B2
:104DE000202020202020202032332E35202020207B
:104DF00020202020000000000000000000003840BB
:104E0000202020202020202032342E30202020205E
:104E1000202020200000000000000000008038401A
:104E2000202020202020202032342E352020202039
:104E30002020202000000000000000000000394079
:104E4000202020202020202032352E30202020201D
:104E500020202020000000000000000000803940D9
:104E6000202020202020202032352E3520202020F8
:104E700020202020000000000000000000003A4038
:104E8000202020202020202032362E3020202020DC
:104E900020202020000000000000000000803A4098
:104EA000202020202020202032362E3520202020B7
:104EB00020202020000000000000000000003B40F7
:104EC000202020202020202032372E30202020209B
:104ED00020202020000000000000000000803B4057
:104EE000202020202020202032372E352020202076
:104EF00020202020000000000000000000003C40B6
:104F0000202020202020202032382E302020202059
:104F100020202020000000000000000000803C4015
:104F2000202020202020202032382E352020202034
:104F300020202020000000000000000000003D4074
:104F4000202020202020202032392E302020202018
:104F500020202020000000000000000000803D40D4
:104F6000202020202020202032392E3520202020F3
:104F700020202020000000000000000000003E4033
:104F8000202020202020202033302E3020202020E0
:104F900020202020000000006572726F7220202007
:104FA0002020202020202020202020200000000081
:104FB00000100048202020202020204D616E7561C7
:104FC0006C20202020202020000000007C000020F9
:104FD0002020202020204175746F6D6F6465202093
:104FE00020202020000000002020202020204175CB
:104FF000746F6D6F646520202020202A000000005F
:1050000020202020202020427970617373202020EE
:1050100020202020000000002020202020202042EE
:1050200079706173732020202020202A0000000066
:10503000202020202020204D616E75616C202020D2
:105040002020202A0000000020202020202054685A
:10505000726573686F6C64202020202000000000BF
:1050600020202020204D616B655570204761696EBE
:10507000202020200000000020202020202020418F
:10508000747461636B202020202020200000000029
:1050900020202020202052656C656173652020202F
:1050A000202020200000000020202020202020524E
:1050B0006174696F20202020202020200000000043
:1050C0007800002020202020202044697361626C39
:1050D00065642020202020200000000020202020C7
:1050E0002020456E61626C656420202020202020F5
:1050F000000000000000000000002E4050000020D2
:10510000000000000000E03FFDF731FFFA4890ED9D
:10511000002B1FED081B9FEDF90BFDF756FFBFE0BD
:105120009FEDF80B53EC102BF84890ED000B51EC71
:10513000100B01F043FC00D1B2E01FED0F0B53EC5C
:10514000102BF24890ED000B51EC100B01F02AFAF5
:1051500041EC100BED4880ED000B90ED000BFEF7DD
:105160000EF8824651460220FDF701FFE74890ED18
:10517000002B9FEDE41B9FEDE60BFDF726FF8FE074
:105180001FED830B53EC102BE34890ED000B51EC1B
:10519000100B01F013FC00D182E01FED270B53EC44
:1051A000102BDD4890ED000B51EC100B01F0FAF9DB
:1051B00041EC100BD84880ED000B90ED000BFDF793
:1051C000DEFF824651460220FDF7D1FED24890ED27
:1051D000002B1FED971B9FEDD10BFDF7F6FE5FE057
:1051E0009FEDD00B53EC102BD04890ED000B51EC01
:1051F000100B01F0E3FB00D152E09FEDCD0B53EC1F
:10520000102BCA4890ED000B51EC100B01F0CAF9BD
:1052100041EC100BC54880ED000B90ED000BFDF745
:10522000AEFF824651460220FDF7A1FEBF4890ED39
:10523000002B9FEDBC1B9FEDB90BFDF7C6FE2FE0C9
:105240009FEDBD0B53EC102BBD4890ED000B51ECC6
:10525000100B01F0B3FB00D122E09FEDBA0B53EC31
:10526000102BB74890ED000B51EC100B01F09AF9A0
:1052700041EC100BB24880ED000B90ED000BFDF7F8
:105280007EFF824651460220FDF771FEAC4890ED4C
:10529000002B9FEDA91B9FEDAB0BFDF796FE00BF0A
:1052A00000BF00BF00E000BF00BF00BF012F00D162
:1052B000E0E10127012D06D0022D3CD0032D78D04E
:1052C000042D77D1D1E126B1012E12D0022E30D19A
:1052D0001FE002269D48006828B9AFF2DC210020BB
:1052E000FDF745FE04E0AFF2D0210020FDF73FFEC0
:1052F0001FE000269548006828B9AFF24831002029
:10530000FDF735FE04E0AFF2D8210020FDF72FFEB7
:105310000FE001268D48006828B9AFF24C3100201B
:10532000FDF725FE04E0AFF240310020FDF71FFE3F
:1053300000BF00BF9BE126B1012E2DD0022E61D10E
:1053400041E00CB9042400E0641E052C22D2DFE801
:1053500004F003090F151B00AFF214310120FDF713
:1053600006FE17E0AFF208310120FDF700FE11E064
:10537000AFF2FC210120FDF7FAFD0BE0AFF2F021C6
:105380000120FDF7F4FD05E0AFF2E4210120FDF777
:10539000EEFD00BF00BF35E06D48006801280AD16E
:1053A00000206B490860AFF2E4210120FDF7DFFD2A
:1053B00008E029E05AE1012065490860AFF2E421E4
:1053C000FDF7D5FD1EE06148006801280DD10020E1
:1053D0005E490860AFF214310120FDF7C8FDAFF25D
:1053E000E0310020FDF7C3FD0BE0012057490860C4
:1053F000AFF21831FDF7BBFDAFF2E4310020FDF74D
:10540000B6FD00BF00BF32E1052C12D2DFE804F088
:10541000033565C5FB009FED390B53EC102B364867
:1054200090ED000B51EC100B00E030E201F0C6FAF9
:1054300000D118E11FEDCE0B53EC102B2E4890ED50
:10544000000B51EC100B01F0F9FC41EC100B2A4859
:1054500080ED000B90ED000BFDF791FE824651466A
:105460000220FDF784FD244890ED002B1FEDDF1B8B
:105470009FED220BFDF7A9FDF5E09FED250B53EC09
:10548000102B224890ED000B51EC100B01F096FA16
:1054900000D1E8E01FEDE60B53EC102B1B4890ED1C
:1054A000000B51EC100B01F0C9FC41EC100B17483C
:1054B00080ED000B90ED000BFDF761FE824651463A
:1054C0000220FDF754FD114890ED002B9FED0D1BC0
:1054D0009FED0F0BFDF779FDC5E09FED100B53EC31
:1054E000102B0D4890ED000B51EC100B01F066FAFB
:1054F00030D1B8E0BDE00000500000200000000006
:10550000000034C0000000000000284070000020AF
:1055100000000000000014C0600000209A999999D2
:105520009999B93F333333333333F33F6800002065
:105530009A9999999999A93F000000000000344078
:1055400058000020000000000000F03F7C00002018
:10555000780000209FEDFE0B53EC102BFE4890EDE1
:10556000000B51EC100B01F069FC41EC100BFA48F8
:1055700080ED000B90ED000BFDF701FE82465146D9
:105580000220FDF7F4FCF44890ED002B9FEDF31B97
:105590001FED1E0BFDF719FD65E01FED200B53EC11
:1055A000102BF04890ED000B51EC100B01F0CAFAF3
:1055B00005D81FED260BEB4880ED000B53E01FEDE7
:1055C000240B53EC102BE74890ED000B51EC100B23
:1055D00001F034FC41EC100BE24880ED000B90ED43
:1055E000000BFDF7CCFD824651460220FDF7BFFCC3
:1055F000DC4890ED002B1FED351B1FED380BFDF740
:10560000E4FC30E0FFE71FED310B53EC102BD648E4
:1056100090ED000B51EC100B01F0D0F900D122E01D
:105620001FED380B53EC102BCF4890ED000B51ECD5
:10563000100B01F003FC41EC100BCB4880ED000B8C
:1056400090ED000BFDF79BFD824651460220FDF7D1
:105650008EFCC54890ED002B1FED491B1FED470B3D
:10566000FDF7B3FC00BF00BF00BF00E000BF00BFFC
:1056700000BF00BF00BFB9F1000F7CD14FF4007133
:10568000BA48FBF79CFD002876DD4FF00109012D9B
:1056900004D0022D5AD0032D57D1CAE06D1C26B17B
:1056A000012E29D0022E4FD135E0052C22D2DFE881
:1056B00004F003090F151B00AFF274610120FDF720
:1056C00056FC17E0AFF268610120FDF750FC11E0D5
:1056D000AFF25C610120FDF74AFC0BE0AFF25061D4
:1056E0000120FDF744FC05E0AFF244610120FDF725
:1056F0003EFC00BF00BF27E09D480068012804D1A0
:10570000AFF22861FDF733FC04E0AFF248610120FD
:10571000FDF72DFC18E097480068012809D1AFF289
:105720004461FDF724FCAFF210710020FDF71FFC6F
:1057300009E0AFF270610120FDF719FCAFF2407192
:105740000020FDF714FC00BF00BF73E096BB6D1C8A
:10575000052C6CD2DFE804F0031A2F43570086486B
:1057600090ED000BFDF70BFD824651460220FDF740
:10577000FEFB814801E05EE065E090ED002B9FEDCF
:105780007F1B1FEDA20BFDF720FC50E07D4890ED44
:10579000000BFDF7F4FC824651460220FDF7E7FBC3
:1057A000784890ED002B1FEDA91B1FEDA70BFDF70F
:1057B0000CFC3CE03CE0684890ED000BFDF7DFFCA2
:1057C000824651460220FDF7D2FB634890ED002B44
:1057D0009FED621B1FEDAF0BFDF7F7FB27E0614864
:1057E00090ED000BFDF7CBFC824651460220FDF701
:1057F000BEFB5C4890ED002B1FEDB61B1FEDB90BF7
:10580000FDF7E3FB13E0584890ED000BFDF7B7FC04
:10581000824651460220FDF7AAFB534890ED002B2B
:105820001FEDBB1B1FEDB90BFDF7CFFB00BF00BF8A
:1058300000E000BF07E04FF400714C48FBF7BFFCED
:1058400008B94FF00009B8F1000F21D14FF4806181
:105850004648FBF7B4FC002822DD4FF00108012D7B
:1058600004D0022D03D0032D11D106E00FE06D1EF0
:1058700045A10120FDF77BFB09E06D1E42A102203E
:10588000FDF775FB40A10320FDF771FB00BF07E0AA
:105890004FF480613548FBF792FC08B94FF00008DF
:1058A000FFF7C5B910B50121C804FCF7D1F80722EC
:1058B00004213B48FBF7A6FC10203A49086003206E
:1058C000487102200871002088710120C871344895
:1058D000FBF719FC01218803FCF7C7F84FF41650B9
:1058E00031490860002048608860C860486108202D
:1058F00008612E48FDF7D1F801212C48FDF75CF92D
:1059000021A10020FDF733FB1FA10120FDF72FFB94
:105910001DA10220FDF72BFB1BA10320FDF727FB98
:1059200010BD10B501214807FCF7ACF810201D4947
:10593000086003200871002088710220C8714FF0B0
:105940009040FBF7E0FBFBF757F90020184931E0E6
:10595000000000000000E03F6000002000000000A8
:1059600000003E4068000020580000200010004861
:10597000780000207C000020500000200000000083
:1059800000002E4070000020202020202020202019
:105990002020202020202020202020200000000087
:1059A00000080048A40000207C01002000380140CD
:1059B0004C010020086048600220C8600020FBF70E
:1059C00026F901210020FBF73FF910BD10B54FF477
:1059D0008870FBF7B4FF01210807FCF739F80121B3
:1059E0004804FCF735F801207D4908600320087160
:1059F0000020C8714FF09040FBF785FB00214FF06D
:105A0000A040FAF787FD4FF0A040FAF777FD00BFFE
:105A10004FF0A040FAF786FD0028F9D14FF0A040E2
:105A2000FAF771FD6F49088000206F4908604860EF
:105A30008860C86008744FF0A040FAF723FD4FF467
:105A400000506A490860002048608860C8600861AA
:105A500048618861012008774FF0A040FAF7C8FC40
:105A60000323012211464FF0A040FAF781FE0121E5
:105A70004FF0A040FAF737FD00BF01214FF0A040E2
:105A8000FBF764F80028F8D04FF0A040FAF714FFB5
:105A900010BD10B501210220FBF7F4FF1D20544971
:105AA00008700020487001208870C8700846FBF715
:105AB000DCFB01204F49486040F60F600880002061
:105AC000088148804C48FCF764F900204B49086085
:105AD000012088804A4800888860002088814648E4
